{
  "contractName": "StakingStorage",
  "abi": [
    {
      "anonymous": false,
      "inputs": [
        {
          "indexed": true,
          "internalType": "address",
          "name": "previousOwner",
          "type": "address"
        },
        {
          "indexed": true,
          "internalType": "address",
          "name": "newOwner",
          "type": "address"
        }
      ],
      "name": "OwnershipTransferred",
      "type": "event"
    },
    {
      "inputs": [],
      "name": "SLICE",
      "outputs": [
        {
          "internalType": "contract IERC20",
          "name": "",
          "type": "address"
        }
      ],
      "stateMutability": "view",
      "type": "function"
    },
    {
      "inputs": [
        {
          "internalType": "address",
          "name": "",
          "type": "address"
        },
        {
          "internalType": "address",
          "name": "",
          "type": "address"
        }
      ],
      "name": "balances",
      "outputs": [
        {
          "internalType": "uint256",
          "name": "stakedAmount",
          "type": "uint256"
        },
        {
          "internalType": "uint256",
          "name": "accruedRewards",
          "type": "uint256"
        }
      ],
      "stateMutability": "view",
      "type": "function"
    },
    {
      "inputs": [
        {
          "internalType": "address",
          "name": "",
          "type": "address"
        }
      ],
      "name": "isWhitelisted",
      "outputs": [
        {
          "internalType": "bool",
          "name": "",
          "type": "bool"
        }
      ],
      "stateMutability": "view",
      "type": "function"
    },
    {
      "inputs": [
        {
          "internalType": "address",
          "name": "",
          "type": "address"
        }
      ],
      "name": "lastActivity",
      "outputs": [
        {
          "internalType": "uint256",
          "name": "",
          "type": "uint256"
        }
      ],
      "stateMutability": "view",
      "type": "function"
    },
    {
      "inputs": [],
      "name": "owner",
      "outputs": [
        {
          "internalType": "address",
          "name": "",
          "type": "address"
        }
      ],
      "stateMutability": "view",
      "type": "function"
    },
    {
      "inputs": [
        {
          "internalType": "address",
          "name": "",
          "type": "address"
        }
      ],
      "name": "poolSize",
      "outputs": [
        {
          "internalType": "uint256",
          "name": "",
          "type": "uint256"
        }
      ],
      "stateMutability": "view",
      "type": "function"
    },
    {
      "inputs": [],
      "name": "renounceOwnership",
      "outputs": [],
      "stateMutability": "nonpayable",
      "type": "function"
    },
    {
      "inputs": [],
      "name": "rewardCap",
      "outputs": [
        {
          "internalType": "uint256",
          "name": "",
          "type": "uint256"
        }
      ],
      "stateMutability": "view",
      "type": "function"
    },
    {
      "inputs": [
        {
          "internalType": "address",
          "name": "",
          "type": "address"
        }
      ],
      "name": "rewardPerBlock",
      "outputs": [
        {
          "internalType": "uint256",
          "name": "",
          "type": "uint256"
        }
      ],
      "stateMutability": "view",
      "type": "function"
    },
    {
      "inputs": [],
      "name": "rewardsDistributed",
      "outputs": [
        {
          "internalType": "uint256",
          "name": "",
          "type": "uint256"
        }
      ],
      "stateMutability": "view",
      "type": "function"
    },
    {
      "inputs": [],
      "name": "startTime",
      "outputs": [
        {
          "internalType": "uint256",
          "name": "",
          "type": "uint256"
        }
      ],
      "stateMutability": "view",
      "type": "function"
    },
    {
      "inputs": [
        {
          "internalType": "address",
          "name": "newOwner",
          "type": "address"
        }
      ],
      "name": "transferOwnership",
      "outputs": [],
      "stateMutability": "nonpayable",
      "type": "function"
    },
    {
      "inputs": [],
      "name": "withdrawBuffer",
      "outputs": [
        {
          "internalType": "uint256",
          "name": "",
          "type": "uint256"
        }
      ],
      "stateMutability": "view",
      "type": "function"
    }
  ],
  "bytecode": "0x608060405234801561001057600080fd5b50610519806100206000396000f3fe608060405234801561001057600080fd5b50600436106100cf5760003560e01c80638da5cb5b1161008c578063c23f001f11610066578063c23f001f1461019c578063f07e96b3146101e3578063f2fde38b14610209578063fa75d1601461022f576100cf565b80638da5cb5b146101845780639532e2871461018c5780639c1454d414610194576100cf565b80630cb5503b146100d45780631307a9491461010c5780633af32abf14610114578063715018a61461014e57806378e979251461015857806379749ce414610160575b600080fd5b6100fa600480360360208110156100ea57600080fd5b50356001600160a01b0316610255565b60408051918252519081900360200190f35b6100fa610267565b61013a6004803603602081101561012a57600080fd5b50356001600160a01b031661026d565b604080519115158252519081900360200190f35b610156610282565b005b6100fa610336565b61016861033c565b604080516001600160a01b039092168252519081900360200190f35b61016861034b565b6100fa61035a565b6100fa610360565b6101ca600480360360408110156101b257600080fd5b506001600160a01b0381358116916020013516610366565b6040805192835260208301919091528051918290030190f35b6100fa600480360360208110156101f957600080fd5b50356001600160a01b031661038a565b6101566004803603602081101561021f57600080fd5b50356001600160a01b031661039c565b6100fa6004803603602081101561024557600080fd5b50356001600160a01b03166104a7565b60986020526000908152604090205481565b609b5481565b60a06020526000908152604090205460ff1681565b61028a6104b9565b6065546001600160a01b039081169116146102ec576040805162461bcd60e51b815260206004820181905260248201527f4f776e61626c653a2063616c6c6572206973206e6f7420746865206f776e6572604482015290519081900360640190fd5b6065546040516000916001600160a01b0316907f8be0079c531659141344cd1fd0a4f28419497f9722a3daafe3b4186f6b6457e0908390a3606580546001600160a01b0319169055565b60975481565b609c546001600160a01b031681565b6065546001600160a01b031690565b60995481565b609a5481565b609d6020908152600092835260408084209091529082529020805460019091015482565b609f6020526000908152604090205481565b6103a46104b9565b6065546001600160a01b03908116911614610406576040805162461bcd60e51b815260206004820181905260248201527f4f776e61626c653a2063616c6c6572206973206e6f7420746865206f776e6572604482015290519081900360640190fd5b6001600160a01b03811661044b5760405162461bcd60e51b81526004018080602001828103825260268152602001806104be6026913960400191505060405180910390fd5b6065546040516001600160a01b038084169216907f8be0079c531659141344cd1fd0a4f28419497f9722a3daafe3b4186f6b6457e090600090a3606580546001600160a01b0319166001600160a01b0392909216919091179055565b609e6020526000908152604090205481565b339056fe4f776e61626c653a206e6577206f776e657220697320746865207a65726f2061646472657373a2646970667358221220e608affce23e5053579ef79087565f42ba3f055da81d5818ee9df6be7d9a4de764736f6c634300060c0033",
  "immutableReferences": {},
  "source": "// SPDX-License-Identifier: MIT\npragma solidity 0.6.12;\n\nimport \"@openzeppelin/contracts-ethereum-package/contracts/access/Ownable.sol\";\nimport \"@openzeppelin/contracts-ethereum-package/contracts/token/ERC20/IERC20.sol\";\n\n\ncontract StakingStorage is OwnableUpgradeSafe {\n    // timestamp for the start of staking period\n    uint256 public startTime;\n\n    // reward per block per token in SLICE\n    mapping(address => uint256) public rewardPerBlock;\n\n    // Total amount of SLICE tokens available for distribution as rewards for staking\n    uint256 public rewardCap;\n\n    // Total amount of SLICE tokens distributed\n    uint256 public rewardsDistributed;\n\n    // Minimum number of blocks after which the user can withdraw rewards\n    uint256 public withdrawBuffer;\n\n    IERC20 public SLICE;\n\n    struct UserBalances {\n        uint256 stakedAmount;\n        uint256 accruedRewards;\n    }\n\n    // holds the current balance of the user for each token\n    mapping(address => mapping(address => UserBalances)) public balances;\n\n    // for each token, we store the total pool size\n    mapping(address => uint256) public poolSize;\n\n    // last block number where the user withdrew/deposited tokens\n    mapping(address => uint256) public lastActivity;\n\n    // returns true if token is whitelisted i.e it can be staked\n    mapping(address => bool) public isWhitelisted;\n\n}\n",
  "sourcePath": "/Users/ttabbaa/Documents/Tranche-Contracts/staking-protocol/contracts/OldStaking/StakingStorage.sol",
  "compiler": {
    "name": "solc",
    "version": "0.6.12+commit.27d51765.Emscripten.clang"
  },
  "schemaVersion": "3.3.2",
  "updatedAt": "2021-03-18T09:02:11.029Z",
  "devdoc": {
    "kind": "dev",
    "methods": {
      "owner()": {
        "details": "Returns the address of the current owner."
      },
      "renounceOwnership()": {
        "details": "Leaves the contract without owner. It will not be possible to call `onlyOwner` functions anymore. Can only be called by the current owner. NOTE: Renouncing ownership will leave the contract without an owner, thereby removing any functionality that is only available to the owner."
      },
      "transferOwnership(address)": {
        "details": "Transfers ownership of the contract to a new account (`newOwner`). Can only be called by the current owner."
      }
    },
    "version": 1
  },
  "userdoc": {
    "kind": "user",
    "methods": {},
    "version": 1
  }
}