{
  "contractName": "Staking",
  "abi": [
    {
      "anonymous": false,
      "inputs": [
        {
          "indexed": true,
          "internalType": "address",
          "name": "user",
          "type": "address"
        },
        {
          "indexed": true,
          "internalType": "address",
          "name": "tokenAddress",
          "type": "address"
        },
        {
          "indexed": false,
          "internalType": "uint256",
          "name": "stakedAmount",
          "type": "uint256"
        },
        {
          "indexed": false,
          "internalType": "uint256",
          "name": "accruedRewards",
          "type": "uint256"
        }
      ],
      "name": "Deposit",
      "type": "event"
    },
    {
      "anonymous": false,
      "inputs": [
        {
          "indexed": true,
          "internalType": "address",
          "name": "previousOwner",
          "type": "address"
        },
        {
          "indexed": true,
          "internalType": "address",
          "name": "newOwner",
          "type": "address"
        }
      ],
      "name": "OwnershipTransferred",
      "type": "event"
    },
    {
      "anonymous": false,
      "inputs": [
        {
          "indexed": false,
          "internalType": "uint256",
          "name": "newRewardCap",
          "type": "uint256"
        }
      ],
      "name": "RewardCapUpdated",
      "type": "event"
    },
    {
      "anonymous": false,
      "inputs": [
        {
          "indexed": false,
          "internalType": "address",
          "name": "tokenAddress",
          "type": "address"
        }
      ],
      "name": "SLICEAddressUpdated",
      "type": "event"
    },
    {
      "anonymous": false,
      "inputs": [
        {
          "indexed": true,
          "internalType": "address",
          "name": "newTokenAddress",
          "type": "address"
        },
        {
          "indexed": false,
          "internalType": "uint256",
          "name": "rewardPerBlock",
          "type": "uint256"
        }
      ],
      "name": "TokenAddedToWhitelist",
      "type": "event"
    },
    {
      "anonymous": false,
      "inputs": [
        {
          "indexed": false,
          "internalType": "address",
          "name": "tokenAddress",
          "type": "address"
        }
      ],
      "name": "TokenRemovedFromWhitelist",
      "type": "event"
    },
    {
      "anonymous": false,
      "inputs": [
        {
          "indexed": true,
          "internalType": "address",
          "name": "user",
          "type": "address"
        },
        {
          "indexed": true,
          "internalType": "address",
          "name": "tokenAddress",
          "type": "address"
        },
        {
          "indexed": false,
          "internalType": "uint256",
          "name": "amount",
          "type": "uint256"
        },
        {
          "indexed": false,
          "internalType": "uint256",
          "name": "reward",
          "type": "uint256"
        }
      ],
      "name": "Withdraw",
      "type": "event"
    },
    {
      "anonymous": false,
      "inputs": [
        {
          "indexed": false,
          "internalType": "uint256",
          "name": "newWithdrawBuffer",
          "type": "uint256"
        }
      ],
      "name": "WithdrawBufferUpdated",
      "type": "event"
    },
    {
      "inputs": [],
      "name": "SLICE",
      "outputs": [
        {
          "internalType": "contract IERC20",
          "name": "",
          "type": "address"
        }
      ],
      "stateMutability": "view",
      "type": "function"
    },
    {
      "inputs": [
        {
          "internalType": "address",
          "name": "",
          "type": "address"
        },
        {
          "internalType": "address",
          "name": "",
          "type": "address"
        }
      ],
      "name": "balances",
      "outputs": [
        {
          "internalType": "uint256",
          "name": "stakedAmount",
          "type": "uint256"
        },
        {
          "internalType": "uint256",
          "name": "accruedRewards",
          "type": "uint256"
        }
      ],
      "stateMutability": "view",
      "type": "function"
    },
    {
      "inputs": [
        {
          "internalType": "address",
          "name": "",
          "type": "address"
        }
      ],
      "name": "isWhitelisted",
      "outputs": [
        {
          "internalType": "bool",
          "name": "",
          "type": "bool"
        }
      ],
      "stateMutability": "view",
      "type": "function"
    },
    {
      "inputs": [
        {
          "internalType": "address",
          "name": "",
          "type": "address"
        }
      ],
      "name": "lastActivity",
      "outputs": [
        {
          "internalType": "uint256",
          "name": "",
          "type": "uint256"
        }
      ],
      "stateMutability": "view",
      "type": "function"
    },
    {
      "inputs": [],
      "name": "owner",
      "outputs": [
        {
          "internalType": "address",
          "name": "",
          "type": "address"
        }
      ],
      "stateMutability": "view",
      "type": "function"
    },
    {
      "inputs": [
        {
          "internalType": "address",
          "name": "",
          "type": "address"
        }
      ],
      "name": "poolSize",
      "outputs": [
        {
          "internalType": "uint256",
          "name": "",
          "type": "uint256"
        }
      ],
      "stateMutability": "view",
      "type": "function"
    },
    {
      "inputs": [],
      "name": "renounceOwnership",
      "outputs": [],
      "stateMutability": "nonpayable",
      "type": "function"
    },
    {
      "inputs": [],
      "name": "rewardCap",
      "outputs": [
        {
          "internalType": "uint256",
          "name": "",
          "type": "uint256"
        }
      ],
      "stateMutability": "view",
      "type": "function"
    },
    {
      "inputs": [
        {
          "internalType": "address",
          "name": "",
          "type": "address"
        }
      ],
      "name": "rewardPerBlock",
      "outputs": [
        {
          "internalType": "uint256",
          "name": "",
          "type": "uint256"
        }
      ],
      "stateMutability": "view",
      "type": "function"
    },
    {
      "inputs": [],
      "name": "rewardsDistributed",
      "outputs": [
        {
          "internalType": "uint256",
          "name": "",
          "type": "uint256"
        }
      ],
      "stateMutability": "view",
      "type": "function"
    },
    {
      "inputs": [],
      "name": "startTime",
      "outputs": [
        {
          "internalType": "uint256",
          "name": "",
          "type": "uint256"
        }
      ],
      "stateMutability": "view",
      "type": "function"
    },
    {
      "inputs": [
        {
          "internalType": "address",
          "name": "newOwner",
          "type": "address"
        }
      ],
      "name": "transferOwnership",
      "outputs": [],
      "stateMutability": "nonpayable",
      "type": "function"
    },
    {
      "inputs": [],
      "name": "withdrawBuffer",
      "outputs": [
        {
          "internalType": "uint256",
          "name": "",
          "type": "uint256"
        }
      ],
      "stateMutability": "view",
      "type": "function"
    },
    {
      "inputs": [
        {
          "internalType": "uint256",
          "name": "_startTime",
          "type": "uint256"
        },
        {
          "internalType": "uint256",
          "name": "_rewardCap",
          "type": "uint256"
        },
        {
          "internalType": "uint256",
          "name": "_withdrawBuffer",
          "type": "uint256"
        },
        {
          "internalType": "address",
          "name": "_SLICEAddress",
          "type": "address"
        }
      ],
      "name": "initialize",
      "outputs": [],
      "stateMutability": "nonpayable",
      "type": "function"
    },
    {
      "inputs": [
        {
          "internalType": "address",
          "name": "_tokenAddress",
          "type": "address"
        },
        {
          "internalType": "uint256",
          "name": "_rewardPerBlock",
          "type": "uint256"
        }
      ],
      "name": "addStakableToken",
      "outputs": [],
      "stateMutability": "nonpayable",
      "type": "function"
    },
    {
      "inputs": [
        {
          "internalType": "address",
          "name": "_tokenAddress",
          "type": "address"
        }
      ],
      "name": "removeStakableToken",
      "outputs": [],
      "stateMutability": "nonpayable",
      "type": "function"
    },
    {
      "inputs": [
        {
          "internalType": "address",
          "name": "_tokenAddress",
          "type": "address"
        }
      ],
      "name": "updateSLICEAddress",
      "outputs": [],
      "stateMutability": "nonpayable",
      "type": "function"
    },
    {
      "inputs": [
        {
          "internalType": "uint256",
          "name": "_rewardCap",
          "type": "uint256"
        }
      ],
      "name": "updateRewardCap",
      "outputs": [],
      "stateMutability": "nonpayable",
      "type": "function"
    },
    {
      "inputs": [
        {
          "internalType": "uint256",
          "name": "_withdrawBuffer",
          "type": "uint256"
        }
      ],
      "name": "updateWithdrawBuffer",
      "outputs": [],
      "stateMutability": "nonpayable",
      "type": "function"
    },
    {
      "inputs": [
        {
          "internalType": "address",
          "name": "_tokenAddress",
          "type": "address"
        },
        {
          "internalType": "uint256",
          "name": "_amount",
          "type": "uint256"
        }
      ],
      "name": "deposit",
      "outputs": [],
      "stateMutability": "nonpayable",
      "type": "function"
    },
    {
      "inputs": [
        {
          "internalType": "address",
          "name": "_tokenAddress",
          "type": "address"
        },
        {
          "internalType": "uint256",
          "name": "_amount",
          "type": "uint256"
        }
      ],
      "name": "withdraw",
      "outputs": [],
      "stateMutability": "nonpayable",
      "type": "function"
    },
    {
      "inputs": [
        {
          "internalType": "address",
          "name": "_tokenAddress",
          "type": "address"
        }
      ],
      "name": "getTotalReward",
      "outputs": [
        {
          "internalType": "uint256",
          "name": "reward",
          "type": "uint256"
        }
      ],
      "stateMutability": "view",
      "type": "function"
    },
    {
      "inputs": [
        {
          "internalType": "address",
          "name": "_user",
          "type": "address"
        },
        {
          "internalType": "address",
          "name": "_token",
          "type": "address"
        }
      ],
      "name": "balanceOf",
      "outputs": [
        {
          "internalType": "uint256",
          "name": "",
          "type": "uint256"
        }
      ],
      "stateMutability": "view",
      "type": "function"
    },
    {
      "inputs": [
        {
          "internalType": "address",
          "name": "_tokenAddress",
          "type": "address"
        }
      ],
      "name": "getPoolSize",
      "outputs": [
        {
          "internalType": "uint256",
          "name": "",
          "type": "uint256"
        }
      ],
      "stateMutability": "view",
      "type": "function"
    }
  ],
  "bytecode": "0x608060405234801561001057600080fd5b50611d2e806100206000396000f3fe608060405234801561001057600080fd5b50600436106101585760003560e01c80638cb86bd3116100c3578063d1a7c86f1161007c578063d1a7c86f146103a8578063f07e96b3146103ce578063f2fde38b146103f4578063f3fef3a31461041a578063f7888aec14610446578063fa75d1601461047457610158565b80638cb86bd3146103005780638da5cb5b1461031d5780639532e287146103255780639c1454d41461032d578063a3cd34bf14610335578063c23f001f1461036157610158565b806347e7ef241161011557806347e7ef241461025d57806357daee06146102895780635e5c4d12146102af578063715018a6146102cc57806378e97925146102d457806379749ce4146102dc57610158565b80630cb5503b1461015d5780631307a949146101955780631f8d519d1461019d57806322e51ce6146101d757806334381749146101fd5780633af32abf14610223575b600080fd5b6101836004803603602081101561017357600080fd5b50356001600160a01b031661049a565b60408051918252519081900360200190f35b6101836104ac565b6101d5600480360360808110156101b357600080fd5b50803590602081013590604081013590606001356001600160a01b03166104b2565b005b610183600480360360208110156101ed57600080fd5b50356001600160a01b031661062e565b6101836004803603602081101561021357600080fd5b50356001600160a01b0316610649565b6102496004803603602081101561023957600080fd5b50356001600160a01b031661068a565b604080519115158252519081900360200190f35b6101d56004803603604081101561027357600080fd5b506001600160a01b03813516906020013561069f565b6101d56004803603602081101561029f57600080fd5b50356001600160a01b0316610a85565b6101d5600480360360208110156102c557600080fd5b5035610b31565b6101d5610bc4565b610183610c66565b6102e4610c6c565b604080516001600160a01b039092168252519081900360200190f35b6101d56004803603602081101561031657600080fd5b5035610c7b565b6102e4610d0e565b610183610d1d565b610183610d23565b6101d56004803603604081101561034b57600080fd5b506001600160a01b038135169060200135610d29565b61038f6004803603604081101561037757600080fd5b506001600160a01b0381358116916020013516610de7565b6040805192835260208301919091528051918290030190f35b6101d5600480360360208110156103be57600080fd5b50356001600160a01b0316610e0b565b610183600480360360208110156103e457600080fd5b50356001600160a01b0316610f35565b6101d56004803603602081101561040a57600080fd5b50356001600160a01b0316610f47565b6101d56004803603604081101561043057600080fd5b506001600160a01b038135169060200135611040565b6101836004803603604081101561045c57600080fd5b506001600160a01b038135811691602001351661131f565b6101836004803603602081101561048a57600080fd5b50356001600160a01b031661134c565b60ca6020526000908152604090205481565b60cd5481565b600054610100900460ff16806104cb57506104cb61135e565b806104d9575060005460ff16155b6105145760405162461bcd60e51b815260040180806020018281038252602e815260200180611c4f602e913960400191505060405180910390fd5b600054610100900460ff1615801561053f576000805460ff1961ff0019909116610100171660011790555b610547611364565b61054f611416565b60c985905560cb84905560cd83905560ce80546001600160a01b0384166001600160a01b0319909116811790915560408051918252517f78238bd9e9d09566ef093c7a0f94cc93577c64107b77e2e477aeb869de433e0f9181900360200190a16040805185815290517fc0bd6b8ee2772983093c4e5c8ad0f916ce7b7629492b773c20a9bdb39e5c55059181900360200190a16040805184815290517f50d2f4cb33a455ed4aeccd9f35dc866e0270ab459595a373b0e6a1fd84e50b049181900360200190a18015610627576000805461ff00191690555b5050505050565b6001600160a01b0316600090815260d0602052604090205490565b33600090815260cf602090815260408083206001600160a01b038516845290915281206001015461068361067c846114c4565b8290611541565b9392505050565b60d26020526000908152604090205460ff1681565b6001600160a01b038216600090815260d26020526040902054829060ff1661070e576040805162461bcd60e51b815260206004820152601e60248201527f5374616b696e673a20546f6b656e206e6f742077686974656c69737465640000604482015290519081900360640190fd5b60cb5460cc54106107505760405162461bcd60e51b8152600401808060200182810382526031815260200180611c7d6031913960400191505060405180910390fd5b60335460ff166107a7576040805162461bcd60e51b815260206004820152601f60248201527f5265656e7472616e637947756172643a207265656e7472616e742063616c6c00604482015290519081900360640190fd5b6033805460ff1916905560c9544210156107f25760405162461bcd60e51b815260040180806020018281038252602b815260200180611be3602b913960400191505060405180910390fd5b60008211610847576040805162461bcd60e51b815260206004820152601b60248201527f5374616b696e673a20416d6f756e74206d757374206265203e20300000000000604482015290519081900360640190fd5b60408051636eb1769f60e11b815233600482015230602482015290516000916001600160a01b0386169163dd62ed3e91604480820192602092909190829003018186803b15801561089757600080fd5b505afa1580156108ab573d6000803e3d6000fd5b505050506040513d60208110156108c157600080fd5b505190508281101561091a576040805162461bcd60e51b815260206004820181905260248201527f5374616b696e673a20546f6b656e20616c6c6f77616e636520746f6f206c6f77604482015290519081900360640190fd5b33600090815260cf602090815260408083206001600160a01b0388168452909152812090610947866114c4565b905080156109be5760cb5460cc5461095f9083611541565b1161098d5760018201546109739082611541565b600183015560cc546109859082611541565b60cc556109be565b6109b26109a760cc5460cb5461159b90919063ffffffff16565b600184015490611541565b600183015560cb5460cc555b81546109ca9086611541565b825533600090815260d1602090815260408083204390556001600160a01b038916835260d09091529020546109ff9086611541565b6001600160a01b038716600090815260d06020526040902055610a24863330886115dd565b600182015460408051878152602081019290925280516001600160a01b0389169233927fdcbc1c05240f31ff3ad067ef1ee35ce4997762752e3a095284754544f4c709d792918290030190a350506033805460ff1916600117905550505050565b610a8d61163d565b6097546001600160a01b03908116911614610add576040805162461bcd60e51b81526020600482018190526024820152600080516020611c2f833981519152604482015290519081900360640190fd5b60ce80546001600160a01b0383166001600160a01b0319909116811790915560408051918252517f78238bd9e9d09566ef093c7a0f94cc93577c64107b77e2e477aeb869de433e0f9181900360200190a150565b610b3961163d565b6097546001600160a01b03908116911614610b89576040805162461bcd60e51b81526020600482018190526024820152600080516020611c2f833981519152604482015290519081900360640190fd5b60cb8190556040805182815290517fc0bd6b8ee2772983093c4e5c8ad0f916ce7b7629492b773c20a9bdb39e5c55059181900360200190a150565b610bcc61163d565b6097546001600160a01b03908116911614610c1c576040805162461bcd60e51b81526020600482018190526024820152600080516020611c2f833981519152604482015290519081900360640190fd5b6097546040516000916001600160a01b0316907f8be0079c531659141344cd1fd0a4f28419497f9722a3daafe3b4186f6b6457e0908390a3609780546001600160a01b0319169055565b60c95481565b60ce546001600160a01b031681565b610c8361163d565b6097546001600160a01b03908116911614610cd3576040805162461bcd60e51b81526020600482018190526024820152600080516020611c2f833981519152604482015290519081900360640190fd5b60cd8190556040805182815290517f50d2f4cb33a455ed4aeccd9f35dc866e0270ab459595a373b0e6a1fd84e50b049181900360200190a150565b6097546001600160a01b031690565b60cb5481565b60cc5481565b610d3161163d565b6097546001600160a01b03908116911614610d81576040805162461bcd60e51b81526020600482018190526024820152600080516020611c2f833981519152604482015290519081900360640190fd5b6001600160a01b038216600081815260d260209081526040808320805460ff1916600117905560ca825291829020849055815184815291517ff8beb3a38034f076ec89cfa47cd6732c1f640c1151fb8bf299cad209f7d295059281900390910190a25050565b60cf6020908152600092835260408084209091529082529020805460019091015482565b6001600160a01b038116600090815260d26020526040902054819060ff16610e7a576040805162461bcd60e51b815260206004820152601e60248201527f5374616b696e673a20546f6b656e206e6f742077686974656c69737465640000604482015290519081900360640190fd5b610e8261163d565b6097546001600160a01b03908116911614610ed2576040805162461bcd60e51b81526020600482018190526024820152600080516020611c2f833981519152604482015290519081900360640190fd5b6001600160a01b038216600081815260d260209081526040808320805460ff1916905560ca825280832092909255815192835290517fdd2e6d9f52cbe8f695939d018b7d4a216dc613a669876163ac548b916489d9179281900390910190a15050565b60d16020526000908152604090205481565b610f4f61163d565b6097546001600160a01b03908116911614610f9f576040805162461bcd60e51b81526020600482018190526024820152600080516020611c2f833981519152604482015290519081900360640190fd5b6001600160a01b038116610fe45760405162461bcd60e51b8152600401808060200182810382526026815260200180611bbd6026913960400191505060405180910390fd5b6097546040516001600160a01b038084169216907f8be0079c531659141344cd1fd0a4f28419497f9722a3daafe3b4186f6b6457e090600090a3609780546001600160a01b0319166001600160a01b0392909216919091179055565b6001600160a01b038216600090815260d26020526040902054829060ff166110af576040805162461bcd60e51b815260206004820152601e60248201527f5374616b696e673a20546f6b656e206e6f742077686974656c69737465640000604482015290519081900360640190fd5b60335460ff16611106576040805162461bcd60e51b815260206004820152601f60248201527f5265656e7472616e637947756172643a207265656e7472616e742063616c6c00604482015290519081900360640190fd5b6033805460ff1916905560cd5433600090815260d1602052604090205461112e90439061159b565b101561116b5760405162461bcd60e51b8152600401808060200182810382526021815260200180611cae6021913960400191505060405180910390fd5b33600090815260cf602090815260408083206001600160a01b0387168452909152902080548311156111e4576040805162461bcd60e51b815260206004820152601860248201527f5374616b696e673a2062616c616e636520746f6f206c6f770000000000000000604482015290519081900360640190fd5b60006111ef856114c4565b9050600061120a83600101548361154190919063ffffffff16565b6000600185015560cb5460cc54919250906112259084611541565b1161123f5760cc546112379083611541565b60cc55611246565b60cb5460cc555b8254611252908661159b565b835533600090815260d1602090815260408083204390556001600160a01b038916835260d0909152902054611287908661159b565b6001600160a01b038716600090815260d060205260409020556112ab863387611641565b60ce546112c2906001600160a01b03163383611641565b604080518681526020810183905281516001600160a01b0389169233927ff341246adaac6f497bc2a656f546ab9e182111d630394f0c57c710a59a2cb567929081900390910190a350506033805460ff1916600117905550505050565b6001600160a01b03808316600090815260cf60209081526040808320938516835292905220545b92915050565b60d06020526000908152604090205481565b303b1590565b600054610100900460ff168061137d575061137d61135e565b8061138b575060005460ff16155b6113c65760405162461bcd60e51b815260040180806020018281038252602e815260200180611c4f602e913960400191505060405180910390fd5b600054610100900460ff161580156113f1576000805460ff1961ff0019909116610100171660011790555b6113f9611698565b611401611738565b8015611413576000805461ff00191690555b50565b600054610100900460ff168061142f575061142f61135e565b8061143d575060005460ff16155b6114785760405162461bcd60e51b815260040180806020018281038252602e815260200180611c4f602e913960400191505060405180910390fd5b600054610100900460ff161580156114a3576000805460ff1961ff0019909116610100171660011790555b6033805460ff191660011790558015611413576000805461ff001916905550565b33600081815260cf602090815260408083206001600160a01b038616845282528083205493835260d1909152812054909161134691670de0b6b3a76400009161153b916115359061151690439061159b565b6001600160a01b038816600090815260ca602052604090205490611831565b90611831565b9061188a565b600082820183811015610683576040805162461bcd60e51b815260206004820152601b60248201527f536166654d6174683a206164646974696f6e206f766572666c6f770000000000604482015290519081900360640190fd5b600061068383836040518060400160405280601e81526020017f536166654d6174683a207375627472616374696f6e206f766572666c6f7700008152506118cc565b604080516001600160a01b0380861660248301528416604482015260648082018490528251808303909101815260849091019091526020810180516001600160e01b03166323b872dd60e01b179052611637908590611963565b50505050565b3390565b604080516001600160a01b038416602482015260448082018490528251808303909101815260649091019091526020810180516001600160e01b031663a9059cbb60e01b179052611693908490611963565b505050565b600054610100900460ff16806116b157506116b161135e565b806116bf575060005460ff16155b6116fa5760405162461bcd60e51b815260040180806020018281038252602e815260200180611c4f602e913960400191505060405180910390fd5b600054610100900460ff16158015611401576000805460ff1961ff0019909116610100171660011790558015611413576000805461ff001916905550565b600054610100900460ff1680611751575061175161135e565b8061175f575060005460ff16155b61179a5760405162461bcd60e51b815260040180806020018281038252602e815260200180611c4f602e913960400191505060405180910390fd5b600054610100900460ff161580156117c5576000805460ff1961ff0019909116610100171660011790555b60006117cf61163d565b609780546001600160a01b0319166001600160a01b038316908117909155604051919250906000907f8be0079c531659141344cd1fd0a4f28419497f9722a3daafe3b4186f6b6457e0908290a3508015611413576000805461ff001916905550565b60008261184057506000611346565b8282028284828161184d57fe5b04146106835760405162461bcd60e51b8152600401808060200182810382526021815260200180611c0e6021913960400191505060405180910390fd5b600061068383836040518060400160405280601a81526020017f536166654d6174683a206469766973696f6e206279207a65726f000000000000815250611b1b565b6000818484111561195b5760405162461bcd60e51b81526004018080602001828103825283818151815260200191508051906020019080838360005b83811015611920578181015183820152602001611908565b50505050905090810190601f16801561194d5780820380516001836020036101000a031916815260200191505b509250505060405180910390fd5b505050900390565b611975826001600160a01b0316611b80565b6119c6576040805162461bcd60e51b815260206004820152601f60248201527f5361666545524332303a2063616c6c20746f206e6f6e2d636f6e747261637400604482015290519081900360640190fd5b60006060836001600160a01b0316836040518082805190602001908083835b60208310611a045780518252601f1990920191602091820191016119e5565b6001836020036101000a0380198251168184511680821785525050505050509050019150506000604051808303816000865af19150503d8060008114611a66576040519150601f19603f3d011682016040523d82523d6000602084013e611a6b565b606091505b509150915081611ac2576040805162461bcd60e51b815260206004820181905260248201527f5361666545524332303a206c6f772d6c6576656c2063616c6c206661696c6564604482015290519081900360640190fd5b80511561163757808060200190516020811015611ade57600080fd5b50516116375760405162461bcd60e51b815260040180806020018281038252602a815260200180611ccf602a913960400191505060405180910390fd5b60008183611b6a5760405162461bcd60e51b8152602060048201818152835160248401528351909283926044909101919085019080838360008315611920578181015183820152602001611908565b506000838581611b7657fe5b0495945050505050565b6000813f7fc5d2460186f7233c927e7db2dcc703c0e500b653ca82273b7bfad8045d85a470818114801590611bb457508115155b94935050505056fe4f776e61626c653a206e6577206f776e657220697320746865207a65726f20616464726573735374616b696e673a205374616b696e6720706572696f64206861736e277420737461727465642079657421536166654d6174683a206d756c7469706c69636174696f6e206f766572666c6f774f776e61626c653a2063616c6c6572206973206e6f7420746865206f776e6572436f6e747261637420696e7374616e63652068617320616c7265616479206265656e20696e697469616c697a65645374616b696e673a2052657761726473206861766520616c7265616479206265656e206469737472696275746564203a285374616b696e673a20576974686472617720627566666572206e6f74206d6574215361666545524332303a204552433230206f7065726174696f6e20646964206e6f742073756363656564a26469706673582212208344762c4221b3f7200bc6ecaea75507a81a54e01159ac4930700ec0d945e85a64736f6c634300060c0033",
  "immutableReferences": {},
  "source": "// SPDX-License-Identifier: MIT\npragma solidity 0.6.12;\n\nimport \"@openzeppelin/contracts-ethereum-package/contracts/utils/ReentrancyGuard.sol\";\nimport \"@openzeppelin/contracts-ethereum-package/contracts/token/ERC20/SafeERC20.sol\";\nimport \"./IStaking.sol\";\nimport \"./StakingStorage.sol\";\n\n\ncontract Staking is ReentrancyGuardUpgradeSafe, StakingStorage, IStaking {\n    using SafeMath for uint256;\n\n    /** \n     * @dev contract initialization\n     * @param _startTime date and time to have staking contract working\n     * @param _rewardCap reward cap\n     * @param _withdrawBuffer blocks number to lock deposit / withdraw operations\n     * @param _SLICEAddress slice contract token address\n     */\n    function initialize(uint256 _startTime, uint256 _rewardCap, uint256 _withdrawBuffer, address _SLICEAddress) external initializer {\n        OwnableUpgradeSafe.__Ownable_init();\n        __ReentrancyGuard_init_unchained();\n\n        startTime = _startTime;\n        rewardCap = _rewardCap;\n        withdrawBuffer = _withdrawBuffer;\n        SLICE = IERC20(_SLICEAddress);\n\n        emit SLICEAddressUpdated(_SLICEAddress);\n        emit RewardCapUpdated(_rewardCap);\n        emit WithdrawBufferUpdated(_withdrawBuffer);\n    }\n\n    /** \n     * @dev check if a token is whitelisted\n     * @param _token contract token address\n     */\n    modifier isTokenWhitelisted(address _token) {\n        require(isWhitelisted[_token], \"Staking: Token not whitelisted\");\n        _;\n    }\n\n    /** \n     * @dev check if distributed rewards are under a cap \n     */\n    modifier withinCap() {\n        require(rewardsDistributed < rewardCap, \"Staking: Rewards have already been distributed :(\");\n        _;\n    }\n\n    /** \n     * @dev add a stackable contract address, along with its reward per block\n     * @param _tokenAddress contract token address\n     * @param _rewardPerBlock reward amount per block\n     */\n    function addStakableToken(address _tokenAddress, uint256 _rewardPerBlock) external onlyOwner {\n        isWhitelisted[_tokenAddress] = true;\n        rewardPerBlock[_tokenAddress] = _rewardPerBlock;\n        \n        emit TokenAddedToWhitelist(_tokenAddress, _rewardPerBlock);\n    }\n\n    /** \n     * @dev remove a stacked contract address, along with its reward per block\n     * @param _tokenAddress contract token address\n     */\n    function removeStakableToken(address _tokenAddress) external isTokenWhitelisted(_tokenAddress) onlyOwner {\n        delete isWhitelisted[_tokenAddress];\n        delete rewardPerBlock[_tokenAddress];\n        \n        emit TokenRemovedFromWhitelist(_tokenAddress);\n    }\n\n    /** \n     * @dev update slice contract address\n     * @param _tokenAddress contract token address\n     */\n    function updateSLICEAddress(address _tokenAddress) external onlyOwner {\n        SLICE = IERC20(_tokenAddress);\n        \n        emit SLICEAddressUpdated(_tokenAddress);\n    }\n\n    /** \n     * @dev update reward cap\n     * @param _rewardCap reward cap amount\n     */\n    function updateRewardCap(uint256 _rewardCap) external onlyOwner {\n        rewardCap = _rewardCap;\n        \n        emit RewardCapUpdated(_rewardCap);\n    }\n\n    /** \n     * @dev update withdraw buffer\n     * @param _withdrawBuffer withdraw buffer limit\n     */\n    function updateWithdrawBuffer(uint256 _withdrawBuffer) external onlyOwner {\n        withdrawBuffer = _withdrawBuffer;\n        \n        emit WithdrawBufferUpdated(_withdrawBuffer);\n    }\n\n    /** \n     * @dev deposit an allowed token amount into staking contract\n     * @param _tokenAddress contract token address\n     * @param _amount deposit amount\n     */\n    function deposit(address _tokenAddress, uint256 _amount) external isTokenWhitelisted(_tokenAddress) withinCap() nonReentrant {\n        require(now >= startTime, \"Staking: Staking period hasn't started yet!\");\n\n        require(_amount > 0, \"Staking: Amount must be > 0\");\n\n        uint256 allowance = IERC20(_tokenAddress).allowance(msg.sender, address(this));\n        require(allowance >= _amount, \"Staking: Token allowance too low\");\n\n        UserBalances storage userBalances = balances[msg.sender][_tokenAddress];\n\n        uint256 recentReward = calculateRecentReward(_tokenAddress);\n\n        if (recentReward > 0) {\n            if (rewardsDistributed.add(recentReward) <= rewardCap) {\n                userBalances.accruedRewards = (userBalances.accruedRewards).add(recentReward);\n                rewardsDistributed = rewardsDistributed.add(recentReward);\n            } else {\n                userBalances.accruedRewards = (userBalances.accruedRewards).add(rewardCap.sub(rewardsDistributed));\n                rewardsDistributed = rewardCap;\n            }\n        }\n\n        userBalances.stakedAmount = (userBalances.stakedAmount).add(_amount);\n\n        lastActivity[msg.sender] = block.number;\n\n        // update the pool size\n        poolSize[_tokenAddress] = poolSize[_tokenAddress].add(_amount);\n\n        SafeERC20.safeTransferFrom(IERC20(_tokenAddress), msg.sender, address(this), _amount);\n\n        emit Deposit(msg.sender, _tokenAddress, _amount, userBalances.accruedRewards);\n    }\n\n    /** \n     * @dev withdraw amount of allowed token from staking contract, checking if a withdrawBuffer number blocks has passed\n     * @param _tokenAddress contract token address\n     * @param _amount withdraw amount\n     */\n    function withdraw(address _tokenAddress, uint256 _amount) external isTokenWhitelisted(_tokenAddress) nonReentrant {\n        require((block.number).sub(lastActivity[msg.sender]) >= withdrawBuffer, \"Staking: Withdraw buffer not met!\");\n\n        UserBalances storage userBalances = balances[msg.sender][_tokenAddress];\n\n        require(userBalances.stakedAmount >= _amount, \"Staking: balance too low\");\n\n        uint256 recentReward = calculateRecentReward(_tokenAddress);\n        uint256 reward = recentReward.add(userBalances.accruedRewards);\n\n        delete userBalances.accruedRewards;\n\n        if (rewardsDistributed.add(recentReward) <= rewardCap) {\n            rewardsDistributed = rewardsDistributed.add(recentReward);\n        } else {\n            rewardsDistributed = rewardCap;\n        }\n\n        userBalances.stakedAmount = userBalances.stakedAmount.sub(_amount);\n\n        lastActivity[msg.sender] = block.number;\n\n        // update the pool size\n        poolSize[_tokenAddress] = poolSize[_tokenAddress].sub(_amount);\n\n        SafeERC20.safeTransfer(IERC20(_tokenAddress), msg.sender, _amount);\n        SafeERC20.safeTransfer(SLICE, msg.sender, reward);\n\n        emit Withdraw(msg.sender, _tokenAddress, _amount, reward);\n    }\n\n    /** \n     * @dev calculate recent reward\n     * @param _tokenAddress contract token address\n     * @return reward amount\n     */\n    function calculateRecentReward(address _tokenAddress) private view returns (uint256 reward) {\n        reward = ((rewardPerBlock[_tokenAddress].mul((block.number).sub(lastActivity[msg.sender]))).mul(balances[msg.sender][_tokenAddress].stakedAmount)).div(10**18);\n    }\n\n    /** \n     * @dev get total accrued interests for caller\n     * @param _tokenAddress contract token address\n     * @return reward amount\n     */\n    function getTotalReward(address _tokenAddress) public view returns (uint256 reward) {\n        uint256 accruedRewards = balances[msg.sender][_tokenAddress].accruedRewards;\n        reward = accruedRewards.add(calculateRecentReward(_tokenAddress));\n    }\n\n    /** \n     * @dev get the user staked amount in a particular token\n     * @param _user user address\n     * @param _token token contract address\n     * @return the amount of `token` that the `user` has currently staked\n     */\n    function balanceOf(address _user, address _token) public view returns (uint256) {\n        return balances[_user][_token].stakedAmount;\n    }\n\n    /** \n     * @dev get the pool size in a particular token\n     * @param _tokenAddress token contract address\n     * @return total amount of `tokenAddress` that was locked \n     */\n    function getPoolSize(address _tokenAddress) public view returns (uint256) {\n        return poolSize[_tokenAddress];\n    }\n\n}\n",
  "sourcePath": "/Users/ttabbaa/Documents/Tranche-Contracts/staking-protocol/contracts/OldStaking/Staking.sol",
  "compiler": {
    "name": "solc",
    "version": "0.6.12+commit.27d51765.Emscripten.clang"
  },
  "schemaVersion": "3.3.2",
  "updatedAt": "2021-03-18T09:02:11.023Z",
  "devdoc": {
    "kind": "dev",
    "methods": {
      "addStakableToken(address,uint256)": {
        "details": "add a stackable contract address, along with its reward per block",
        "params": {
          "_rewardPerBlock": "reward amount per block",
          "_tokenAddress": "contract token address"
        }
      },
      "balanceOf(address,address)": {
        "details": "get the user staked amount in a particular token",
        "params": {
          "_token": "token contract address",
          "_user": "user address"
        },
        "returns": {
          "_0": "the amount of `token` that the `user` has currently staked"
        }
      },
      "deposit(address,uint256)": {
        "details": "deposit an allowed token amount into staking contract",
        "params": {
          "_amount": "deposit amount",
          "_tokenAddress": "contract token address"
        }
      },
      "getPoolSize(address)": {
        "details": "get the pool size in a particular token",
        "params": {
          "_tokenAddress": "token contract address"
        },
        "returns": {
          "_0": "total amount of `tokenAddress` that was locked "
        }
      },
      "getTotalReward(address)": {
        "details": "get total accrued interests for caller",
        "params": {
          "_tokenAddress": "contract token address"
        },
        "returns": {
          "reward": "amount"
        }
      },
      "initialize(uint256,uint256,uint256,address)": {
        "details": "contract initialization",
        "params": {
          "_SLICEAddress": "slice contract token address",
          "_rewardCap": "reward cap",
          "_startTime": "date and time to have staking contract working",
          "_withdrawBuffer": "blocks number to lock deposit / withdraw operations"
        }
      },
      "owner()": {
        "details": "Returns the address of the current owner."
      },
      "removeStakableToken(address)": {
        "details": "remove a stacked contract address, along with its reward per block",
        "params": {
          "_tokenAddress": "contract token address"
        }
      },
      "renounceOwnership()": {
        "details": "Leaves the contract without owner. It will not be possible to call `onlyOwner` functions anymore. Can only be called by the current owner. NOTE: Renouncing ownership will leave the contract without an owner, thereby removing any functionality that is only available to the owner."
      },
      "transferOwnership(address)": {
        "details": "Transfers ownership of the contract to a new account (`newOwner`). Can only be called by the current owner."
      },
      "updateRewardCap(uint256)": {
        "details": "update reward cap",
        "params": {
          "_rewardCap": "reward cap amount"
        }
      },
      "updateSLICEAddress(address)": {
        "details": "update slice contract address",
        "params": {
          "_tokenAddress": "contract token address"
        }
      },
      "updateWithdrawBuffer(uint256)": {
        "details": "update withdraw buffer",
        "params": {
          "_withdrawBuffer": "withdraw buffer limit"
        }
      },
      "withdraw(address,uint256)": {
        "details": "withdraw amount of allowed token from staking contract, checking if a withdrawBuffer number blocks has passed",
        "params": {
          "_amount": "withdraw amount",
          "_tokenAddress": "contract token address"
        }
      }
    },
    "version": 1
  },
  "userdoc": {
    "kind": "user",
    "methods": {},
    "version": 1
  }
}