{
  "contractName": "StakingMilestonesMock",
  "abi": [
    {
      "inputs": [
        {
          "internalType": "uint256",
          "name": "_epoch1Start",
          "type": "uint256"
        },
        {
          "internalType": "uint256",
          "name": "_epochDuration",
          "type": "uint256"
        }
      ],
      "stateMutability": "nonpayable",
      "type": "constructor"
    },
    {
      "inputs": [],
      "name": "epoch1Start",
      "outputs": [
        {
          "internalType": "uint256",
          "name": "",
          "type": "uint256"
        }
      ],
      "stateMutability": "view",
      "type": "function"
    },
    {
      "inputs": [],
      "name": "epochDuration",
      "outputs": [
        {
          "internalType": "uint256",
          "name": "",
          "type": "uint256"
        }
      ],
      "stateMutability": "view",
      "type": "function"
    },
    {
      "inputs": [
        {
          "internalType": "uint256",
          "name": "timestamp",
          "type": "uint256"
        }
      ],
      "name": "getEpochId",
      "outputs": [
        {
          "internalType": "uint256",
          "name": "",
          "type": "uint256"
        }
      ],
      "stateMutability": "view",
      "type": "function"
    },
    {
      "inputs": [
        {
          "internalType": "address",
          "name": "user",
          "type": "address"
        },
        {
          "internalType": "address",
          "name": "token",
          "type": "address"
        },
        {
          "internalType": "uint128",
          "name": "epoch",
          "type": "uint128"
        },
        {
          "internalType": "uint256",
          "name": "balance",
          "type": "uint256"
        }
      ],
      "name": "setEpochUserBalance",
      "outputs": [],
      "stateMutability": "nonpayable",
      "type": "function"
    },
    {
      "inputs": [
        {
          "internalType": "address",
          "name": "user",
          "type": "address"
        },
        {
          "internalType": "address",
          "name": "token",
          "type": "address"
        },
        {
          "internalType": "uint128",
          "name": "epoch",
          "type": "uint128"
        }
      ],
      "name": "getEpochUserBalance",
      "outputs": [
        {
          "internalType": "uint256",
          "name": "",
          "type": "uint256"
        }
      ],
      "stateMutability": "view",
      "type": "function"
    },
    {
      "inputs": [
        {
          "internalType": "address",
          "name": "token",
          "type": "address"
        },
        {
          "internalType": "uint128",
          "name": "epoch",
          "type": "uint128"
        },
        {
          "internalType": "uint256",
          "name": "size",
          "type": "uint256"
        }
      ],
      "name": "setEpochPoolSize",
      "outputs": [],
      "stateMutability": "nonpayable",
      "type": "function"
    },
    {
      "inputs": [
        {
          "internalType": "address",
          "name": "token",
          "type": "address"
        },
        {
          "internalType": "uint128",
          "name": "epoch",
          "type": "uint128"
        }
      ],
      "name": "getEpochPoolSize",
      "outputs": [
        {
          "internalType": "uint256",
          "name": "",
          "type": "uint256"
        }
      ],
      "stateMutability": "view",
      "type": "function"
    }
  ],
  "bytecode": "0x608060405234801561001057600080fd5b506040516103623803806103628339818101604052604081101561003357600080fd5b50805160209091015160029190915560035561030e806100546000396000f3fe608060405234801561001057600080fd5b506004361061007d5760003560e01c80635303548b1161005b5780635303548b146101185780637591558e146101355780638c028dd014610170578063f4a4341d146101b05761007d565b80632ca32d7e1461008257806331e39186146100c95780634ff0876a14610110575b600080fd5b6100b76004803603604081101561009857600080fd5b5080356001600160a01b031690602001356001600160801b03166101b8565b60408051918252519081900360200190f35b61010e600480360360808110156100df57600080fd5b506001600160a01b0381358116916020810135909116906001600160801b0360408201351690606001356101eb565b005b6100b7610229565b6100b76004803603602081101561012e57600080fd5b503561022f565b61010e6004803603606081101561014b57600080fd5b506001600160a01b03813516906001600160801b036020820135169060400135610267565b6100b76004803603606081101561018657600080fd5b5080356001600160a01b0390811691602081013590911690604001356001600160801b0316610297565b6100b76102d2565b6001600160a01b03821660009081526001602090815260408083206001600160801b038516845290915290205492915050565b6001600160a01b039384166000908152602081815260408083209590961682529384528481206001600160801b039093168152919092529190912055565b60035481565b600060025482101561024357506000610262565b60035460025483038161025257fe5b046001016001600160801b031690505b919050565b6001600160a01b0390921660009081526001602090815260408083206001600160801b0390941683529290522055565b6001600160a01b039283166000908152602081815260408083209490951682529283528381206001600160801b039290921681529152205490565b6002548156fea2646970667358221220451d6fd782cb6d62efff9540cca733256e4ab82f28a033614ae65ef2d9e302e964736f6c634300060c0033",
  "immutableReferences": {},
  "source": "// SPDX-License-Identifier: Apache-2.0\npragma solidity 0.6.12;\n\n\ncontract StakingMilestonesMock {\n\n    mapping (address => mapping (address => mapping (uint128 => uint))) internal epochUserBalance;\n    mapping (address => mapping (uint128 => uint)) internal epochPoolSize;\n\n    uint public epoch1Start;\n    uint public epochDuration;\n\n    constructor(uint _epoch1Start, uint _epochDuration) public {\n        epoch1Start = _epoch1Start;\n        epochDuration = _epochDuration;\n    }\n\n    function getEpochId(uint timestamp) external view returns (uint) {\n        if (timestamp < epoch1Start) {\n            return 0;\n        }\n\n        return uint128((timestamp - epoch1Start) / epochDuration + 1);\n    }\n\n    function setEpochUserBalance(address user, address token, uint128 epoch, uint balance) external {\n        epochUserBalance[user][token][epoch] = balance;\n    }\n\n    function getEpochUserBalance(address user, address token, uint128 epoch) external view returns(uint) {\n        return epochUserBalance[user][token][epoch];\n    }\n\n    function setEpochPoolSize(address token, uint128 epoch, uint size) external {\n        epochPoolSize[token][epoch] = size;\n    }\n\n    function getEpochPoolSize(address token, uint128 epoch) external view returns (uint) {\n        return epochPoolSize[token][epoch];\n    }\n}",
  "sourcePath": "/Users/ttabbaa/Documents/Tranche-Contracts/staking-protocol/contracts/test/StakingMilestonesMock.sol",
  "compiler": {
    "name": "solc",
    "version": "0.6.12+commit.27d51765.Emscripten.clang"
  },
  "schemaVersion": "3.3.2",
  "updatedAt": "2021-03-18T09:02:11.063Z",
  "devdoc": {
    "kind": "dev",
    "methods": {},
    "version": 1
  },
  "userdoc": {
    "kind": "user",
    "methods": {},
    "version": 1
  }
}