{
  "contractName": "StakingWithLockup",
  "abi": [
    {
      "anonymous": false,
      "inputs": [
        {
          "indexed": true,
          "internalType": "address",
          "name": "user",
          "type": "address"
        },
        {
          "indexed": false,
          "internalType": "uint256",
          "name": "amount",
          "type": "uint256"
        },
        {
          "indexed": false,
          "internalType": "uint256",
          "name": "reward",
          "type": "uint256"
        },
        {
          "indexed": false,
          "internalType": "uint256",
          "name": "tokensBurned",
          "type": "uint256"
        },
        {
          "indexed": false,
          "internalType": "uint256",
          "name": "counter",
          "type": "uint256"
        }
      ],
      "name": "Claimed",
      "type": "event"
    },
    {
      "anonymous": false,
      "inputs": [
        {
          "indexed": true,
          "internalType": "address",
          "name": "previousOwner",
          "type": "address"
        },
        {
          "indexed": true,
          "internalType": "address",
          "name": "newOwner",
          "type": "address"
        }
      ],
      "name": "OwnershipTransferred",
      "type": "event"
    },
    {
      "anonymous": false,
      "inputs": [
        {
          "indexed": false,
          "internalType": "uint256[]",
          "name": "caps",
          "type": "uint256[]"
        }
      ],
      "name": "RewardCapsSet",
      "type": "event"
    },
    {
      "anonymous": false,
      "inputs": [
        {
          "indexed": false,
          "internalType": "uint256[]",
          "name": "_durations",
          "type": "uint256[]"
        }
      ],
      "name": "RewardDurationsSet",
      "type": "event"
    },
    {
      "anonymous": false,
      "inputs": [
        {
          "indexed": false,
          "internalType": "uint256[]",
          "name": "rewards",
          "type": "uint256[]"
        }
      ],
      "name": "RewardsSet",
      "type": "event"
    },
    {
      "anonymous": false,
      "inputs": [
        {
          "indexed": true,
          "internalType": "address",
          "name": "user",
          "type": "address"
        },
        {
          "indexed": false,
          "internalType": "uint256",
          "name": "amount",
          "type": "uint256"
        },
        {
          "indexed": false,
          "internalType": "uint256",
          "name": "startTime",
          "type": "uint256"
        },
        {
          "indexed": false,
          "internalType": "uint256",
          "name": "endTime",
          "type": "uint256"
        },
        {
          "indexed": false,
          "internalType": "uint256",
          "name": "counter",
          "type": "uint256"
        },
        {
          "indexed": false,
          "internalType": "uint256",
          "name": "tokensMinted",
          "type": "uint256"
        }
      ],
      "name": "Staked",
      "type": "event"
    },
    {
      "anonymous": false,
      "inputs": [
        {
          "indexed": true,
          "internalType": "address",
          "name": "from",
          "type": "address"
        },
        {
          "indexed": true,
          "internalType": "address",
          "name": "to",
          "type": "address"
        },
        {
          "indexed": false,
          "internalType": "uint256",
          "name": "value",
          "type": "uint256"
        }
      ],
      "name": "Transfer",
      "type": "event"
    },
    {
      "inputs": [],
      "name": "_slice",
      "outputs": [
        {
          "internalType": "contract IERC20",
          "name": "",
          "type": "address"
        }
      ],
      "stateMutability": "view",
      "type": "function",
      "constant": true
    },
    {
      "inputs": [],
      "name": "_stakableToken",
      "outputs": [
        {
          "internalType": "contract IERC20",
          "name": "",
          "type": "address"
        }
      ],
      "stateMutability": "view",
      "type": "function",
      "constant": true
    },
    {
      "inputs": [],
      "name": "_vault",
      "outputs": [
        {
          "internalType": "address",
          "name": "",
          "type": "address"
        }
      ],
      "stateMutability": "view",
      "type": "function",
      "constant": true
    },
    {
      "inputs": [
        {
          "internalType": "address",
          "name": "account",
          "type": "address"
        }
      ],
      "name": "balanceOf",
      "outputs": [
        {
          "internalType": "uint256",
          "name": "",
          "type": "uint256"
        }
      ],
      "stateMutability": "view",
      "type": "function",
      "constant": true
    },
    {
      "inputs": [],
      "name": "decimals",
      "outputs": [
        {
          "internalType": "uint8",
          "name": "",
          "type": "uint8"
        }
      ],
      "stateMutability": "view",
      "type": "function",
      "constant": true
    },
    {
      "inputs": [
        {
          "internalType": "uint8",
          "name": "",
          "type": "uint8"
        }
      ],
      "name": "durations",
      "outputs": [
        {
          "internalType": "uint256",
          "name": "",
          "type": "uint256"
        }
      ],
      "stateMutability": "view",
      "type": "function",
      "constant": true
    },
    {
      "inputs": [],
      "name": "name",
      "outputs": [
        {
          "internalType": "string",
          "name": "",
          "type": "string"
        }
      ],
      "stateMutability": "view",
      "type": "function",
      "constant": true
    },
    {
      "inputs": [],
      "name": "numDurations",
      "outputs": [
        {
          "internalType": "uint8",
          "name": "",
          "type": "uint8"
        }
      ],
      "stateMutability": "view",
      "type": "function",
      "constant": true
    },
    {
      "inputs": [],
      "name": "owner",
      "outputs": [
        {
          "internalType": "address",
          "name": "",
          "type": "address"
        }
      ],
      "stateMutability": "view",
      "type": "function",
      "constant": true
    },
    {
      "inputs": [
        {
          "internalType": "uint8",
          "name": "",
          "type": "uint8"
        }
      ],
      "name": "percentageRewards",
      "outputs": [
        {
          "internalType": "uint256",
          "name": "",
          "type": "uint256"
        }
      ],
      "stateMutability": "view",
      "type": "function",
      "constant": true
    },
    {
      "inputs": [],
      "name": "renounceOwnership",
      "outputs": [],
      "stateMutability": "nonpayable",
      "type": "function"
    },
    {
      "inputs": [
        {
          "internalType": "uint8",
          "name": "",
          "type": "uint8"
        }
      ],
      "name": "rewardCapForDuration",
      "outputs": [
        {
          "internalType": "uint256",
          "name": "",
          "type": "uint256"
        }
      ],
      "stateMutability": "view",
      "type": "function",
      "constant": true
    },
    {
      "inputs": [
        {
          "internalType": "address",
          "name": "",
          "type": "address"
        }
      ],
      "name": "stakeCounter",
      "outputs": [
        {
          "internalType": "uint256",
          "name": "",
          "type": "uint256"
        }
      ],
      "stateMutability": "view",
      "type": "function",
      "constant": true
    },
    {
      "inputs": [
        {
          "internalType": "address",
          "name": "",
          "type": "address"
        },
        {
          "internalType": "uint256",
          "name": "",
          "type": "uint256"
        }
      ],
      "name": "stakingDetails",
      "outputs": [
        {
          "internalType": "uint256",
          "name": "startTime",
          "type": "uint256"
        },
        {
          "internalType": "uint256",
          "name": "amount",
          "type": "uint256"
        },
        {
          "internalType": "uint256",
          "name": "endTime",
          "type": "uint256"
        },
        {
          "internalType": "uint256",
          "name": "reward",
          "type": "uint256"
        },
        {
          "internalType": "uint8",
          "name": "durationIndex",
          "type": "uint8"
        }
      ],
      "stateMutability": "view",
      "type": "function",
      "constant": true
    },
    {
      "inputs": [],
      "name": "symbol",
      "outputs": [
        {
          "internalType": "string",
          "name": "",
          "type": "string"
        }
      ],
      "stateMutability": "view",
      "type": "function",
      "constant": true
    },
    {
      "inputs": [
        {
          "internalType": "uint8",
          "name": "",
          "type": "uint8"
        }
      ],
      "name": "tokensStakedInDuration",
      "outputs": [
        {
          "internalType": "uint256",
          "name": "",
          "type": "uint256"
        }
      ],
      "stateMutability": "view",
      "type": "function",
      "constant": true
    },
    {
      "inputs": [],
      "name": "totalRewardsDistributed",
      "outputs": [
        {
          "internalType": "uint256",
          "name": "",
          "type": "uint256"
        }
      ],
      "stateMutability": "view",
      "type": "function",
      "constant": true
    },
    {
      "inputs": [
        {
          "internalType": "uint8",
          "name": "",
          "type": "uint8"
        }
      ],
      "name": "totalRewardsDistributedForDuration",
      "outputs": [
        {
          "internalType": "uint256",
          "name": "",
          "type": "uint256"
        }
      ],
      "stateMutability": "view",
      "type": "function",
      "constant": true
    },
    {
      "inputs": [],
      "name": "totalSupply",
      "outputs": [
        {
          "internalType": "uint256",
          "name": "",
          "type": "uint256"
        }
      ],
      "stateMutability": "view",
      "type": "function",
      "constant": true
    },
    {
      "inputs": [
        {
          "internalType": "uint8",
          "name": "",
          "type": "uint8"
        }
      ],
      "name": "totalTokensStakedInDuration",
      "outputs": [
        {
          "internalType": "uint256",
          "name": "",
          "type": "uint256"
        }
      ],
      "stateMutability": "view",
      "type": "function",
      "constant": true
    },
    {
      "inputs": [
        {
          "internalType": "address",
          "name": "newOwner",
          "type": "address"
        }
      ],
      "name": "transferOwnership",
      "outputs": [],
      "stateMutability": "nonpayable",
      "type": "function"
    },
    {
      "inputs": [
        {
          "internalType": "address",
          "name": "vault",
          "type": "address"
        },
        {
          "internalType": "address",
          "name": "slice",
          "type": "address"
        },
        {
          "internalType": "address",
          "name": "stakableToken",
          "type": "address"
        },
        {
          "internalType": "uint256[]",
          "name": "rewardsForDuration",
          "type": "uint256[]"
        },
        {
          "internalType": "uint256[]",
          "name": "rewardCapsForDuration",
          "type": "uint256[]"
        },
        {
          "internalType": "uint256[]",
          "name": "rewardDurations",
          "type": "uint256[]"
        },
        {
          "internalType": "string",
          "name": "name",
          "type": "string"
        },
        {
          "internalType": "string",
          "name": "symbol",
          "type": "string"
        }
      ],
      "name": "initialize",
      "outputs": [],
      "stateMutability": "nonpayable",
      "type": "function"
    },
    {
      "inputs": [
        {
          "internalType": "uint256[]",
          "name": "rewardsForDuration",
          "type": "uint256[]"
        },
        {
          "internalType": "uint256[]",
          "name": "rewardCapsForDuration",
          "type": "uint256[]"
        },
        {
          "internalType": "uint256[]",
          "name": "rewardDurations",
          "type": "uint256[]"
        }
      ],
      "name": "setRewardDetails",
      "outputs": [],
      "stateMutability": "nonpayable",
      "type": "function"
    },
    {
      "inputs": [
        {
          "internalType": "uint256",
          "name": "amount",
          "type": "uint256"
        },
        {
          "internalType": "uint8",
          "name": "durationIndex",
          "type": "uint8"
        }
      ],
      "name": "stake",
      "outputs": [],
      "stateMutability": "nonpayable",
      "type": "function"
    },
    {
      "inputs": [
        {
          "internalType": "uint256",
          "name": "counter",
          "type": "uint256"
        }
      ],
      "name": "claim",
      "outputs": [],
      "stateMutability": "nonpayable",
      "type": "function"
    },
    {
      "inputs": [
        {
          "internalType": "uint256[]",
          "name": "counters",
          "type": "uint256[]"
        }
      ],
      "name": "massClaim",
      "outputs": [],
      "stateMutability": "nonpayable",
      "type": "function"
    }
  ],
  "bytecode": "0x608060405234801561001057600080fd5b50612559806100206000396000f3fe608060405234801561001057600080fd5b506004361061018e5760003560e01c8063715018a6116100de578063c431973e11610097578063f273db4411610071578063f273db44146107d6578063f2fde38b146107f6578063f90892211461081c578063fd243da3146108245761018e565b8063c431973e1461056d578063ee172546146107a8578063f170767b146107b05761018e565b8063715018a61461050d5780637dedd18714610515578063813bea6e1461051d5780638da5cb5b1461053d57806395d89b4114610545578063b8f2f3761461054d5761018e565b80632a7efeb51161014b578063379607f511610125578063379607f51461039857806342a2f126146103b55780634db26d2a146104c357806370a08231146104e75761018e565b80632a7efeb5146102ec5780632dfcf9181461035a578063313ce5671461037a5761018e565b806306fdde03146101935780630ae355d3146102105780630c7657bd146102425780630e76b1ba1461026257806310087fb1146102bc57806318160ddd146102e4575b600080fd5b61019b61082c565b6040805160208082528351818301528351919283929083019185019080838360005b838110156101d55781810151838201526020016101bd565b50505050905090810190601f1680156102025780820380516001836020036101000a031916815260200191505b509250505060405180910390f35b6102306004803603602081101561022657600080fd5b503560ff166108c2565b60408051918252519081900360200190f35b6102306004803603602081101561025857600080fd5b503560ff166108d4565b61028e6004803603604081101561027857600080fd5b506001600160a01b0381351690602001356108e6565b60408051958652602086019490945284840192909252606084015260ff166080830152519081900360a00190f35b6102e2600480360360408110156102d257600080fd5b508035906020013560ff16610923565b005b610230610c94565b6102e26004803603602081101561030257600080fd5b810190602081018135600160201b81111561031c57600080fd5b82018360208201111561032e57600080fd5b803590602001918460208302840111600160201b8311171561034f57600080fd5b509092509050610c9a565b6102306004803603602081101561037057600080fd5b503560ff16610ccd565b610382610cdf565b6040805160ff9092168252519081900360200190f35b6102e2600480360360208110156103ae57600080fd5b5035610ce8565b6102e2600480360360608110156103cb57600080fd5b810190602081018135600160201b8111156103e557600080fd5b8201836020820111156103f757600080fd5b803590602001918460208302840111600160201b8311171561041857600080fd5b919390929091602081019035600160201b81111561043557600080fd5b82018360208201111561044757600080fd5b803590602001918460208302840111600160201b8311171561046857600080fd5b919390929091602081019035600160201b81111561048557600080fd5b82018360208201111561049757600080fd5b803590602001918460208302840111600160201b831117156104b857600080fd5b509092509050610cf4565b6104cb610fbe565b604080516001600160a01b039092168252519081900360200190f35b610230600480360360208110156104fd57600080fd5b50356001600160a01b0316610fcd565b6102e2610fe8565b61038261109c565b6102306004803603602081101561053357600080fd5b503560ff166110a5565b6104cb6110b7565b61019b6110c6565b6102306004803603602081101561056357600080fd5b503560ff16611127565b6102e2600480360361010081101561058457600080fd5b6001600160a01b0382358116926020810135821692604082013590921691810190608081016060820135600160201b8111156105bf57600080fd5b8201836020820111156105d157600080fd5b803590602001918460208302840111600160201b831117156105f257600080fd5b919390929091602081019035600160201b81111561060f57600080fd5b82018360208201111561062157600080fd5b803590602001918460208302840111600160201b8311171561064257600080fd5b919390929091602081019035600160201b81111561065f57600080fd5b82018360208201111561067157600080fd5b803590602001918460208302840111600160201b8311171561069257600080fd5b919390929091602081019035600160201b8111156106af57600080fd5b8201836020820111156106c157600080fd5b803590602001918460018302840111600160201b831117156106e257600080fd5b91908080601f0160208091040260200160405190810160405280939291908181526020018383808284376000920191909152509295949360208101935035915050600160201b81111561073457600080fd5b82018360208201111561074657600080fd5b803590602001918460018302840111600160201b8311171561076757600080fd5b91908080601f016020809104026020016040519081016040528093929190818152602001838380828437600092019190915250929550611139945050505050565b610230611490565b610230600480360360208110156107c657600080fd5b50356001600160a01b0316611496565b610230600480360360208110156107ec57600080fd5b503560ff166114a8565b6102e26004803603602081101561080c57600080fd5b50356001600160a01b03166114ba565b6104cb6115c5565b6104cb6115d4565b60998054604080516020601f60026000196101006001881615020190951694909404938401819004810282018101909252828152606093909290918301828280156108b85780601f1061088d576101008083540402835291602001916108b8565b820191906000526020600020905b81548152906001019060200180831161089b57829003601f168201915b5050505050905090565b60cb6020526000908152604090205481565b60ce6020526000908152604090205481565b60d3602090815260009283526040808420909152908252902080546001820154600283015460038401546004909401549293919290919060ff1685565b600082116109625760405162461bcd60e51b81526004018080602001828103825260288152602001806123756028913960400191505060405180910390fd5b60cc5460ff908116908216106109a95760405162461bcd60e51b815260040180806020018281038252603c8152602001806124e8603c913960400191505060405180910390fd5b60ff8116600090815260ce602090815260408083205460cf9092529091205410610a045760405162461bcd60e51b815260040180806020018281038252604c81526020018061241c604c913960600191505060405180910390fd5b60ff8116600090815260cd6020526040812054839190610a3990670de0b6b3a764000090610a339085906115e3565b90611645565b60ff8416600090815260ce602090815260408083205460cf9092529091205491925090610a669083611687565b1115610ae65760ff8316600090815260cf602090815260408083205460ce90925290912054610a94916116e1565b60ff8416600090815260cd6020526040902054909150610ac090610a3383670de0b6b3a76400006115e3565b60ff8416600090815260ce602090815260408083205460cf909252909120559150610b17565b60ff8316600090815260cf6020526040902054610b039082611687565b60ff8416600090815260cf60205260409020555b33600090815260d26020526040902054610b32906001611687565b33600090815260d26020908152604080832084905560d382528083209383529281528282204280825560ff8816845260cb9092529290912054610b759190611687565b6002820155600181018390556003810182905560048101805460ff191660ff8616908117909155600090815260d06020526040902054610bb59084611687565b60ff8516600090815260d0602090815260408083209390935560d190522054610bde9084611687565b60ff8516600090815260d16020526040902055610c0433610bff8585611687565b611723565b60ca54610c1c906001600160a01b0316333086611815565b600281015433600081815260d2602052604090205490917f6381ea17a5324d29cc015352644672ead5185c1c61a0d3a521eda97e35cec97e9186914291610c638489611687565b6040805195865260208601949094528484019290925260608401526080830152519081900360a00190a25050505050565b60985490565b60005b81811015610cc857610cc0838383818110610cb457fe5b90506020020135611875565b600101610c9d565b505050565b60cf6020526000908152604090205481565b609b5460ff1690565b610cf181611875565b50565b610cfc611a53565b6065546001600160a01b03908116911614610d5e576040805162461bcd60e51b815260206004820181905260248201527f4f776e61626c653a2063616c6c6572206973206e6f7420746865206f776e6572604482015290519081900360640190fd5b808314610d9c5760405162461bcd60e51b815260040180806020018281038252603081526020018061239d6030913960400191505060405180910390fd5b848314610dda5760405162461bcd60e51b815260040180806020018281038252603081526020018061239d6030913960400191505060405180910390fd5b60cc805460ff191660ff871617905560005b60cc5460ff9081169082161015610e8c5782828260ff16818110610e0c57fe5b60ff8416600081815260cb602090815260409091209202939093013590555087908790818110610e3857fe5b60ff8416600081815260cd602090815260409091209202939093013590555085908590818110610e6457fe5b60ff8416600090815260ce602090815260409091209102929092013590915550600101610dec565b507fbb8170770eaba278b45a17574de776188aed09cd26608b2f4729ad51c92a762e828260405180806020018281038252848482818152602001925060200280828437600083820152604051601f909101601f19169092018290039550909350505050a17f74c3842b49cda305bc9b70d6e81e61dc30b9c00d87ecf5b9810b9766eead9f55848460405180806020018281038252848482818152602001925060200280828437600083820152604051601f909101601f19169092018290039550909350505050a17f0b49e2be980e18eccbfa04579bc2d85033fc801ff11ac7ea359e54d57028fe23868660405180806020018281038252848482818152602001925060200280828437600083820152604051601f909101601f19169092018290039550909350505050a1505050505050565b60ca546001600160a01b031681565b6001600160a01b031660009081526097602052604090205490565b610ff0611a53565b6065546001600160a01b03908116911614611052576040805162461bcd60e51b815260206004820181905260248201527f4f776e61626c653a2063616c6c6572206973206e6f7420746865206f776e6572604482015290519081900360640190fd5b6065546040516000916001600160a01b0316907f8be0079c531659141344cd1fd0a4f28419497f9722a3daafe3b4186f6b6457e0908390a3606580546001600160a01b0319169055565b60cc5460ff1681565b60d16020526000908152604090205481565b6065546001600160a01b031690565b609a8054604080516020601f60026000196101006001881615020190951694909404938401819004810282018101909252828152606093909290918301828280156108b85780601f1061088d576101008083540402835291602001916108b8565b60d06020526000908152604090205481565b600054610100900460ff16806111525750611152611a57565b80611160575060005460ff16155b61119b5760405162461bcd60e51b815260040180806020018281038252602e8152602001806123ee602e913960400191505060405180910390fd5b600054610100900460ff161580156111c6576000805460ff1961ff0019909116610100171660011790555b6111ce611a5d565b6111d88383611b0e565b8786146112165760405162461bcd60e51b815260040180806020018281038252603081526020018061239d6030913960400191505060405180910390fd5b8386146112545760405162461bcd60e51b815260040180806020018281038252603081526020018061239d6030913960400191505060405180910390fd5b60cc805460ff191660ff8a1617905560005b60cc5460ff90811690821610156113065789898260ff1681811061128657fe5b60ff8416600081815260cd6020908152604090912092029390930135905550889088908181106112b257fe5b60ff8416600081815260ce6020908152604090912092029390930135905550869086908181106112de57fe5b60ff8416600090815260cb602090815260409091209102929092013590915550600101611266565b5060c980546001600160a01b03808e166001600160a01b03199283161790925560ca80548d841690831617905560c88054928f16929091169190911790556040805160208082528082018790527fbb8170770eaba278b45a17574de776188aed09cd26608b2f4729ad51c92a762e928892889290918291908201908590850280828437600083820152604051601f909101601f19169092018290039550909350505050a17f0b49e2be980e18eccbfa04579bc2d85033fc801ff11ac7ea359e54d57028fe23898960405180806020018281038252848482818152602001925060200280828437600083820152604051601f909101601f19169092018290039550909350505050a17f74c3842b49cda305bc9b70d6e81e61dc30b9c00d87ecf5b9810b9766eead9f55878760405180806020018281038252848482818152602001925060200280828437600083820152604051601f909101601f19169092018290039550909350505050a18015611482576000805461ff00191690555b505050505050505050505050565b60d45481565b60d26020526000908152604090205481565b60cd6020526000908152604090205481565b6114c2611a53565b6065546001600160a01b03908116911614611524576040805162461bcd60e51b815260206004820181905260248201527f4f776e61626c653a2063616c6c6572206973206e6f7420746865206f776e6572604482015290519081900360640190fd5b6001600160a01b0381166115695760405162461bcd60e51b81526004018080602001828103825260268152602001806123286026913960400191505060405180910390fd5b6065546040516001600160a01b038084169216907f8be0079c531659141344cd1fd0a4f28419497f9722a3daafe3b4186f6b6457e090600090a3606580546001600160a01b0319166001600160a01b0392909216919091179055565b60c9546001600160a01b031681565b60c8546001600160a01b031681565b6000826115f25750600061163f565b828202828482816115ff57fe5b041461163c5760405162461bcd60e51b81526004018080602001828103825260218152602001806123cd6021913960400191505060405180910390fd5b90505b92915050565b600061163c83836040518060400160405280601a81526020017f536166654d6174683a206469766973696f6e206279207a65726f000000000000815250611bc3565b60008282018381101561163c576040805162461bcd60e51b815260206004820152601b60248201527f536166654d6174683a206164646974696f6e206f766572666c6f770000000000604482015290519081900360640190fd5b600061163c83836040518060400160405280601e81526020017f536166654d6174683a207375627472616374696f6e206f766572666c6f770000815250611c65565b6001600160a01b03821661177e576040805162461bcd60e51b815260206004820152601f60248201527f45524332303a206d696e7420746f20746865207a65726f206164647265737300604482015290519081900360640190fd5b61178a60008383610cc8565b6098546117979082611687565b6098556001600160a01b0382166000908152609760205260409020546117bd9082611687565b6001600160a01b03831660008181526097602090815260408083209490945583518581529351929391927fddf252ad1be2c89b69c2b068fc378daa952ba7f163c4a11628f55a4df523b3ef9281900390910190a35050565b604080516001600160a01b0380861660248301528416604482015260648082018490528251808303909101815260849091019091526020810180516001600160e01b03166323b872dd60e01b17905261186f908590611cbf565b50505050565b33600090815260d3602090815260408083208484529091529020600101546118ce5760405162461bcd60e51b815260040180806020018281038252602781526020018061234e6027913960400191505060405180910390fd5b33600090815260d36020908152604080832084845290915290206002015442101561192a5760405162461bcd60e51b81526004018080602001828103825260358152602001806124896035913960400191505060405180910390fd5b33600090815260d36020908152604080832084845282528083206003810180546001830180546004850180548987559289905560029095018890559287905560ff19811690935560ff90921680865260d1909452919093205490919061199090836116e1565b60ff8216600090815260d1602052604090205560d4546119b09084611687565b60d4556119c6336119c18486611687565b611e77565b60ca546119dd906001600160a01b03163384611f73565b60c95460c8546119fb916001600160a01b0390811691163386611815565b337f7708755c9b641bf197be5047b04002d2e88fa658c173a351067747eb5dfc568a8385611a298282611687565b6040805193845260208401929092528282015260608201889052519081900360800190a250505050565b3390565b303b1590565b600054610100900460ff1680611a765750611a76611a57565b80611a84575060005460ff16155b611abf5760405162461bcd60e51b815260040180806020018281038252602e8152602001806123ee602e913960400191505060405180910390fd5b600054610100900460ff16158015611aea576000805460ff1961ff0019909116610100171660011790555b611af2611fc5565b611afa612065565b8015610cf1576000805461ff001916905550565b600054610100900460ff1680611b275750611b27611a57565b80611b35575060005460ff16155b611b705760405162461bcd60e51b815260040180806020018281038252602e8152602001806123ee602e913960400191505060405180910390fd5b600054610100900460ff16158015611b9b576000805460ff1961ff0019909116610100171660011790555b611ba3611fc5565b611bad838361215e565b8015610cc8576000805461ff0019169055505050565b60008183611c4f5760405162461bcd60e51b81526004018080602001828103825283818151815260200191508051906020019080838360005b83811015611c14578181015183820152602001611bfc565b50505050905090810190601f168015611c415780820380516001836020036101000a031916815260200191505b509250505060405180910390fd5b506000838581611c5b57fe5b0495945050505050565b60008184841115611cb75760405162461bcd60e51b8152602060048201818152835160248401528351909283926044909101919085019080838360008315611c14578181015183820152602001611bfc565b505050900390565b611cd1826001600160a01b0316612236565b611d22576040805162461bcd60e51b815260206004820152601f60248201527f5361666545524332303a2063616c6c20746f206e6f6e2d636f6e747261637400604482015290519081900360640190fd5b60006060836001600160a01b0316836040518082805190602001908083835b60208310611d605780518252601f199092019160209182019101611d41565b6001836020036101000a0380198251168184511680821785525050505050509050019150506000604051808303816000865af19150503d8060008114611dc2576040519150601f19603f3d011682016040523d82523d6000602084013e611dc7565b606091505b509150915081611e1e576040805162461bcd60e51b815260206004820181905260248201527f5361666545524332303a206c6f772d6c6576656c2063616c6c206661696c6564604482015290519081900360640190fd5b80511561186f57808060200190516020811015611e3a57600080fd5b505161186f5760405162461bcd60e51b815260040180806020018281038252602a8152602001806124be602a913960400191505060405180910390fd5b6001600160a01b038216611ebc5760405162461bcd60e51b81526004018080602001828103825260218152602001806124686021913960400191505060405180910390fd5b611ec882600083610cc8565b611f0581604051806060016040528060228152602001612306602291396001600160a01b0385166000908152609760205260409020549190611c65565b6001600160a01b038316600090815260976020526040902055609854611f2b90826116e1565b6098556040805182815290516000916001600160a01b038516917fddf252ad1be2c89b69c2b068fc378daa952ba7f163c4a11628f55a4df523b3ef9181900360200190a35050565b604080516001600160a01b038416602482015260448082018490528251808303909101815260649091019091526020810180516001600160e01b031663a9059cbb60e01b179052610cc8908490611cbf565b600054610100900460ff1680611fde5750611fde611a57565b80611fec575060005460ff16155b6120275760405162461bcd60e51b815260040180806020018281038252602e8152602001806123ee602e913960400191505060405180910390fd5b600054610100900460ff16158015611afa576000805460ff1961ff0019909116610100171660011790558015610cf1576000805461ff001916905550565b600054610100900460ff168061207e575061207e611a57565b8061208c575060005460ff16155b6120c75760405162461bcd60e51b815260040180806020018281038252602e8152602001806123ee602e913960400191505060405180910390fd5b600054610100900460ff161580156120f2576000805460ff1961ff0019909116610100171660011790555b60006120fc611a53565b606580546001600160a01b0319166001600160a01b038316908117909155604051919250906000907f8be0079c531659141344cd1fd0a4f28419497f9722a3daafe3b4186f6b6457e0908290a3508015610cf1576000805461ff001916905550565b600054610100900460ff16806121775750612177611a57565b80612185575060005460ff16155b6121c05760405162461bcd60e51b815260040180806020018281038252602e8152602001806123ee602e913960400191505060405180910390fd5b600054610100900460ff161580156121eb576000805460ff1961ff0019909116610100171660011790555b82516121fe906099906020860190612272565b50815161221290609a906020850190612272565b50609b805460ff191660121790558015610cc8576000805461ff0019169055505050565b6000813f7fc5d2460186f7233c927e7db2dcc703c0e500b653ca82273b7bfad8045d85a47081811480159061226a57508115155b949350505050565b828054600181600116156101000203166002900490600052602060002090601f016020900481019282601f106122b357805160ff19168380011785556122e0565b828001600101855582156122e0579182015b828111156122e05782518255916020019190600101906122c5565b506122ec9291506122f0565b5090565b5b808211156122ec57600081556001016122f156fe45524332303a206275726e20616d6f756e7420657863656564732062616c616e63654f776e61626c653a206e6577206f776e657220697320746865207a65726f20616464726573735374616b696e67576974684c6f636b75703a205374616b6520646f6573206e6f742065786973745374616b696e67576974684c6f636b75703a2043616e6e6f74207374616b65203020746f6b656e735374616b696e67576974684c6f636b75703a204172726179206c656e677468732073686f756c6420626520657175616c536166654d6174683a206d756c7469706c69636174696f6e206f766572666c6f77436f6e747261637420696e7374616e63652068617320616c7265616479206265656e20696e697469616c697a65645374616b696e67576974684c6f636b75703a205265776172647320616c6c6f636174656420666f722074686973206475726174696f6e2068617665206265656e20646973747269627574656445524332303a206275726e2066726f6d20746865207a65726f20616464726573735374616b696e67576974684c6f636b75703a2043616e6e6f7420636c61696d20726577617264206265666f726520656e6454696d655361666545524332303a204552433230206f7065726174696f6e20646964206e6f7420737563636565645374616b696e67576974684c6f636b75703a20506c6561736520656e7465722076616c6964207374616b696e67206475726174696f6e20696e646578a26469706673582212200ef056986bf4d6b7f37ef745057f0d640c3304ed77924148f794389a3b941aa464736f6c634300060c0033",
  "immutableReferences": {},
  "source": "// SPDX-License-Identifier: Apache-2.0\npragma solidity 0.6.12;\n\nimport \"@openzeppelin/contracts-ethereum-package/contracts/math/SafeMath.sol\";\nimport \"./ERC20NonTransferrable.sol\";\nimport \"@openzeppelin/contracts-ethereum-package/contracts/access/Ownable.sol\";\nimport \"@openzeppelin/contracts-ethereum-package/contracts/token/ERC20/SafeERC20.sol\";\n\n\ncontract StakingWithLockup is OwnableUpgradeSafe, ERC20NonTransferrableUpgradeSafe {\n\n    // lib\n    using SafeMath for uint;\n\n    // addreses\n    // contracts\n    address public _vault;\n    IERC20 public _slice;\n    IERC20 public _stakableToken;\n\n    // Different durations in which a user will receive rewards\n    mapping (uint8 => uint256) public durations;\n\n    uint8 public numDurations;\n\n    mapping (uint8 => uint256) public percentageRewards; // Percentage yield corresponding to all reward durations. 1e16 = 1%, 1e18 = 100%\n    mapping (uint8 => uint256) public rewardCapForDuration; // Total reward we want to distribute corresponding to each duration\n    mapping (uint8 => uint256) public totalRewardsDistributedForDuration; // Total reward distributed corresponding to each duration\n    mapping (uint8 => uint256) public totalTokensStakedInDuration; // Total tokens staked corresponding to each duration\n    mapping (uint8 => uint256) public tokensStakedInDuration; // Total tokens staked corresponding to each duration at the moment\n\n    struct StakingDetails {\n        uint256 startTime;\n        uint256 amount;\n        uint256 endTime;\n        uint256 reward;\n        uint8 durationIndex;\n    }\n\n    mapping (address => uint256) public stakeCounter;\n    mapping (address => mapping (uint256 => StakingDetails)) public stakingDetails;\n\n    // Total SLICE distributed as rewards\n    uint256 public totalRewardsDistributed;\n\n    // events\n    event Staked(address indexed user, uint256 amount, uint256 startTime, uint256 endTime, uint256 counter, uint256 tokensMinted);\n    event Claimed(address indexed user, uint256 amount, uint256 reward, uint256 tokensBurned, uint256 counter);\n    event RewardsSet(uint256[] rewards);\n    event RewardCapsSet(uint256[] caps);\n    event RewardDurationsSet(uint256[] _durations);\n\n    // constructor\n    function initialize(\n        address vault,\n        address slice,\n        address stakableToken,\n        uint256[] calldata rewardsForDuration,\n        uint256[] calldata rewardCapsForDuration,\n        uint256[] calldata rewardDurations,\n        string memory name,\n        string memory symbol\n    ) external initializer {\n\n        OwnableUpgradeSafe.__Ownable_init();\n        ERC20NonTransferrableUpgradeSafe.__ERC20_init(name, symbol);\n        \n        require(rewardsForDuration.length == rewardCapsForDuration.length, \"StakingWithLockup: Array lengths should be equal\");\n        require(rewardDurations.length == rewardCapsForDuration.length, \"StakingWithLockup: Array lengths should be equal\");\n\n        numDurations = uint8(rewardsForDuration.length);\n\n        for (uint8 i = 0; i < numDurations; i++) {\n            percentageRewards[i] = rewardsForDuration[i];\n            rewardCapForDuration[i] = rewardCapsForDuration[i];\n            durations[i] = rewardDurations[i];\n        }\n\n        _slice = IERC20(slice);\n        _stakableToken = IERC20(stakableToken);\n        _vault = vault;\n\n        emit RewardDurationsSet(rewardDurations);\n        emit RewardsSet(rewardsForDuration);\n        emit RewardCapsSet(rewardCapsForDuration);\n\n    }\n\n    function setRewardDetails\n        (\n            uint256[] calldata rewardsForDuration,\n            uint256[] calldata rewardCapsForDuration,\n            uint256[] calldata rewardDurations\n        )\n            external\n            onlyOwner\n        {\n\n        require(rewardDurations.length == rewardCapsForDuration.length, \"StakingWithLockup: Array lengths should be equal\");\n        require(rewardsForDuration.length == rewardCapsForDuration.length, \"StakingWithLockup: Array lengths should be equal\");\n\n        numDurations = uint8(rewardsForDuration.length);\n\n        for (uint8 i = 0; i < numDurations; i++) {\n            durations[i] = rewardDurations[i];\n            percentageRewards[i] = rewardsForDuration[i];\n            rewardCapForDuration[i] = rewardCapsForDuration[i];\n        }\n\n        emit RewardDurationsSet(rewardDurations);\n        emit RewardCapsSet(rewardCapsForDuration);\n        emit RewardsSet(rewardsForDuration);\n\n    }\n\n    function stake(uint256 amount, uint8 durationIndex) external {\n\n        require(amount > 0, \"StakingWithLockup: Cannot stake 0 tokens\");\n        require(durationIndex < numDurations, \"StakingWithLockup: Please enter valid staking duration index\");\n        require(totalRewardsDistributedForDuration[durationIndex] < rewardCapForDuration[durationIndex],\n                \"StakingWithLockup: Rewards allocated for this duration have been distributed\");\n\n        uint256 stakeAmount = amount;\n        uint256 reward = stakeAmount.mul(percentageRewards[durationIndex]).div(1e18); // 1e18 = 100%\n\n        if (totalRewardsDistributedForDuration[durationIndex].add(reward) > rewardCapForDuration[durationIndex]) {\n            \n            reward = rewardCapForDuration[durationIndex].sub(totalRewardsDistributedForDuration[durationIndex]);\n            \n            stakeAmount = reward.mul(1e18).div(percentageRewards[durationIndex]);\n\n            totalRewardsDistributedForDuration[durationIndex] = rewardCapForDuration[durationIndex];\n        \n        } else {\n\n            totalRewardsDistributedForDuration[durationIndex] = totalRewardsDistributedForDuration[durationIndex].add(reward);\n        \n        }\n\n        stakeCounter[msg.sender] = stakeCounter[msg.sender].add(1);\n\n        StakingDetails storage details = stakingDetails[msg.sender][stakeCounter[msg.sender]];\n\n        details.startTime = block.timestamp;\n        details.endTime = block.timestamp.add(durations[durationIndex]);\n        details.amount = stakeAmount;\n        details.reward = reward;\n        details.durationIndex = durationIndex;\n\n        totalTokensStakedInDuration[durationIndex] = totalTokensStakedInDuration[durationIndex].add(stakeAmount);\n        tokensStakedInDuration[durationIndex] = tokensStakedInDuration[durationIndex].add(stakeAmount);\n\n        _mint(msg.sender, stakeAmount.add(reward));\n\n        SafeERC20.safeTransferFrom(_stakableToken, msg.sender, address(this), stakeAmount);\n\n        emit Staked(msg.sender, stakeAmount, block.timestamp, details.endTime, stakeCounter[msg.sender], stakeAmount.add(reward));\n\n    }\n\n    function claim(uint256 counter) external {\n        _claim(counter);\n    }\n\n    function massClaim(uint256[] calldata counters) external {\n        for (uint256 i = 0; i < counters.length; i++) {\n            _claim(counters[i]);\n        }\n    }\n\n    function _claim(uint256 counter) internal {\n        require(stakingDetails[msg.sender][counter].amount > 0, \"StakingWithLockup: Stake does not exist\");\n        require(block.timestamp >= stakingDetails[msg.sender][counter].endTime, \"StakingWithLockup: Cannot claim reward before endTime\");\n\n        uint256 reward = stakingDetails[msg.sender][counter].reward;\n        uint256 amount = stakingDetails[msg.sender][counter].amount;\n        uint8 durationIndex = stakingDetails[msg.sender][counter].durationIndex;\n\n        delete stakingDetails[msg.sender][counter];\n\n        tokensStakedInDuration[durationIndex] = tokensStakedInDuration[durationIndex].sub(amount);\n        totalRewardsDistributed = totalRewardsDistributed.add(reward);\n\n        _burn(msg.sender, amount.add(reward));\n\n        SafeERC20.safeTransfer(_stakableToken, msg.sender, amount);\n        SafeERC20.safeTransferFrom(_slice, _vault, msg.sender, reward);\n        \n        emit Claimed(msg.sender, amount, reward, amount.add(reward), counter);\n    }\n\n}\n",
  "sourcePath": "/Users/ttabbaa/Documents/Tranche-Contracts/staking-protocol/contracts/StakingMilestones/StakingWithLockup.sol",
  "compiler": {
    "name": "solc",
    "version": "0.6.12+commit.27d51765.Emscripten.clang"
  },
  "schemaVersion": "3.3.2",
  "updatedAt": "2021-07-01T07:30:53.658Z",
  "networkType": "ethereum",
  "devdoc": {
    "kind": "dev",
    "methods": {
      "balanceOf(address)": {
        "details": "See {IERC20-balanceOf}."
      },
      "decimals()": {
        "details": "Returns the number of decimals used to get its user representation. For example, if `decimals` equals `2`, a balance of `505` tokens should be displayed to a user as `5,05` (`505 / 10 ** 2`). Tokens usually opt for a value of 18, imitating the relationship between Ether and Wei. This is the value {ERC20} uses, unless {_setupDecimals} is called. NOTE: This information is only used for _display_ purposes: it in no way affects any of the arithmetic of the contract, including {IERC20-balanceOf} and {IERC20-transfer}."
      },
      "name()": {
        "details": "Returns the name of the token."
      },
      "owner()": {
        "details": "Returns the address of the current owner."
      },
      "renounceOwnership()": {
        "details": "Leaves the contract without owner. It will not be possible to call `onlyOwner` functions anymore. Can only be called by the current owner. NOTE: Renouncing ownership will leave the contract without an owner, thereby removing any functionality that is only available to the owner."
      },
      "symbol()": {
        "details": "Returns the symbol of the token, usually a shorter version of the name."
      },
      "totalSupply()": {
        "details": "See {IERC20-totalSupply}."
      },
      "transferOwnership(address)": {
        "details": "Transfers ownership of the contract to a new account (`newOwner`). Can only be called by the current owner."
      }
    },
    "version": 1
  },
  "userdoc": {
    "kind": "user",
    "methods": {},
    "version": 1
  }
}