{
  "contractName": "StakingMilestones",
  "abi": [
    {
      "anonymous": false,
      "inputs": [
        {
          "indexed": true,
          "internalType": "address",
          "name": "user",
          "type": "address"
        },
        {
          "indexed": true,
          "internalType": "address",
          "name": "tokenAddress",
          "type": "address"
        },
        {
          "indexed": false,
          "internalType": "uint256",
          "name": "amount",
          "type": "uint256"
        }
      ],
      "name": "Deposit",
      "type": "event"
    },
    {
      "anonymous": false,
      "inputs": [
        {
          "indexed": true,
          "internalType": "address",
          "name": "user",
          "type": "address"
        },
        {
          "indexed": true,
          "internalType": "address",
          "name": "tokenAddress",
          "type": "address"
        },
        {
          "indexed": false,
          "internalType": "uint256",
          "name": "amount",
          "type": "uint256"
        }
      ],
      "name": "EmergencyWithdraw",
      "type": "event"
    },
    {
      "anonymous": false,
      "inputs": [
        {
          "indexed": true,
          "internalType": "address",
          "name": "caller",
          "type": "address"
        },
        {
          "indexed": true,
          "internalType": "uint128",
          "name": "epochId",
          "type": "uint128"
        },
        {
          "indexed": false,
          "internalType": "address[]",
          "name": "tokens",
          "type": "address[]"
        }
      ],
      "name": "ManualEpochInit",
      "type": "event"
    },
    {
      "anonymous": false,
      "inputs": [
        {
          "indexed": true,
          "internalType": "address",
          "name": "previousOwner",
          "type": "address"
        },
        {
          "indexed": true,
          "internalType": "address",
          "name": "newOwner",
          "type": "address"
        }
      ],
      "name": "OwnershipTransferred",
      "type": "event"
    },
    {
      "anonymous": false,
      "inputs": [
        {
          "indexed": true,
          "internalType": "address",
          "name": "user",
          "type": "address"
        },
        {
          "indexed": true,
          "internalType": "address",
          "name": "tokenAddress",
          "type": "address"
        },
        {
          "indexed": false,
          "internalType": "uint256",
          "name": "amount",
          "type": "uint256"
        }
      ],
      "name": "Withdraw",
      "type": "event"
    },
    {
      "inputs": [],
      "name": "epoch1Start",
      "outputs": [
        {
          "internalType": "uint256",
          "name": "",
          "type": "uint256"
        }
      ],
      "stateMutability": "view",
      "type": "function",
      "constant": true
    },
    {
      "inputs": [],
      "name": "epochDuration",
      "outputs": [
        {
          "internalType": "uint256",
          "name": "",
          "type": "uint256"
        }
      ],
      "stateMutability": "view",
      "type": "function",
      "constant": true
    },
    {
      "inputs": [],
      "name": "owner",
      "outputs": [
        {
          "internalType": "address",
          "name": "",
          "type": "address"
        }
      ],
      "stateMutability": "view",
      "type": "function",
      "constant": true
    },
    {
      "inputs": [],
      "name": "renounceOwnership",
      "outputs": [],
      "stateMutability": "nonpayable",
      "type": "function"
    },
    {
      "inputs": [
        {
          "internalType": "address",
          "name": "newOwner",
          "type": "address"
        }
      ],
      "name": "transferOwnership",
      "outputs": [],
      "stateMutability": "nonpayable",
      "type": "function"
    },
    {
      "inputs": [
        {
          "internalType": "uint256",
          "name": "_epoch1Start",
          "type": "uint256"
        },
        {
          "internalType": "uint256",
          "name": "_epochDuration",
          "type": "uint256"
        }
      ],
      "name": "initialize",
      "outputs": [],
      "stateMutability": "nonpayable",
      "type": "function"
    },
    {
      "inputs": [
        {
          "internalType": "address",
          "name": "tokenAddress",
          "type": "address"
        },
        {
          "internalType": "uint256",
          "name": "amount",
          "type": "uint256"
        }
      ],
      "name": "deposit",
      "outputs": [],
      "stateMutability": "nonpayable",
      "type": "function"
    },
    {
      "inputs": [
        {
          "internalType": "address",
          "name": "tokenAddress",
          "type": "address"
        },
        {
          "internalType": "uint256",
          "name": "amount",
          "type": "uint256"
        }
      ],
      "name": "withdraw",
      "outputs": [],
      "stateMutability": "nonpayable",
      "type": "function"
    },
    {
      "inputs": [
        {
          "internalType": "address[]",
          "name": "tokens",
          "type": "address[]"
        },
        {
          "internalType": "uint128",
          "name": "epochId",
          "type": "uint128"
        }
      ],
      "name": "manualEpochInit",
      "outputs": [],
      "stateMutability": "nonpayable",
      "type": "function"
    },
    {
      "inputs": [
        {
          "internalType": "address",
          "name": "tokenAddress",
          "type": "address"
        }
      ],
      "name": "emergencyWithdraw",
      "outputs": [],
      "stateMutability": "nonpayable",
      "type": "function"
    },
    {
      "inputs": [
        {
          "internalType": "address",
          "name": "user",
          "type": "address"
        },
        {
          "internalType": "address",
          "name": "token",
          "type": "address"
        },
        {
          "internalType": "uint128",
          "name": "epochId",
          "type": "uint128"
        }
      ],
      "name": "getEpochUserBalance",
      "outputs": [
        {
          "internalType": "uint256",
          "name": "",
          "type": "uint256"
        }
      ],
      "stateMutability": "view",
      "type": "function",
      "constant": true
    },
    {
      "inputs": [
        {
          "internalType": "address",
          "name": "user",
          "type": "address"
        },
        {
          "internalType": "address",
          "name": "token",
          "type": "address"
        }
      ],
      "name": "balanceOf",
      "outputs": [
        {
          "internalType": "uint256",
          "name": "",
          "type": "uint256"
        }
      ],
      "stateMutability": "view",
      "type": "function",
      "constant": true
    },
    {
      "inputs": [],
      "name": "getCurrentEpoch",
      "outputs": [
        {
          "internalType": "uint128",
          "name": "",
          "type": "uint128"
        }
      ],
      "stateMutability": "view",
      "type": "function",
      "constant": true
    },
    {
      "inputs": [
        {
          "internalType": "address",
          "name": "tokenAddress",
          "type": "address"
        },
        {
          "internalType": "uint128",
          "name": "epochId",
          "type": "uint128"
        }
      ],
      "name": "getEpochPoolSize",
      "outputs": [
        {
          "internalType": "uint256",
          "name": "",
          "type": "uint256"
        }
      ],
      "stateMutability": "view",
      "type": "function",
      "constant": true
    },
    {
      "inputs": [],
      "name": "currentEpochMultiplier",
      "outputs": [
        {
          "internalType": "uint128",
          "name": "",
          "type": "uint128"
        }
      ],
      "stateMutability": "view",
      "type": "function",
      "constant": true
    },
    {
      "inputs": [
        {
          "internalType": "uint256",
          "name": "prevBalance",
          "type": "uint256"
        },
        {
          "internalType": "uint128",
          "name": "prevMultiplier",
          "type": "uint128"
        },
        {
          "internalType": "uint256",
          "name": "amount",
          "type": "uint256"
        },
        {
          "internalType": "uint128",
          "name": "currentMultiplier",
          "type": "uint128"
        }
      ],
      "name": "computeNewMultiplier",
      "outputs": [
        {
          "internalType": "uint128",
          "name": "",
          "type": "uint128"
        }
      ],
      "stateMutability": "pure",
      "type": "function",
      "constant": true
    },
    {
      "inputs": [
        {
          "internalType": "address",
          "name": "token",
          "type": "address"
        },
        {
          "internalType": "uint128",
          "name": "epochId",
          "type": "uint128"
        }
      ],
      "name": "epochIsInitialized",
      "outputs": [
        {
          "internalType": "bool",
          "name": "",
          "type": "bool"
        }
      ],
      "stateMutability": "view",
      "type": "function",
      "constant": true
    }
  ],
  "bytecode": "0x608060405234801561001057600080fd5b50612c81806100206000396000f3fe608060405234801561001057600080fd5b506004361061010b5760003560e01c8063aa579154116100a2578063ea2c38ae11610071578063ea2c38ae146102f3578063f2fde38b146103a1578063f3fef3a3146103c7578063f4a4341d146103f3578063f7888aec146103fb5761010b565b8063aa57915414610277578063b97dd9e2146102c0578063ce58a2a8146102c8578063e4a30116146102d05761010b565b80636ff1c9bc116100de5780636ff1c9bc146101e5578063715018a61461020b5780638c028dd0146102135780638da5cb5b146102535761010b565b80632ca32d7e1461011057806347e7ef24146101575780634be41dba146101855780634ff0876a146101dd575b600080fd5b6101456004803603604081101561012657600080fd5b5080356001600160a01b031690602001356001600160801b0316610429565b60408051918252519081900360200190f35b6101836004803603604081101561016d57600080fd5b506001600160a01b038135169060200135610503565b005b6101c16004803603608081101561019b57600080fd5b508035906001600160801b036020820135811691604081013591606090910135166110f4565b604080516001600160801b039092168252519081900360200190f35b610145611178565b610183600480360360208110156101fb57600080fd5b50356001600160a01b031661117e565b61018361134b565b6101456004803603606081101561022957600080fd5b5080356001600160a01b0390811691602081013590911690604001356001600160801b03166113ff565b61025b6115b1565b604080516001600160a01b039092168252519081900360200190f35b6102ac6004803603604081101561028d57600080fd5b5080356001600160a01b031690602001356001600160801b03166115c1565b604080519115158252519081900360200190f35b6101c16115fa565b6101c1611633565b610183600480360360408110156102e657600080fd5b50803590602001356116a2565b6101836004803603604081101561030957600080fd5b81019060208101813564010000000081111561032457600080fd5b82018360208201111561033657600080fd5b8035906020019184602083028401116401000000008311171561035857600080fd5b919080806020026020016040519081016040528093929190818152602001838360200280828437600092019190915250929550505090356001600160801b031691506117609050565b610183600480360360208110156103b757600080fd5b50356001600160a01b0316611a22565b610183600480360360408110156103dd57600080fd5b506001600160a01b038135169060200135611b2d565b6101456122dc565b6101456004803603604081101561041157600080fd5b506001600160a01b03813581169160200135166122e2565b600061043583836115c1565b1561046d57506001600160a01b038216600090815260cc602090815260408083206001600160801b03851684529091529020546104fd565b6104788360006115c1565b610484575060006104fd565b604080516370a0823160e01b8152306004820152905184916001600160a01b038316916370a0823191602480820192602092909190829003018186803b1580156104cd57600080fd5b505afa1580156104e1573d6000803e3d6000fd5b505050506040513d60208110156104f757600080fd5b50519150505b92915050565b60335460ff1661055a576040805162461bcd60e51b815260206004820152601f60248201527f5265656e7472616e637947756172643a207265656e7472616e742063616c6c00604482015290519081900360640190fd5b6033805460ff19169055806105b6576040805162461bcd60e51b815260206004820152601b60248201527f5374616b696e673a20416d6f756e74206d757374206265203e20300000000000604482015290519081900360640190fd5b60408051636eb1769f60e11b8152336004820152306024820152905183916000916001600160a01b0384169163dd62ed3e916044808301926020929190829003018186803b15801561060757600080fd5b505afa15801561061b573d6000803e3d6000fd5b505050506040513d602081101561063157600080fd5b505190508281101561068a576040805162461bcd60e51b815260206004820181905260248201527f5374616b696e673a20546f6b656e20616c6c6f77616e636520746f6f206c6f77604482015290519081900360640190fd5b33600090815260cb602090815260408083206001600160a01b03881684529091529020546106b8908461230d565b33600081815260cb602090815260408083206001600160a01b038a1684529091529020919091556106ec9083903086612367565b60006106f66115fa565b90506000610702611633565b905061070e86836115c1565b61076e5760408051600180825281830190925260609160208083019080368337019050509050868160008151811061074257fe5b60200260200101906001600160a01b031690816001600160a01b03168152505061076c8184611760565b505b6001600160a01b038616600090815260cc602052604081208161079b6001600160801b038616600161230d565b81526020019081526020016000209050846001600160a01b03166370a08231306040518263ffffffff1660e01b815260040180826001600160a01b0316815260200191505060206040518083038186803b1580156107f857600080fd5b505afa15801561080c573d6000803e3d6000fd5b505050506040513d602081101561082257600080fd5b505181556001808201805460ff1916909117905533600081815260cd602090815260408083206001600160a01b038c168452909152812091610865908a876113ff565b82549091506109f057816040518060800160405280876001600160801b03168152602001866001600160801b03168152602001600081526020018a815250908060018154018082558091505060019003906000526020600020906003020160009091909190915060008201518160000160006101000a8154816001600160801b0302191690836001600160801b0316021790555060208201518160000160106101000a8154816001600160801b0302191690836001600160801b03160217905550604082015181600101556060820151816002015550508160405180608001604052806109656001896001600160801b031661230d90919063ffffffff16565b6001600160801b039081168252670de0b6b3a764000060208084019190915260408084018e9052600060609485018190528654600181810189559782529083902086516003909202018054938701518516600160801b029185166001600160801b03199094169390931790931692909217815590830151938101939093550151600290910155611026565b8154600090610a009060016123c7565b9050856001600160801b0316838281548110610a1857fe5b60009182526020909120600390910201546001600160801b03161015610c89576000610ab1610aa1858481548110610a4c57fe5b600091825260209182902060408051608081018252600390930290910180546001600160801b038082168552600160801b90910416938301939093526001830154908201526002909101546060820152612409565b670de0b6b3a76400008c896110f4565b9050836040518060800160405280896001600160801b03168152602001836001600160801b03168152602001610aec878681548110610a4c57fe5b815260209081018d905282546001818101855560009485529382902083516003909202018054928401516001600160801b03908116600160801b029281166001600160801b03199094169390931783169190911781556040808401518286015560609093015160029091015581516080810190925286928291610b7291908c169061230d565b6001600160801b03168152602001670de0b6b3a76400006001600160801b0316815260200160cb6000336001600160a01b03166001600160a01b0316815260200190815260200160002060008f6001600160a01b03166001600160a01b031681526020019081526020016000205481526020016000815250908060018154018082558091505060019003906000526020600020906003020160009091909190915060008201518160000160006101000a8154816001600160801b0302191690836001600160801b0316021790555060208201518160000160106101000a8154816001600160801b0302191690836001600160801b031602179055506040820151816001015560608201518160020155505050611024565b856001600160801b0316838281548110610c9f57fe5b60009182526020909120600390910201546001600160801b03161415610ed657610d05610cd1848381548110610a4c57fe5b848381548110610cdd57fe5b6000918252602090912060039091020154600160801b90046001600160801b03168b886110f4565b838281548110610d1157fe5b906000526020600020906003020160000160106101000a8154816001600160801b0302191690836001600160801b03160217905550610d7689848381548110610d5657fe5b90600052602060002090600302016002015461230d90919063ffffffff16565b838281548110610d8257fe5b906000526020600020906003020160020181905550826040518060800160405280610dc060018a6001600160801b031661230d90919063ffffffff16565b6001600160801b03168152602001670de0b6b3a76400006001600160801b0316815260200160cb6000336001600160a01b03166001600160a01b0316815260200190815260200160002060008e6001600160a01b03166001600160a01b031681526020019081526020016000205481526020016000815250908060018154018082558091505060019003906000526020600020906003020160009091909190915060008201518160000160006101000a8154816001600160801b0302191690836001600160801b0316021790555060208201518160000160106101000a8154816001600160801b0302191690836001600160801b0316021790555060408201518160010155606082015181600201555050611024565b60018110158015610f1e57506001600160801b03861683610ef88360016123c7565b81548110610f0257fe5b60009182526020909120600390910201546001600160801b0316145b15610fdc57610f55610f3f84610f358460016123c7565b81548110610a4c57fe5b84610f4b8460016123c7565b81548110610cdd57fe5b83610f618360016123c7565b81548110610f6b57fe5b6000918252602090912060039091020180546001600160801b03928316600160801b029216919091179055610fb08984610fa68460016123c7565b81548110610d5657fe5b83610fbc8360016123c7565b81548110610fc657fe5b9060005260206000209060030201600201819055505b33600090815260cb602090815260408083206001600160a01b038e168452909152902054835484908390811061100e57fe5b9060005260206000209060030201600101819055505b505b6000611033338b886113ff565b905061107561104282846123c7565b6001600160a01b038c16600090815260cc602090815260408083206001600160801b038c1684529091529020549061230d565b6001600160a01b038b16600081815260cc602090815260408083206001600160801b038c1684528252918290209390935580518c81529051919233927f5548c837ab068cf56a2c2479df0882a4922fd203edb7517321831d95078c5f629281900390910190a350506033805460ff191660011790555050505050505050565b60008061111c670de0b6b3a7640000611116886001600160801b038916612426565b9061247f565b9050600061113f670de0b6b3a7640000611116876001600160801b038816612426565b9050600061116c611150898861230d565b611116670de0b6b3a7640000611166878761230d565b90612426565b98975050505050505050565b60ca5481565b60335460ff166111d5576040805162461bcd60e51b815260206004820152601f60248201527f5265656e7472616e637947756172643a207265656e7472616e742063616c6c00604482015290519081900360640190fd5b6033805460ff191690556001600160a01b038116600090815260ce6020526040902054600a9061121f906001600160801b03166112106115fa565b6001600160801b0316906123c7565b101561125c5760405162461bcd60e51b815260040180806020018281038252602c815260200180612b5e602c913960400191505060405180910390fd5b33600090815260cb602090815260408083206001600160a01b0385168452909152902054806112c7576040805162461bcd60e51b81526020600482015260126024820152710416d6f756e74206d757374206265203e20360741b604482015290519081900360640190fd5b33600081815260cb602090815260408083206001600160a01b038716845290915281205582906112f9908290846124c1565b6040805183815290516001600160a01b0385169133917ff24ef89f38eadc1bde50701ad6e4d6d11a2dc24f7cf834a486991f38833285049181900360200190a350506033805460ff1916600117905550565b611353612513565b6097546001600160a01b039081169116146113b5576040805162461bcd60e51b815260206004820181905260248201527f4f776e61626c653a2063616c6c6572206973206e6f7420746865206f776e6572604482015290519081900360640190fd5b6097546040516000916001600160a01b0316907f8be0079c531659141344cd1fd0a4f28419497f9722a3daafe3b4186f6b6457e0908390a3609780546001600160a01b0319169055565b6001600160a01b03808416600090815260cd6020908152604080832093861683529290529081208054158061145d57508060008154811061143c57fe5b60009182526020909120600390910201546001600160801b03908116908416105b1561146c5760009150506115aa565b8054600090819061147e9060016123c7565b905082818154811061148c57fe5b60009182526020909120600390910201546001600160801b039081169086161061151e576115148382815481106114bf57fe5b600091825260209182902060408051608081018252600390930290910180546001600160801b038082168552600160801b90910416938301939093526001830154908201526002909101546060820152612517565b93505050506115aa565b818111156115955760006115426002611116600161153c868861230d565b9061230d565b9050856001600160801b031684828154811061155a57fe5b60009182526020909120600390910201546001600160801b0316116115815780925061158f565b61158c8160016123c7565b91505b5061151e565b6115a48383815481106114bf57fe5b93505050505b9392505050565b6097546001600160a01b03165b90565b6001600160a01b038216600090815260cc602090815260408083206001600160801b038516845290915290206001015460ff1692915050565b600060c95442101561160e575060006115be565b61162e600161153c60ca5461111660c954426123c790919063ffffffff16565b905090565b60008061163e6115fa565b9050600061166c61166360ca54846001600160801b031661242690919063ffffffff16565b60c9549061230d565b9050600061167a82426123c7565b60ca549091506000906116999061111684670de0b6b3a7640000612426565b94505050505090565b600054610100900460ff16806116bb57506116bb612548565b806116c9575060005460ff16155b6117045760405162461bcd60e51b815260040180806020018281038252602e815260200180612bf4602e913960400191505060405180910390fd5b600054610100900460ff1615801561172f576000805460ff1961ff0019909116610100171660011790555b61173761254e565b61173f612600565b60c983905560ca829055801561175b576000805461ff00191690555b505050565b6117686115fa565b6001600160801b0316816001600160801b031611156117ce576040805162461bcd60e51b815260206004820152601960248201527f63616e277420696e69742061206675747572652065706f636800000000000000604482015290519081900360640190fd5b60005b825181101561199457600060cc60008584815181106117ec57fe5b6020908102919091018101516001600160a01b0316825281810192909252604090810160009081206001600160801b038716808352935220915061184357600081556001808201805460ff1916909117905561198b565b61186084838151811061185257fe5b6020026020010151846115c1565b1561189c5760405162461bcd60e51b8152600401808060200182810382526022815260200180612b8a6022913960400191505060405180910390fd5b6118d58483815181106118ab57fe5b60200260200101516118d06001866001600160801b03166123c790919063ffffffff16565b6115c1565b6119105760405162461bcd60e51b8152600401808060200182810382526027815260200180612bac6027913960400191505060405180910390fd5b60cc600085848151811061192057fe5b60200260200101516001600160a01b03166001600160a01b0316815260200190815260200160002060006119676001866001600160801b03166123c790919063ffffffff16565b815260208101919091526040016000205481556001808201805460ff191690911790555b506001016117d1565b50806001600160801b0316336001600160a01b03167fb85c32b8d9cecc81feba78646289584a693e9a8afea40ab2fd31efae4408429f846040518080602001828103825283818151815260200191508051906020019060200280838360005b83811015611a0b5781810151838201526020016119f3565b505050509050019250505060405180910390a35050565b611a2a612513565b6097546001600160a01b03908116911614611a8c576040805162461bcd60e51b815260206004820181905260248201527f4f776e61626c653a2063616c6c6572206973206e6f7420746865206f776e6572604482015290519081900360640190fd5b6001600160a01b038116611ad15760405162461bcd60e51b8152600401808060200182810382526026815260200180612b386026913960400191505060405180910390fd5b6097546040516001600160a01b038084169216907f8be0079c531659141344cd1fd0a4f28419497f9722a3daafe3b4186f6b6457e090600090a3609780546001600160a01b0319166001600160a01b0392909216919091179055565b60335460ff16611b84576040805162461bcd60e51b815260206004820152601f60248201527f5265656e7472616e637947756172643a207265656e7472616e742063616c6c00604482015290519081900360640190fd5b6033805460ff1916905533600090815260cb602090815260408083206001600160a01b0386168452909152902054811115611c06576040805162461bcd60e51b815260206004820152601a60248201527f5374616b696e673a2062616c616e636520746f6f20736d616c6c000000000000604482015290519081900360640190fd5b33600090815260cb602090815260408083206001600160a01b0386168452909152902054611c3490826123c7565b33600081815260cb602090815260408083206001600160a01b03881684529091529020919091558290611c69908290846124c1565b6000611c736115fa565b6001600160a01b038516600090815260ce6020526040902080546001600160801b0319166001600160801b0383161790559050611cb084826115c1565b611d1057604080516001808252818301909252606091602080830190803683370190505090508481600081518110611ce457fe5b60200260200101906001600160a01b031690816001600160a01b031681525050611d0e8183611760565b505b6001600160a01b038416600090815260cc6020526040812081611d3d6001600160801b038516600161230d565b81526020019081526020016000209050826001600160a01b03166370a08231306040518263ffffffff1660e01b815260040180826001600160a01b0316815260200191505060206040518083038186803b158015611d9a57600080fd5b505afa158015611dae573d6000803e3d6000fd5b505050506040513d6020811015611dc457600080fd5b505181556001808201805460ff19168217905533600090815260cd602090815260408083206001600160a01b038a168452909152812080549092611e0891906123c7565b9050836001600160801b0316828281548110611e2057fe5b60009182526020909120600390910201546001600160801b03161015611f3957604080516080810182526001600160801b03808716808352670de0b6b3a7640000602080850191825233600090815260cb82528681206001600160a01b038f1680835290835287822054878901908152606088018381528b5460018181018e558d86528686209a516003909202909a01805497518a16600160801b02918a166001600160801b0319909816979097179098169790971785555196840196909655935160029092019190915592825260cc83528382209082529091522054611f0790876123c7565b6001600160a01b038816600090815260cc602090815260408083206001600160801b0389168452909152902055612286565b836001600160801b0316828281548110611f4f57fe5b60009182526020909120600390910201546001600160801b031614156120425733600090815260cb602090815260408083206001600160a01b038b1684529091529020548254839083908110611fa157fe5b9060005260206000209060030201600101819055506000828281548110611fc457fe5b906000526020600020906003020160020181905550670de0b6b3a7640000828281548110611fee57fe5b60009182526020808320600390920290910180546001600160801b03948516600160801b029085161790556001600160a01b038a16825260cc8152604080832093881683529290522054611f0790876123c7565b6000826120508360016123c7565b8154811061205a57fe5b6000918252602080832060408051608081018252600390940290910180546001600160801b038082168652600160801b90910416928401929092526001820154908301526002810154606083015292506120b390612517565b905081600201548810156121475760006120f78360020154611116670de0b6b3a76400006001600160801b03166111668760010154876123c790919063ffffffff16565b6002840154909150612109908a6123c7565b60028401819055600184015461212991670de0b6b3a764000090846110f4565b83546001600160801b03918216600160801b02911617835550612191565b61216c61216183600201548a6123c790919063ffffffff16565b6001840154906123c7565b60018301556000600283015581546001600160801b03166503782dace9d960921b1782555b6040805160808101825283546001600160801b038082168352600160801b909104166020820152600184015491810191909152600283015460608201526000906121da90612517565b905061221c6121e983836123c7565b6001600160a01b038c16600090815260cc602090815260408083206001600160801b038d168452909152902054906123c7565b6001600160a01b038b16600081815260cc602090815260408083206001600160801b038d16845282528083209490945533825260cb8152838220928252919091522054855486908690811061226d57fe5b9060005260206000209060030201600101819055505050505b6040805187815290516001600160a01b0389169133917f9b1bfa7fa9ee420a16e124f794c35ac9f90472acc99140eb2f6447c714cad8eb9181900360200190a350506033805460ff191660011790555050505050565b60c95481565b6001600160a01b03918216600090815260cb6020908152604080832093909416825291909152205490565b6000828201838110156115aa576040805162461bcd60e51b815260206004820152601b60248201527f536166654d6174683a206164646974696f6e206f766572666c6f770000000000604482015290519081900360640190fd5b604080516001600160a01b0380861660248301528416604482015260648082018490528251808303909101815260849091019091526020810180516001600160e01b03166323b872dd60e01b1790526123c19085906126ae565b50505050565b60006115aa83836040518060400160405280601e81526020017f536166654d6174683a207375627472616374696f6e206f766572666c6f770000815250612866565b60006104fd8260600151836040015161230d90919063ffffffff16565b600082612435575060006104fd565b8282028284828161244257fe5b04146115aa5760405162461bcd60e51b8152600401808060200182810382526021815260200180612bd36021913960400191505060405180910390fd5b60006115aa83836040518060400160405280601a81526020017f536166654d6174683a206469766973696f6e206279207a65726f0000000000008152506128fd565b604080516001600160a01b038416602482015260448082018490528251808303909101815260649091019091526020810180516001600160e01b031663a9059cbb60e01b17905261175b9084906126ae565b3390565b60006104fd670de0b6b3a76400006001600160801b031661111684602001516001600160801b031661116686612409565b303b1590565b600054610100900460ff16806125675750612567612548565b80612575575060005460ff16155b6125b05760405162461bcd60e51b815260040180806020018281038252602e815260200180612bf4602e913960400191505060405180910390fd5b600054610100900460ff161580156125db576000805460ff1961ff0019909116610100171660011790555b6125e3612962565b6125eb612a02565b80156125fd576000805461ff00191690555b50565b600054610100900460ff16806126195750612619612548565b80612627575060005460ff16155b6126625760405162461bcd60e51b815260040180806020018281038252602e815260200180612bf4602e913960400191505060405180910390fd5b600054610100900460ff1615801561268d576000805460ff1961ff0019909116610100171660011790555b6033805460ff1916600117905580156125fd576000805461ff001916905550565b6126c0826001600160a01b0316612afb565b612711576040805162461bcd60e51b815260206004820152601f60248201527f5361666545524332303a2063616c6c20746f206e6f6e2d636f6e747261637400604482015290519081900360640190fd5b60006060836001600160a01b0316836040518082805190602001908083835b6020831061274f5780518252601f199092019160209182019101612730565b6001836020036101000a0380198251168184511680821785525050505050509050019150506000604051808303816000865af19150503d80600081146127b1576040519150601f19603f3d011682016040523d82523d6000602084013e6127b6565b606091505b50915091508161280d576040805162461bcd60e51b815260206004820181905260248201527f5361666545524332303a206c6f772d6c6576656c2063616c6c206661696c6564604482015290519081900360640190fd5b8051156123c15780806020019051602081101561282957600080fd5b50516123c15760405162461bcd60e51b815260040180806020018281038252602a815260200180612c22602a913960400191505060405180910390fd5b600081848411156128f55760405162461bcd60e51b81526004018080602001828103825283818151815260200191508051906020019080838360005b838110156128ba5781810151838201526020016128a2565b50505050905090810190601f1680156128e75780820380516001836020036101000a031916815260200191505b509250505060405180910390fd5b505050900390565b6000818361294c5760405162461bcd60e51b81526020600482018181528351602484015283519092839260449091019190850190808383600083156128ba5781810151838201526020016128a2565b50600083858161295857fe5b0495945050505050565b600054610100900460ff168061297b575061297b612548565b80612989575060005460ff16155b6129c45760405162461bcd60e51b815260040180806020018281038252602e815260200180612bf4602e913960400191505060405180910390fd5b600054610100900460ff161580156125eb576000805460ff1961ff00199091166101001716600117905580156125fd576000805461ff001916905550565b600054610100900460ff1680612a1b5750612a1b612548565b80612a29575060005460ff16155b612a645760405162461bcd60e51b815260040180806020018281038252602e815260200180612bf4602e913960400191505060405180910390fd5b600054610100900460ff16158015612a8f576000805460ff1961ff0019909116610100171660011790555b6000612a99612513565b609780546001600160a01b0319166001600160a01b038316908117909155604051919250906000907f8be0079c531659141344cd1fd0a4f28419497f9722a3daafe3b4186f6b6457e0908290a35080156125fd576000805461ff001916905550565b6000813f7fc5d2460186f7233c927e7db2dcc703c0e500b653ca82273b7bfad8045d85a470818114801590612b2f57508115155b94935050505056fe4f776e61626c653a206e6577206f776e657220697320746865207a65726f20616464726573734174206c656173742031302065706f636873206d757374207061737320776974686f757420737563636573735374616b696e673a2065706f636820616c726561647920696e697469616c697a65645374616b696e673a2070726576696f75732065706f6368206e6f7420696e697469616c697a6564536166654d6174683a206d756c7469706c69636174696f6e206f766572666c6f77436f6e747261637420696e7374616e63652068617320616c7265616479206265656e20696e697469616c697a65645361666545524332303a204552433230206f7065726174696f6e20646964206e6f742073756363656564a2646970667358221220a1a623630be6875997779234b2149567a17960ba8f30779c0e85b999f3c2162864736f6c634300060c0033",
  "immutableReferences": {},
  "source": "// Inspired by https://github.com/BarnBridge/BarnBridge-YieldFarming/blob/master/contracts/Staking.sol\n// SPDX-License-Identifier: Apache-2.0\npragma solidity 0.6.12;\n\nimport \"@openzeppelin/contracts-ethereum-package/contracts/token/ERC20/IERC20.sol\";\nimport \"@openzeppelin/contracts-ethereum-package/contracts/math/SafeMath.sol\";\nimport \"@openzeppelin/contracts-ethereum-package/contracts/utils/ReentrancyGuard.sol\";\nimport \"@openzeppelin/contracts-ethereum-package/contracts/access/Ownable.sol\";\nimport \"@openzeppelin/contracts-ethereum-package/contracts/token/ERC20/SafeERC20.sol\";\n\n\ncontract StakingMilestones is ReentrancyGuardUpgradeSafe, OwnableUpgradeSafe {\n    using SafeMath for uint256;\n    using SafeMath for uint128;\n\n\n    uint128 constant private BASE_MULTIPLIER = uint128(1e18);\n\n    // timestamp for the epoch 1\n    // everything before that is considered epoch 0 which won't have a reward but allows for the initial stake\n    uint256 public epoch1Start;\n\n    // duration of each epoch\n    uint256 public epochDuration;\n\n    // holds the current balance of the user for each token\n    mapping(address => mapping(address => uint256)) private balances;\n\n    struct Pool {\n        uint256 size;\n        bool set;\n    }\n\n    // for each token, we store the total pool size\n    mapping(address => mapping(uint256 => Pool)) private poolSize;\n\n    // a checkpoint of the valid balance of a user for an epoch\n    struct Checkpoint {\n        uint128 epochId;\n        uint128 multiplier;\n        uint256 startBalance;\n        uint256 newDeposits;\n    }\n\n    // balanceCheckpoints[user][token][]\n    mapping(address => mapping(address => Checkpoint[])) private balanceCheckpoints;\n\n    mapping(address => uint128) private lastWithdrawEpochId;\n\n    event Deposit(address indexed user, address indexed tokenAddress, uint256 amount);\n    event Withdraw(address indexed user, address indexed tokenAddress, uint256 amount);\n    event ManualEpochInit(address indexed caller, uint128 indexed epochId, address[] tokens);\n    event EmergencyWithdraw(address indexed user, address indexed tokenAddress, uint256 amount);\n\n    function initialize (uint256 _epoch1Start, uint256 _epochDuration) external initializer {\n        OwnableUpgradeSafe.__Ownable_init();\n        __ReentrancyGuard_init_unchained();\n        epoch1Start = _epoch1Start;\n        epochDuration = _epochDuration;\n    }\n\n    /*\n     * Stores `amount` of `tokenAddress` tokens for the `user` into the vault\n     */\n    function deposit(address tokenAddress, uint256 amount) external nonReentrant {\n        require(amount > 0, \"Staking: Amount must be > 0\");\n\n        IERC20 token = IERC20(tokenAddress);\n        uint256 allowance = token.allowance(msg.sender, address(this));\n        require(allowance >= amount, \"Staking: Token allowance too low\");\n\n        balances[msg.sender][tokenAddress] = balances[msg.sender][tokenAddress].add(amount);\n\n        SafeERC20.safeTransferFrom(token, msg.sender, address(this), amount);\n\n        // epoch logic\n        uint128 currentEpoch = getCurrentEpoch();\n        uint128 currentMultiplier = currentEpochMultiplier();\n\n        if (!epochIsInitialized(tokenAddress, currentEpoch)) {\n            address[] memory tokens = new address[](1);\n            tokens[0] = tokenAddress;\n            manualEpochInit(tokens, currentEpoch);\n        }\n\n        // update the next epoch pool size\n        Pool storage pNextEpoch = poolSize[tokenAddress][currentEpoch.add(1)];\n        pNextEpoch.size = token.balanceOf(address(this));\n        pNextEpoch.set = true;\n\n        Checkpoint[] storage checkpoints = balanceCheckpoints[msg.sender][tokenAddress];\n\n        uint256 balanceBefore = getEpochUserBalance(msg.sender, tokenAddress, currentEpoch);\n\n        // if there's no checkpoint yet, it means the user didn't have any activity\n        // we want to store checkpoints both for the current epoch and next epoch because\n        // if a user does a withdraw, the current epoch can also be modified and\n        // we don't want to insert another checkpoint in the middle of the array as that could be expensive\n        if (checkpoints.length == 0) {\n            checkpoints.push(Checkpoint(currentEpoch, currentMultiplier, 0, amount));\n\n            // next epoch => multiplier is 1, epoch deposits is 0\n            checkpoints.push(Checkpoint(uint128(currentEpoch.add(1)), BASE_MULTIPLIER, amount, 0));\n        } else {\n            uint256 last = checkpoints.length.sub(1);\n\n            // the last action happened in an older epoch (e.g. a deposit in epoch 3, current epoch is >=5)\n            if (checkpoints[last].epochId < currentEpoch) {\n                uint128 multiplier = computeNewMultiplier(\n                    getCheckpointBalance(checkpoints[last]),\n                    BASE_MULTIPLIER,\n                    amount,\n                    currentMultiplier\n                );\n                checkpoints.push(Checkpoint(currentEpoch, multiplier, getCheckpointBalance(checkpoints[last]), amount));\n                checkpoints.push(Checkpoint(uint128(currentEpoch.add(1)), BASE_MULTIPLIER, balances[msg.sender][tokenAddress], 0));\n            }\n            // the last action happened in the previous epoch\n            else if (checkpoints[last].epochId == currentEpoch) {\n                checkpoints[last].multiplier = computeNewMultiplier(\n                    getCheckpointBalance(checkpoints[last]),\n                    checkpoints[last].multiplier,\n                    amount,\n                    currentMultiplier\n                );\n                checkpoints[last].newDeposits = checkpoints[last].newDeposits.add(amount);\n\n                checkpoints.push(Checkpoint(uint128(currentEpoch.add(1)), BASE_MULTIPLIER, balances[msg.sender][tokenAddress], 0));\n            }\n            // the last action happened in the current epoch\n            else {\n                if (last >= 1 && checkpoints[last.sub(1)].epochId == currentEpoch) {\n                    checkpoints[last.sub(1)].multiplier = computeNewMultiplier(\n                        getCheckpointBalance(checkpoints[last.sub(1)]),\n                        checkpoints[last.sub(1)].multiplier,\n                        amount,\n                        currentMultiplier\n                    );\n                    checkpoints[last.sub(1)].newDeposits = checkpoints[last.sub(1)].newDeposits.add(amount);\n                }\n\n                checkpoints[last].startBalance = balances[msg.sender][tokenAddress];\n            }\n        }\n\n        uint256 balanceAfter = getEpochUserBalance(msg.sender, tokenAddress, currentEpoch);\n\n        poolSize[tokenAddress][currentEpoch].size = poolSize[tokenAddress][currentEpoch].size.add(balanceAfter.sub(balanceBefore));\n\n        emit Deposit(msg.sender, tokenAddress, amount);\n    }\n\n    /*\n     * Removes the deposit of the user and sends the amount of `tokenAddress` back to the `user`\n     */\n    function withdraw(address tokenAddress, uint256 amount) external nonReentrant {\n        require(balances[msg.sender][tokenAddress] >= amount, \"Staking: balance too small\");\n\n        balances[msg.sender][tokenAddress] = balances[msg.sender][tokenAddress].sub(amount);\n\n        IERC20 token = IERC20(tokenAddress);\n        SafeERC20.safeTransfer(token, msg.sender, amount);\n\n        // epoch logic\n        uint128 currentEpoch = getCurrentEpoch();\n\n        lastWithdrawEpochId[tokenAddress] = currentEpoch;\n\n        if (!epochIsInitialized(tokenAddress, currentEpoch)) {\n            address[] memory tokens = new address[](1);\n            tokens[0] = tokenAddress;\n            manualEpochInit(tokens, currentEpoch);\n        }\n\n        // update the pool size of the next epoch to its current balance\n        Pool storage pNextEpoch = poolSize[tokenAddress][currentEpoch.add(1)];\n        pNextEpoch.size = token.balanceOf(address(this));\n        pNextEpoch.set = true;\n\n        Checkpoint[] storage checkpoints = balanceCheckpoints[msg.sender][tokenAddress];\n        uint256 last = checkpoints.length.sub(1);\n\n        // note: it's impossible to have a withdraw and no checkpoints because the balance would be 0 and revert\n\n        // there was a deposit in an older epoch (more than 1 behind [eg: previous 0, now 5]) but no other action since then\n        if (checkpoints[last].epochId < currentEpoch) {\n            checkpoints.push(Checkpoint(currentEpoch, BASE_MULTIPLIER, balances[msg.sender][tokenAddress], 0));\n\n            poolSize[tokenAddress][currentEpoch].size = poolSize[tokenAddress][currentEpoch].size.sub(amount);\n        }\n        // there was a deposit in the `epochId - 1` epoch => we have a checkpoint for the current epoch\n        else if (checkpoints[last].epochId == currentEpoch) {\n            checkpoints[last].startBalance = balances[msg.sender][tokenAddress];\n            checkpoints[last].newDeposits = 0;\n            checkpoints[last].multiplier = BASE_MULTIPLIER;\n\n            poolSize[tokenAddress][currentEpoch].size = poolSize[tokenAddress][currentEpoch].size.sub(amount);\n        }\n        // there was a deposit in the current epoch\n        else {\n            Checkpoint storage currentEpochCheckpoint = checkpoints[last.sub(1)];\n\n            uint256 balanceBefore = getCheckpointEffectiveBalance(currentEpochCheckpoint);\n\n            // in case of withdraw, we have 2 branches:\n            // 1. the user withdraws less than he added in the current epoch\n            // 2. the user withdraws more than he added in the current epoch (including 0)\n            if (amount < currentEpochCheckpoint.newDeposits) {\n                uint128 avgDepositMultiplier = uint128(\n                    balanceBefore.sub(currentEpochCheckpoint.startBalance).mul(BASE_MULTIPLIER).div(currentEpochCheckpoint.newDeposits)\n                );\n\n                currentEpochCheckpoint.newDeposits = currentEpochCheckpoint.newDeposits.sub(amount);\n\n                currentEpochCheckpoint.multiplier = computeNewMultiplier(\n                    currentEpochCheckpoint.startBalance,\n                    BASE_MULTIPLIER,\n                    currentEpochCheckpoint.newDeposits,\n                    avgDepositMultiplier\n                );\n            } else {\n                currentEpochCheckpoint.startBalance = currentEpochCheckpoint.startBalance.sub(\n                    amount.sub(currentEpochCheckpoint.newDeposits)\n                );\n                currentEpochCheckpoint.newDeposits = 0;\n                currentEpochCheckpoint.multiplier = BASE_MULTIPLIER;\n            }\n\n            uint256 balanceAfter = getCheckpointEffectiveBalance(currentEpochCheckpoint);\n\n            poolSize[tokenAddress][currentEpoch].size = poolSize[tokenAddress][currentEpoch].size.sub(balanceBefore.sub(balanceAfter));\n\n            checkpoints[last].startBalance = balances[msg.sender][tokenAddress];\n        }\n\n        emit Withdraw(msg.sender, tokenAddress, amount);\n    }\n\n    /*\n     * manualEpochInit can be used by anyone to initialize an epoch based on the previous one\n     * This is only applicable if there was no action (deposit/withdraw) in the current epoch.\n     * Any deposit and withdraw will automatically initialize the current and next epoch.\n     */\n    function manualEpochInit(address[] memory tokens, uint128 epochId) public {\n        require(epochId <= getCurrentEpoch(), \"can't init a future epoch\");\n\n        for (uint i = 0; i < tokens.length; i++) {\n            Pool storage p = poolSize[tokens[i]][epochId];\n\n            if (epochId == 0) {\n                p.size = uint256(0);\n                p.set = true;\n            } else {\n                require(!epochIsInitialized(tokens[i], epochId), \"Staking: epoch already initialized\");\n                require(epochIsInitialized(tokens[i], uint128(epochId.sub(1))), \"Staking: previous epoch not initialized\");\n\n                p.size = poolSize[tokens[i]][epochId.sub(1)].size;\n                p.set = true;\n            }\n        }\n\n        emit ManualEpochInit(msg.sender, epochId, tokens);\n    }\n\n    function emergencyWithdraw(address tokenAddress) external nonReentrant {\n        require(getCurrentEpoch().sub(lastWithdrawEpochId[tokenAddress]) >= 10, \"At least 10 epochs must pass without success\");\n\n        uint256 totalUserBalance = balances[msg.sender][tokenAddress];\n        require(totalUserBalance > 0, \"Amount must be > 0\");\n\n        balances[msg.sender][tokenAddress] = 0;\n\n        IERC20 token = IERC20(tokenAddress);\n        SafeERC20.safeTransfer(token, msg.sender, totalUserBalance);\n\n        emit EmergencyWithdraw(msg.sender, tokenAddress, totalUserBalance);\n    }\n\n    /*\n     * Returns the valid balance of a user that was taken into consideration in the total pool size for the epoch\n     * A deposit will only change the next epoch balance.\n     * A withdraw will decrease the current epoch (and subsequent) balance.\n     */\n    function getEpochUserBalance(address user, address token, uint128 epochId) public view returns (uint256) {\n        Checkpoint[] storage checkpoints = balanceCheckpoints[user][token];\n\n        // if there are no checkpoints, it means the user never deposited any tokens, so the balance is 0\n        if (checkpoints.length == 0 || epochId < checkpoints[0].epochId) {\n            return 0;\n        }\n\n        uint min = 0;\n        uint max = checkpoints.length.sub(1);\n\n        // shortcut for blocks newer than the latest checkpoint == current balance\n        if (epochId >= checkpoints[max].epochId) {\n            return getCheckpointEffectiveBalance(checkpoints[max]);\n        }\n\n        // binary search of the value in the array\n        while (max > min) {\n            uint mid = (max.add(min).add(1)).div(2);\n            if (checkpoints[mid].epochId <= epochId) {\n                min = mid;\n            } else {\n                max = mid.sub(1);\n            }\n        }\n\n        return getCheckpointEffectiveBalance(checkpoints[min]);\n    }\n\n    /*\n     * Returns the amount of `token` that the `user` has currently staked\n     */\n    function balanceOf(address user, address token) external view returns (uint256) {\n        return balances[user][token];\n    }\n\n    /*\n     * Returns the id of the current epoch derived from block.timestamp\n     */\n    function getCurrentEpoch() public view returns (uint128) {\n        if (block.timestamp < epoch1Start) {\n            return 0;\n        }\n\n        return uint128((block.timestamp.sub(epoch1Start)).div(epochDuration).add(1));\n    }\n\n    /*\n     * Returns the total amount of `tokenAddress` that was locked from beginning to end of epoch identified by `epochId`\n     */\n    function getEpochPoolSize(address tokenAddress, uint128 epochId) external view returns (uint256) {\n        // Premises:\n        // 1. it's impossible to have gaps of uninitialized epochs\n        // - any deposit or withdraw initialize the current epoch which requires the previous one to be initialized\n        if (epochIsInitialized(tokenAddress, epochId)) {\n            return poolSize[tokenAddress][epochId].size;\n        }\n\n        // epochId not initialized and epoch 0 not initialized => there was never any action on this pool\n        if (!epochIsInitialized(tokenAddress, 0)) {\n            return 0;\n        }\n\n        // epoch 0 is initialized => there was an action at some point but none that initialized the epochId\n        // which means the current pool size is equal to the current balance of token held by the staking contract\n        IERC20 token = IERC20(tokenAddress);\n        return token.balanceOf(address(this));\n    }\n\n    /*\n     * Returns the percentage of time left in the current epoch\n     */\n    function currentEpochMultiplier() public view returns (uint128) {\n        uint128 currentEpoch = getCurrentEpoch();\n        uint256 currentEpochEnd = epoch1Start.add(currentEpoch.mul(epochDuration));\n        uint256 timeLeft = currentEpochEnd.sub(block.timestamp);\n        uint128 multiplier = uint128(timeLeft.mul(BASE_MULTIPLIER).div(epochDuration));\n\n        return multiplier;\n    }\n\n    function computeNewMultiplier(uint256 prevBalance, uint128 prevMultiplier, uint256 amount, uint128 currentMultiplier) public pure returns (uint128) {\n        uint256 prevAmount = prevBalance.mul(prevMultiplier).div(BASE_MULTIPLIER);\n        uint256 addAmount = amount.mul(currentMultiplier).div(BASE_MULTIPLIER);\n        uint128 newMultiplier = uint128(prevAmount.add(addAmount).mul(BASE_MULTIPLIER).div(prevBalance.add(amount)));\n\n        return newMultiplier;\n    }\n\n    /*\n     * Checks if an epoch is initialized, meaning we have a pool size set for it\n     */\n    function epochIsInitialized(address token, uint128 epochId) public view returns (bool) {\n        return poolSize[token][epochId].set;\n    }\n\n    function getCheckpointBalance(Checkpoint memory c) internal pure returns (uint256) {\n        return c.startBalance.add(c.newDeposits);\n    }\n\n    function getCheckpointEffectiveBalance(Checkpoint memory c) internal pure returns (uint256) {\n        return getCheckpointBalance(c).mul(c.multiplier).div(BASE_MULTIPLIER);\n    }\n}\n",
  "sourcePath": "/Users/ttabbaa/Documents/Tranche-Contracts/staking-protocol/contracts/StakingMilestones/StakingMilestones.sol",
  "compiler": {
    "name": "solc",
    "version": "0.6.12+commit.27d51765.Emscripten.clang"
  },
  "schemaVersion": "3.3.2",
  "updatedAt": "2021-03-18T09:16:26.630Z",
  "networkType": "ethereum",
  "devdoc": {
    "kind": "dev",
    "methods": {
      "owner()": {
        "details": "Returns the address of the current owner."
      },
      "renounceOwnership()": {
        "details": "Leaves the contract without owner. It will not be possible to call `onlyOwner` functions anymore. Can only be called by the current owner. NOTE: Renouncing ownership will leave the contract without an owner, thereby removing any functionality that is only available to the owner."
      },
      "transferOwnership(address)": {
        "details": "Transfers ownership of the contract to a new account (`newOwner`). Can only be called by the current owner."
      }
    },
    "version": 1
  },
  "userdoc": {
    "kind": "user",
    "methods": {},
    "version": 1
  }
}