{
  "contractName": "Vault",
  "abi": [
    {
      "inputs": [
        {
          "internalType": "address",
          "name": "sliceAddress",
          "type": "address"
        }
      ],
      "stateMutability": "nonpayable",
      "type": "constructor"
    },
    {
      "anonymous": false,
      "inputs": [
        {
          "indexed": true,
          "internalType": "address",
          "name": "previousOwner",
          "type": "address"
        },
        {
          "indexed": true,
          "internalType": "address",
          "name": "newOwner",
          "type": "address"
        }
      ],
      "name": "OwnershipTransferred",
      "type": "event"
    },
    {
      "anonymous": false,
      "inputs": [
        {
          "indexed": true,
          "internalType": "address",
          "name": "caller",
          "type": "address"
        },
        {
          "indexed": true,
          "internalType": "address",
          "name": "spender",
          "type": "address"
        },
        {
          "indexed": false,
          "internalType": "uint256",
          "name": "amount",
          "type": "uint256"
        }
      ],
      "name": "SetAllowance",
      "type": "event"
    },
    {
      "inputs": [],
      "name": "SLICE",
      "outputs": [
        {
          "internalType": "contract IERC20",
          "name": "",
          "type": "address"
        }
      ],
      "stateMutability": "view",
      "type": "function",
      "constant": true
    },
    {
      "inputs": [],
      "name": "owner",
      "outputs": [
        {
          "internalType": "address",
          "name": "",
          "type": "address"
        }
      ],
      "stateMutability": "view",
      "type": "function",
      "constant": true
    },
    {
      "inputs": [],
      "name": "renounceOwnership",
      "outputs": [],
      "stateMutability": "nonpayable",
      "type": "function"
    },
    {
      "inputs": [
        {
          "internalType": "address",
          "name": "newOwner",
          "type": "address"
        }
      ],
      "name": "transferOwnership",
      "outputs": [],
      "stateMutability": "nonpayable",
      "type": "function"
    },
    {
      "inputs": [
        {
          "internalType": "address",
          "name": "spender",
          "type": "address"
        },
        {
          "internalType": "uint256",
          "name": "amount",
          "type": "uint256"
        }
      ],
      "name": "setAllowance",
      "outputs": [],
      "stateMutability": "nonpayable",
      "type": "function"
    }
  ],
  "bytecode": "0x60806040523480156200001157600080fd5b5060405162000cfd38038062000cfd833981810160405260208110156200003757600080fd5b50516200004f62000075602090811b6200038617901c565b609780546001600160a01b0319166001600160a01b0392909216919091179055620002e8565b600054610100900460ff16806200009157506200009162000133565b80620000a0575060005460ff16155b620000dd5760405162461bcd60e51b815260040180806020018281038252602e81526020018062000ccf602e913960400191505060405180910390fd5b600054610100900460ff1615801562000109576000805460ff1961ff0019909116610100171660011790555b6200011362000139565b6200011d620001e1565b801562000130576000805461ff00191690555b50565b303b1590565b600054610100900460ff16806200015557506200015562000133565b8062000164575060005460ff16155b620001a15760405162461bcd60e51b815260040180806020018281038252602e81526020018062000ccf602e913960400191505060405180910390fd5b600054610100900460ff161580156200011d576000805460ff1961ff001990911661010017166001179055801562000130576000805461ff001916905550565b600054610100900460ff1680620001fd5750620001fd62000133565b806200020c575060005460ff16155b620002495760405162461bcd60e51b815260040180806020018281038252602e81526020018062000ccf602e913960400191505060405180910390fd5b600054610100900460ff1615801562000275576000805460ff1961ff0019909116610100171660011790555b600062000281620002e4565b606580546001600160a01b0319166001600160a01b038316908117909155604051919250906000907f8be0079c531659141344cd1fd0a4f28419497f9722a3daafe3b4186f6b6457e0908290a350801562000130576000805461ff001916905550565b3390565b6109d780620002f86000396000f3fe608060405234801561001057600080fd5b50600436106100575760003560e01c8063310ec4a71461005c578063715018a61461008a57806379749ce4146100925780638da5cb5b146100b6578063f2fde38b146100be575b600080fd5b6100886004803603604081101561007257600080fd5b506001600160a01b0381351690602001356100e4565b005b6100886101a9565b61009a61025d565b604080516001600160a01b039092168252519081900360200190f35b61009a61026c565b610088600480360360208110156100d457600080fd5b50356001600160a01b031661027b565b6100ec610438565b6065546001600160a01b0390811691161461014e576040805162461bcd60e51b815260206004820181905260248201527f4f776e61626c653a2063616c6c6572206973206e6f7420746865206f776e6572604482015290519081900360640190fd5b609754610165906001600160a01b0316838361043c565b6040805182815290516001600160a01b0384169133917f3c07380f6fcae3bac39771c60e5c680334073911f2176b65f1d6925ba0badcdf9181900360200190a35050565b6101b1610438565b6065546001600160a01b03908116911614610213576040805162461bcd60e51b815260206004820181905260248201527f4f776e61626c653a2063616c6c6572206973206e6f7420746865206f776e6572604482015290519081900360640190fd5b6065546040516000916001600160a01b0316907f8be0079c531659141344cd1fd0a4f28419497f9722a3daafe3b4186f6b6457e0908390a3606580546001600160a01b0319169055565b6097546001600160a01b031681565b6065546001600160a01b031690565b610283610438565b6065546001600160a01b039081169116146102e5576040805162461bcd60e51b815260206004820181905260248201527f4f776e61626c653a2063616c6c6572206973206e6f7420746865206f776e6572604482015290519081900360640190fd5b6001600160a01b03811661032a5760405162461bcd60e51b81526004018080602001828103825260268152602001806108ee6026913960400191505060405180910390fd5b6065546040516001600160a01b038084169216907f8be0079c531659141344cd1fd0a4f28419497f9722a3daafe3b4186f6b6457e090600090a3606580546001600160a01b0319166001600160a01b0392909216919091179055565b600054610100900460ff168061039f575061039f610554565b806103ad575060005460ff16155b6103e85760405162461bcd60e51b815260040180806020018281038252602e815260200180610914602e913960400191505060405180910390fd5b600054610100900460ff16158015610413576000805460ff1961ff0019909116610100171660011790555b61041b61055a565b6104236105fa565b8015610435576000805461ff00191690555b50565b3390565b8015806104c2575060408051636eb1769f60e11b81523060048201526001600160a01b03848116602483015291519185169163dd62ed3e91604480820192602092909190829003018186803b15801561049457600080fd5b505afa1580156104a8573d6000803e3d6000fd5b505050506040513d60208110156104be57600080fd5b5051155b6104fd5760405162461bcd60e51b815260040180806020018281038252603681526020018061096c6036913960400191505060405180910390fd5b604080516001600160a01b038416602482015260448082018490528251808303909101815260649091019091526020810180516001600160e01b031663095ea7b360e01b17905261054f9084906106f3565b505050565b303b1590565b600054610100900460ff16806105735750610573610554565b80610581575060005460ff16155b6105bc5760405162461bcd60e51b815260040180806020018281038252602e815260200180610914602e913960400191505060405180910390fd5b600054610100900460ff16158015610423576000805460ff1961ff0019909116610100171660011790558015610435576000805461ff001916905550565b600054610100900460ff16806106135750610613610554565b80610621575060005460ff16155b61065c5760405162461bcd60e51b815260040180806020018281038252602e815260200180610914602e913960400191505060405180910390fd5b600054610100900460ff16158015610687576000805460ff1961ff0019909116610100171660011790555b6000610691610438565b606580546001600160a01b0319166001600160a01b038316908117909155604051919250906000907f8be0079c531659141344cd1fd0a4f28419497f9722a3daafe3b4186f6b6457e0908290a3508015610435576000805461ff001916905550565b610705826001600160a01b03166108b1565b610756576040805162461bcd60e51b815260206004820152601f60248201527f5361666545524332303a2063616c6c20746f206e6f6e2d636f6e747261637400604482015290519081900360640190fd5b60006060836001600160a01b0316836040518082805190602001908083835b602083106107945780518252601f199092019160209182019101610775565b6001836020036101000a0380198251168184511680821785525050505050509050019150506000604051808303816000865af19150503d80600081146107f6576040519150601f19603f3d011682016040523d82523d6000602084013e6107fb565b606091505b509150915081610852576040805162461bcd60e51b815260206004820181905260248201527f5361666545524332303a206c6f772d6c6576656c2063616c6c206661696c6564604482015290519081900360640190fd5b8051156108ab5780806020019051602081101561086e57600080fd5b50516108ab5760405162461bcd60e51b815260040180806020018281038252602a815260200180610942602a913960400191505060405180910390fd5b50505050565b6000813f7fc5d2460186f7233c927e7db2dcc703c0e500b653ca82273b7bfad8045d85a4708181148015906108e557508115155b94935050505056fe4f776e61626c653a206e6577206f776e657220697320746865207a65726f2061646472657373436f6e747261637420696e7374616e63652068617320616c7265616479206265656e20696e697469616c697a65645361666545524332303a204552433230206f7065726174696f6e20646964206e6f7420737563636565645361666545524332303a20617070726f76652066726f6d206e6f6e2d7a65726f20746f206e6f6e2d7a65726f20616c6c6f77616e6365a2646970667358221220d370c3968d86e57bae1bf9182edd203389fbeb3223f1dc0ffc6d5e2a50d4781f64736f6c634300060c0033436f6e747261637420696e7374616e63652068617320616c7265616479206265656e20696e697469616c697a6564",
  "immutableReferences": {},
  "source": "// Inspired by https://github.com/BarnBridge/BarnBridge-YieldFarming/blob/master/contracts/CommunityVault.sol\n// SPDX-License-Identifier: Apache-2.0\npragma solidity 0.6.12;\n\nimport \"@openzeppelin/contracts-ethereum-package/contracts/access/Ownable.sol\";\nimport \"@openzeppelin/contracts-ethereum-package/contracts/token/ERC20/IERC20.sol\";\nimport \"@openzeppelin/contracts-ethereum-package/contracts/token/ERC20/SafeERC20.sol\";\n\n\ncontract Vault is OwnableUpgradeSafe {\n\n    IERC20 public SLICE;\n\n    constructor (address sliceAddress) public {\n        OwnableUpgradeSafe.__Ownable_init();\n        SLICE = IERC20(sliceAddress);\n    }\n\n    event SetAllowance(address indexed caller, address indexed spender, uint256 amount);\n\n    function setAllowance(address spender, uint amount) external onlyOwner {\n        SafeERC20.safeApprove(SLICE, spender, amount);\n\n        emit SetAllowance(msg.sender, spender, amount);\n    }\n}\n",
  "sourcePath": "/Users/ttabbaa/Documents/Tranche-Contracts/staking-protocol/contracts/StakingMilestones/Vault.sol",
  "compiler": {
    "name": "solc",
    "version": "0.6.12+commit.27d51765.Emscripten.clang"
  },
  "schemaVersion": "3.3.2",
  "updatedAt": "2021-03-18T09:16:26.617Z",
  "networkType": "ethereum",
  "devdoc": {
    "kind": "dev",
    "methods": {
      "owner()": {
        "details": "Returns the address of the current owner."
      },
      "renounceOwnership()": {
        "details": "Leaves the contract without owner. It will not be possible to call `onlyOwner` functions anymore. Can only be called by the current owner. NOTE: Renouncing ownership will leave the contract without an owner, thereby removing any functionality that is only available to the owner."
      },
      "transferOwnership(address)": {
        "details": "Transfers ownership of the contract to a new account (`newOwner`). Can only be called by the current owner."
      }
    },
    "version": 1
  },
  "userdoc": {
    "kind": "user",
    "methods": {},
    "version": 1
  }
}