{
  "contractName": "YieldFarmLP",
  "abi": [
    {
      "anonymous": false,
      "inputs": [
        {
          "indexed": true,
          "internalType": "address",
          "name": "user",
          "type": "address"
        },
        {
          "indexed": true,
          "internalType": "uint128",
          "name": "epochId",
          "type": "uint128"
        },
        {
          "indexed": false,
          "internalType": "uint256",
          "name": "amount",
          "type": "uint256"
        }
      ],
      "name": "Harvest",
      "type": "event"
    },
    {
      "anonymous": false,
      "inputs": [
        {
          "indexed": true,
          "internalType": "address",
          "name": "user",
          "type": "address"
        },
        {
          "indexed": false,
          "internalType": "uint256",
          "name": "epochsHarvested",
          "type": "uint256"
        },
        {
          "indexed": false,
          "internalType": "uint256",
          "name": "totalValue",
          "type": "uint256"
        }
      ],
      "name": "MassHarvest",
      "type": "event"
    },
    {
      "anonymous": false,
      "inputs": [
        {
          "indexed": true,
          "internalType": "address",
          "name": "previousOwner",
          "type": "address"
        },
        {
          "indexed": true,
          "internalType": "address",
          "name": "newOwner",
          "type": "address"
        }
      ],
      "name": "OwnershipTransferred",
      "type": "event"
    },
    {
      "anonymous": false,
      "inputs": [
        {
          "indexed": true,
          "internalType": "address",
          "name": "newTokenAddress",
          "type": "address"
        },
        {
          "indexed": false,
          "internalType": "uint256",
          "name": "weight",
          "type": "uint256"
        }
      ],
      "name": "StakableTokenAdded",
      "type": "event"
    },
    {
      "anonymous": false,
      "inputs": [
        {
          "indexed": true,
          "internalType": "address",
          "name": "tokenAddress",
          "type": "address"
        }
      ],
      "name": "StakableTokenRemoved",
      "type": "event"
    },
    {
      "anonymous": false,
      "inputs": [
        {
          "indexed": false,
          "internalType": "uint128",
          "name": "epochId",
          "type": "uint128"
        },
        {
          "indexed": false,
          "internalType": "uint256",
          "name": "totalReward",
          "type": "uint256"
        }
      ],
      "name": "TotalRewardInEpochUpdated",
      "type": "event"
    },
    {
      "inputs": [],
      "name": "_slice",
      "outputs": [
        {
          "internalType": "contract IERC20",
          "name": "",
          "type": "address"
        }
      ],
      "stateMutability": "view",
      "type": "function"
    },
    {
      "inputs": [],
      "name": "_staking",
      "outputs": [
        {
          "internalType": "contract IStakingMilestones",
          "name": "",
          "type": "address"
        }
      ],
      "stateMutability": "view",
      "type": "function"
    },
    {
      "inputs": [],
      "name": "_vault",
      "outputs": [
        {
          "internalType": "address",
          "name": "",
          "type": "address"
        }
      ],
      "stateMutability": "view",
      "type": "function"
    },
    {
      "inputs": [],
      "name": "epochDuration",
      "outputs": [
        {
          "internalType": "uint256",
          "name": "",
          "type": "uint256"
        }
      ],
      "stateMutability": "view",
      "type": "function"
    },
    {
      "inputs": [],
      "name": "epochStart",
      "outputs": [
        {
          "internalType": "uint256",
          "name": "",
          "type": "uint256"
        }
      ],
      "stateMutability": "view",
      "type": "function"
    },
    {
      "inputs": [],
      "name": "lastInitializedEpoch",
      "outputs": [
        {
          "internalType": "uint128",
          "name": "",
          "type": "uint128"
        }
      ],
      "stateMutability": "view",
      "type": "function"
    },
    {
      "inputs": [],
      "name": "noOfStakableTokens",
      "outputs": [
        {
          "internalType": "uint128",
          "name": "",
          "type": "uint128"
        }
      ],
      "stateMutability": "view",
      "type": "function"
    },
    {
      "inputs": [],
      "name": "owner",
      "outputs": [
        {
          "internalType": "address",
          "name": "",
          "type": "address"
        }
      ],
      "stateMutability": "view",
      "type": "function"
    },
    {
      "inputs": [],
      "name": "renounceOwnership",
      "outputs": [],
      "stateMutability": "nonpayable",
      "type": "function"
    },
    {
      "inputs": [
        {
          "internalType": "uint128",
          "name": "",
          "type": "uint128"
        }
      ],
      "name": "stakableToken",
      "outputs": [
        {
          "internalType": "address",
          "name": "",
          "type": "address"
        }
      ],
      "stateMutability": "view",
      "type": "function"
    },
    {
      "inputs": [
        {
          "internalType": "uint128",
          "name": "",
          "type": "uint128"
        }
      ],
      "name": "totalRewardInEpoch",
      "outputs": [
        {
          "internalType": "uint256",
          "name": "",
          "type": "uint256"
        }
      ],
      "stateMutability": "view",
      "type": "function"
    },
    {
      "inputs": [],
      "name": "totalRewardsDistributed",
      "outputs": [
        {
          "internalType": "uint256",
          "name": "",
          "type": "uint256"
        }
      ],
      "stateMutability": "view",
      "type": "function"
    },
    {
      "inputs": [
        {
          "internalType": "address",
          "name": "newOwner",
          "type": "address"
        }
      ],
      "name": "transferOwnership",
      "outputs": [],
      "stateMutability": "nonpayable",
      "type": "function"
    },
    {
      "inputs": [
        {
          "internalType": "address",
          "name": "",
          "type": "address"
        }
      ],
      "name": "weightOfStakableToken",
      "outputs": [
        {
          "internalType": "uint256",
          "name": "",
          "type": "uint256"
        }
      ],
      "stateMutability": "view",
      "type": "function"
    },
    {
      "inputs": [
        {
          "internalType": "address",
          "name": "sliceAddress",
          "type": "address"
        },
        {
          "internalType": "address",
          "name": "stakeContract",
          "type": "address"
        },
        {
          "internalType": "address",
          "name": "vault",
          "type": "address"
        },
        {
          "internalType": "uint256",
          "name": "_totalRewardInEpoch",
          "type": "uint256"
        }
      ],
      "name": "initialize",
      "outputs": [],
      "stateMutability": "nonpayable",
      "type": "function"
    },
    {
      "inputs": [
        {
          "internalType": "address",
          "name": "_tokenAddress",
          "type": "address"
        },
        {
          "internalType": "uint256",
          "name": "_weight",
          "type": "uint256"
        }
      ],
      "name": "addStakableToken",
      "outputs": [],
      "stateMutability": "nonpayable",
      "type": "function"
    },
    {
      "inputs": [
        {
          "internalType": "address",
          "name": "_tokenAddress",
          "type": "address"
        }
      ],
      "name": "removeStakableToken",
      "outputs": [],
      "stateMutability": "nonpayable",
      "type": "function"
    },
    {
      "inputs": [
        {
          "internalType": "uint128",
          "name": "epochId",
          "type": "uint128"
        },
        {
          "internalType": "uint256",
          "name": "_totalRewardInEpoch",
          "type": "uint256"
        }
      ],
      "name": "setTotalRewardInParticularEpoch",
      "outputs": [],
      "stateMutability": "nonpayable",
      "type": "function"
    },
    {
      "inputs": [],
      "name": "massHarvest",
      "outputs": [
        {
          "internalType": "uint256",
          "name": "",
          "type": "uint256"
        }
      ],
      "stateMutability": "nonpayable",
      "type": "function"
    },
    {
      "inputs": [
        {
          "internalType": "uint128",
          "name": "epochId",
          "type": "uint128"
        }
      ],
      "name": "harvest",
      "outputs": [
        {
          "internalType": "uint256",
          "name": "",
          "type": "uint256"
        }
      ],
      "stateMutability": "nonpayable",
      "type": "function"
    },
    {
      "inputs": [
        {
          "internalType": "uint128",
          "name": "epochId",
          "type": "uint128"
        }
      ],
      "name": "getPoolSize",
      "outputs": [
        {
          "internalType": "uint256",
          "name": "",
          "type": "uint256"
        }
      ],
      "stateMutability": "view",
      "type": "function"
    },
    {
      "inputs": [],
      "name": "getCurrentEpoch",
      "outputs": [
        {
          "internalType": "uint256",
          "name": "",
          "type": "uint256"
        }
      ],
      "stateMutability": "view",
      "type": "function"
    },
    {
      "inputs": [
        {
          "internalType": "address",
          "name": "userAddress",
          "type": "address"
        },
        {
          "internalType": "uint128",
          "name": "epochId",
          "type": "uint128"
        }
      ],
      "name": "getEpochStake",
      "outputs": [
        {
          "internalType": "uint256",
          "name": "",
          "type": "uint256"
        }
      ],
      "stateMutability": "view",
      "type": "function"
    },
    {
      "inputs": [],
      "name": "userLastEpochIdHarvested",
      "outputs": [
        {
          "internalType": "uint256",
          "name": "",
          "type": "uint256"
        }
      ],
      "stateMutability": "view",
      "type": "function"
    },
    {
      "inputs": [
        {
          "internalType": "address",
          "name": "user",
          "type": "address"
        }
      ],
      "name": "getTotalAccruedRewards",
      "outputs": [
        {
          "internalType": "uint256",
          "name": "rewards",
          "type": "uint256"
        }
      ],
      "stateMutability": "view",
      "type": "function"
    },
    {
      "inputs": [
        {
          "internalType": "address",
          "name": "user",
          "type": "address"
        },
        {
          "internalType": "address",
          "name": "token",
          "type": "address"
        }
      ],
      "name": "getTotalAccruedRewardsForToken",
      "outputs": [
        {
          "internalType": "uint256",
          "name": "rewards",
          "type": "uint256"
        }
      ],
      "stateMutability": "view",
      "type": "function"
    },
    {
      "inputs": [
        {
          "internalType": "uint128",
          "name": "epochId",
          "type": "uint128"
        }
      ],
      "name": "initEpoch",
      "outputs": [],
      "stateMutability": "nonpayable",
      "type": "function"
    }
  ],
  "bytecode": "0x608060405234801561001057600080fd5b50611ea9806100206000396000f3fe608060405234801561001057600080fd5b50600436106101a95760003560e01c80639c7ec881116100f9578063cf756fdf11610097578063f2fde38b11610071578063f2fde38b14610453578063f7e251f814610479578063f90892211461049f578063fd243da3146104a7576101a9565b8063cf756fdf146103e9578063d1a7c86f14610425578063ee1725461461044b576101a9565b8063a3cd34bf116100d3578063a3cd34bf14610369578063a43564eb14610395578063b97dd9e2146103bb578063c082fbf6146103c3576101a9565b80639c7ec881146103335780639c828f8d1461033b578063a1c130d414610361576101a9565b80633a63213911610166578063715018a611610140578063715018a6146102cf5780638da5cb5b146102d9578063960de59a146102e15780639c44a2431461030d576101a9565b80633a6321391461026c57806343312451146102925780634ff0876a146102c7576101a9565b8063026b5ae5146101ae5780630eee4932146101d257806315e5a1e5146101f65780631861d69114610210578063290e4544146102365780632d6312c51461023e575b600080fd5b6101b66104af565b604080516001600160a01b039092168252519081900360200190f35b6101da6104be565b604080516001600160801b039092168252519081900360200190f35b6101fe6104cd565b60408051918252519081900360200190f35b6101fe6004803603602081101561022657600080fd5b50356001600160a01b03166104d3565b6101fe6104e5565b6101fe6004803603604081101561025457600080fd5b506001600160a01b03813581169160200135166105e7565b6101fe6004803603602081101561028257600080fd5b50356001600160801b0316610766565b6101fe600480360360408110156102a857600080fd5b5080356001600160a01b031690602001356001600160801b0316610778565b6101fe61078b565b6102d7610791565b005b6101b6610833565b6102d7600480360360408110156102f757600080fd5b506001600160801b038135169060200135610842565b6101fe6004803603602081101561032357600080fd5b50356001600160a01b031661094a565b6101da6109f7565b6101b66004803603602081101561035157600080fd5b50356001600160801b0316610a06565b6101fe610a21565b6102d76004803603604081101561037f57600080fd5b506001600160a01b038135169060200135610a3d565b6101fe600480360360208110156103ab57600080fd5b50356001600160801b0316610ba4565b6101fe610cf7565b6102d7600480360360208110156103d957600080fd5b50356001600160801b0316610d0f565b6102d7600480360360808110156103ff57600080fd5b506001600160a01b03813581169160208101358216916040820135169060600135610d88565b6102d76004803603602081101561043b57600080fd5b50356001600160a01b0316610f7d565b6101fe6111dd565b6102d76004803603602081101561046957600080fd5b50356001600160a01b03166111e3565b6101fe6004803603602081101561048f57600080fd5b50356001600160801b03166112dc565b6101b66112e7565b6101b66112f6565b6099546001600160a01b031681565b609b546001600160801b031681565b60a35481565b609a6020526000908152604090205481565b600080600061050660016104f7611305565b6001600160801b031690611344565b33600090815260a160205260408120549192509061052e906001600160801b03166001611386565b90505b81816001600160801b03161161055e5761055461054d826113e0565b8490611386565b9250600101610531565b5033600081815260a160205260409020547fb68dafc1da13dc868096d0b87347c831d0bda92d178317eb1dec7f788444485c906105a59084906001600160801b0316611344565b60408051918252602082018690528051918290030190a281156105e0576098546097546105e0916001600160a01b03908116911633856114a8565b5090505b90565b6001600160a01b038216600090815260a160205260408120548190610616906001600160801b03166001611386565b90506000610622611305565b9050806001600160801b0316826001600160801b0316141561064957600092505050610760565b815b816001600160801b0316816001600160801b0316101561075c5761075261074b61067483611508565b6001600160a01b038089166000818152609a60209081526040918290205460995483516308c028dd60e41b81528f8716600482015260248101959095526001600160801b038a16604486015292516107269561072c956064958895921692638c028dd0928288019290919081900388018186803b1580156106f457600080fd5b505afa158015610708573d6000803e3d6000fd5b505050506040513d602081101561071e57600080fd5b5051906115c6565b9061161f565b6001600160801b0386166000908152609e6020526040902054906115c6565b8590611386565b935060010161064b565b5050505b92915050565b609e6020526000908152604090205481565b60006107848383611661565b9392505050565b60a25481565b610799611727565b6065546001600160a01b039081169116146107e9576040805162461bcd60e51b81526020600482018190526024820152600080516020611dfc833981519152604482015290519081900360640190fd5b6065546040516000916001600160a01b0316907f8be0079c531659141344cd1fd0a4f28419497f9722a3daafe3b4186f6b6457e0908390a3606580546001600160a01b0319169055565b6065546001600160a01b031690565b61084a611727565b6065546001600160a01b0390811691161461089a576040805162461bcd60e51b81526020600482018190526024820152600080516020611dfc833981519152604482015290519081900360640190fd5b6108a2611305565b6001600160801b0316826001600160801b0316116108f15760405162461bcd60e51b815260040180806020018281038252603f815260200180611d76603f913960400191505060405180910390fd5b6001600160801b0382166000818152609e60209081526040918290208490558151928352820183905280517f5a62301af6e750df9188482cb552ac5c28b83822a7363e434cd405e7fd78f0b49281900390910190a15050565b6001600160a01b038116600090815260a160205260408120548190610979906001600160801b03166001611386565b90506000610985611305565b9050806001600160801b0316826001600160801b031614156109ac576000925050506109f2565b815b816001600160801b0316816001600160801b031610156109ee576109e461074b6109d783611508565b61072661072c8986611661565b93506001016109ae565b5050505b919050565b60a0546001600160801b031681565b609c602052600090815260409020546001600160a01b031681565b33600090815260a160205260409020546001600160801b031690565b610a45611727565b6065546001600160a01b03908116911614610a95576040805162461bcd60e51b81526020600482018190526024820152600080516020611dfc833981519152604482015290519081900360640190fd5b6001600160a01b0382166000908152609a602052604090205415610b00576040805162461bcd60e51b815260206004820152601e60248201527f5969656c644661726d3a20546f6b656e20616c72656164792061646465640000604482015290519081900360640190fd5b609b54610b17906001600160801b03166001611386565b609b80546001600160801b0319166001600160801b039283161781556001600160a01b0384166000818152609a6020908152604080832087905593549094168152609c845282902080546001600160a01b031916821790558151848152915190927fe4830ea8fb0c62429239766baf086e1bda8f064b9b311f5ad2ac3254214faec4928290030190a25050565b6000816001600160801b0316610bb8611305565b6001600160801b031611610c13576040805162461bcd60e51b815260206004820152601b60248201527f546869732065706f636820697320696e20746865206675747572650000000000604482015290519081900360640190fd5b33600090815260a160205260409020546001600160801b0380841691610c3b91166001611386565b14610c80576040805162461bcd60e51b815260206004820152601060248201526f2430b93b32b9ba1034b71037b93232b960811b604482015290519081900360640190fd5b6000610c8b836113e0565b90508015610cb157609854609754610cb1916001600160a01b03908116911633846114a8565b6040805182815290516001600160801b0385169133917f04ad45a69eeed9c390c3a678fed2d4b90bde98e742de9936d5e0915bf3d0ea4e9181900360200190a392915050565b6000610d01611305565b6001600160801b0316905090565b806001600160801b0316610d21611305565b6001600160801b031611610d7c576040805162461bcd60e51b815260206004820152601b60248201527f546869732065706f636820697320696e20746865206675747572650000000000604482015290519081900360640190fd5b610d858161172b565b50565b600054610100900460ff1680610da15750610da1611835565b80610daf575060005460ff16155b610dea5760405162461bcd60e51b815260040180806020018281038252602e815260200180611e1c602e913960400191505060405180910390fd5b600054610100900460ff16158015610e15576000805460ff1961ff0019909116610100171660011790555b610e1d61183b565b609880546001600160a01b038088166001600160a01b0319928316179092556001600052609e60209081527f9f327656ac6adb1f47e9c0fa361c6ac2a34ea4898beba4721854970b7061b16d859055609980548885169084161790819055609780548886169416939093179092556040805163f4a4341d60e01b81529051929093169263f4a4341d9260048083019392829003018186803b158015610ec157600080fd5b505afa158015610ed5573d6000803e3d6000fd5b505050506040513d6020811015610eeb57600080fd5b505160a355609954604080516327f843b560e11b815290516001600160a01b0390921691634ff0876a91600480820192602092909190829003018186803b158015610f3557600080fd5b505afa158015610f49573d6000803e3d6000fd5b505050506040513d6020811015610f5f57600080fd5b505160a2558015610f76576000805461ff00191690555b5050505050565b610f85611727565b6065546001600160a01b03908116911614610fd5576040805162461bcd60e51b81526020600482018190526024820152600080516020611dfc833981519152604482015290519081900360640190fd5b6001600160a01b0381166000908152609a602052604090205461103f576040805162461bcd60e51b815260206004820152601d60248201527f5969656c644661726d3a20546f6b656e206973206e6f74206164646564000000604482015290519081900360640190fd5b6001600160a01b0381166000908152609a602052604081205560015b609b546001600160801b03908116908216116110aa576001600160801b0381166000908152609c60205260409020546001600160a01b03838116911614156110a2576110aa565b60010161105b565b805b609b546001600160801b039081169082161161116d57609b546001600160801b0382811691161461113e57609c60006110ef6001600160801b0384166001611386565b6001600160801b03908116825260208083019390935260409182016000908120549185168152609c909352912080546001600160a01b0319166001600160a01b03909216919091179055611165565b6001600160801b0381166000908152609c6020526040902080546001600160a01b03191690555b6001016110ac565b50609b54611185906001600160801b03166001611344565b609b80546001600160801b0319166001600160801b03929092169190911790556040516001600160a01b038316907f4a16fe09798b83650dd513d264f696f314c64a550d06ba1b9d70ec778d3a2a5090600090a25050565b609f5481565b6111eb611727565b6065546001600160a01b0390811691161461123b576040805162461bcd60e51b81526020600482018190526024820152600080516020611dfc833981519152604482015290519081900360640190fd5b6001600160a01b0381166112805760405162461bcd60e51b8152600401808060200182810382526026815260200180611db56026913960400191505060405180910390fd5b6065546040516001600160a01b038084169216907f8be0079c531659141344cd1fd0a4f28419497f9722a3daafe3b4186f6b6457e090600090a3606580546001600160a01b0319166001600160a01b0392909216919091179055565b600061076082611508565b6098546001600160a01b031681565b6097546001600160a01b031681565b600060a354421015611319575060006105e4565b61133f600161133960a25461072660a3544261134490919063ffffffff16565b90611386565b905090565b600061078483836040518060400160405280601e81526020017f536166654d6174683a207375627472616374696f6e206f766572666c6f7700008152506118ec565b600082820183811015610784576040805162461bcd60e51b815260206004820152601b60248201527f536166654d6174683a206164646974696f6e206f766572666c6f770000000000604482015290519081900360640190fd5b60a0546000906001600160801b0380841691161015611402576114028261172b565b33600090815260a16020908152604080832080546001600160801b0319166001600160801b0387169081179091558352609d909152902054611446575060006109f2565b6001600160801b0382166000908152609d602052604081205461148f906107266114703387611661565b6001600160801b0387166000908152609e6020526040902054906115c6565b609f5490915061149f9082611386565b609f5592915050565b604080516001600160a01b0380861660248301528416604482015260648082018490528251808303909101815260849091019091526020810180516001600160e01b03166323b872dd60e01b179052611502908590611983565b50505050565b6000808060015b609b546001600160801b03908116908216116115bd576001600160801b038082166000908152609c60209081526040808320546001600160a01b03908116808552609a84529382902054609954835163165196bf60e11b815260048101879052968c16602488015292519497506115b39561054d956064956107269593949390931692632ca32d7e9260448082019391829003018186803b1580156106f457600080fd5b925060010161150f565b50909392505050565b6000826115d557506000610760565b828202828482816115e257fe5b04146107845760405162461bcd60e51b8152600401808060200182810382526021815260200180611ddb6021913960400191505060405180910390fd5b600061078483836040518060400160405280601a81526020017f536166654d6174683a206469766973696f6e206279207a65726f000000000000815250611b3b565b6000808060015b609b546001600160801b039081169082161161171d576001600160801b038082166000908152609c60209081526040808320546001600160a01b03908116808552609a8452938290205460995483516308c028dd60e41b81528d8416600482015260248101879052968c16604488015292519497506117139561054d956064956107269593949390931692638c028dd092808801929081900388018186803b1580156106f457600080fd5b9250600101611668565b5090949350505050565b3390565b60a0546001600160801b038083169161174691166001611386565b14611798576040805162461bcd60e51b815260206004820152601f60248201527f45706f63682063616e20626520696e6974206f6e6c7920696e206f7264657200604482015290519081900360640190fd5b60a080546001600160801b0319166001600160801b0383169081179091556000908152609e602052604090205461181057609e60006117e16001600160801b0384166001611344565b6001600160801b03908116825260208083019390935260409182016000908120549185168152609e9093529120555b61181981611508565b6001600160801b039091166000908152609d6020526040902055565b303b1590565b600054610100900460ff16806118545750611854611835565b80611862575060005460ff16155b61189d5760405162461bcd60e51b815260040180806020018281038252602e815260200180611e1c602e913960400191505060405180910390fd5b600054610100900460ff161580156118c8576000805460ff1961ff0019909116610100171660011790555b6118d0611ba0565b6118d8611c40565b8015610d85576000805461ff001916905550565b6000818484111561197b5760405162461bcd60e51b81526004018080602001828103825283818151815260200191508051906020019080838360005b83811015611940578181015183820152602001611928565b50505050905090810190601f16801561196d5780820380516001836020036101000a031916815260200191505b509250505060405180910390fd5b505050900390565b611995826001600160a01b0316611d39565b6119e6576040805162461bcd60e51b815260206004820152601f60248201527f5361666545524332303a2063616c6c20746f206e6f6e2d636f6e747261637400604482015290519081900360640190fd5b60006060836001600160a01b0316836040518082805190602001908083835b60208310611a245780518252601f199092019160209182019101611a05565b6001836020036101000a0380198251168184511680821785525050505050509050019150506000604051808303816000865af19150503d8060008114611a86576040519150601f19603f3d011682016040523d82523d6000602084013e611a8b565b606091505b509150915081611ae2576040805162461bcd60e51b815260206004820181905260248201527f5361666545524332303a206c6f772d6c6576656c2063616c6c206661696c6564604482015290519081900360640190fd5b80511561150257808060200190516020811015611afe57600080fd5b50516115025760405162461bcd60e51b815260040180806020018281038252602a815260200180611e4a602a913960400191505060405180910390fd5b60008183611b8a5760405162461bcd60e51b8152602060048201818152835160248401528351909283926044909101919085019080838360008315611940578181015183820152602001611928565b506000838581611b9657fe5b0495945050505050565b600054610100900460ff1680611bb95750611bb9611835565b80611bc7575060005460ff16155b611c025760405162461bcd60e51b815260040180806020018281038252602e815260200180611e1c602e913960400191505060405180910390fd5b600054610100900460ff161580156118d8576000805460ff1961ff0019909116610100171660011790558015610d85576000805461ff001916905550565b600054610100900460ff1680611c595750611c59611835565b80611c67575060005460ff16155b611ca25760405162461bcd60e51b815260040180806020018281038252602e815260200180611e1c602e913960400191505060405180910390fd5b600054610100900460ff16158015611ccd576000805460ff1961ff0019909116610100171660011790555b6000611cd7611727565b606580546001600160a01b0319166001600160a01b038316908117909155604051919250906000907f8be0079c531659141344cd1fd0a4f28419497f9722a3daafe3b4186f6b6457e0908290a3508015610d85576000805461ff001916905550565b6000813f7fc5d2460186f7233c927e7db2dcc703c0e500b653ca82273b7bfad8045d85a470818114801590611d6d57508115155b94935050505056fe5969656c644661726d3a2045706f63682049442073686f756c642062652067726561746572207468616e207468652063757272656e742065706f63682049444f776e61626c653a206e6577206f776e657220697320746865207a65726f2061646472657373536166654d6174683a206d756c7469706c69636174696f6e206f766572666c6f774f776e61626c653a2063616c6c6572206973206e6f7420746865206f776e6572436f6e747261637420696e7374616e63652068617320616c7265616479206265656e20696e697469616c697a65645361666545524332303a204552433230206f7065726174696f6e20646964206e6f742073756363656564a264697066735822122011d84e2c0501c277f563756661b4ae018b57786c07a652d08091c61039eb9fa964736f6c634300060c0033",
  "immutableReferences": {},
  "source": "// Inspired by https://github.com/BarnBridge/BarnBridge-YieldFarming/blob/master/contracts/YieldFarm.sol\n// SPDX-License-Identifier: Apache-2.0\npragma solidity 0.6.12;\n\nimport \"@openzeppelin/contracts-ethereum-package/contracts/math/SafeMath.sol\";\nimport \"@openzeppelin/contracts-ethereum-package/contracts/token/ERC20/IERC20.sol\";\nimport \"@openzeppelin/contracts-ethereum-package/contracts/access/Ownable.sol\";\nimport \"@openzeppelin/contracts-ethereum-package/contracts/token/ERC20/SafeERC20.sol\";\nimport \"./IStakingMilestones.sol\";\n\n\ncontract YieldFarmLP is OwnableUpgradeSafe {\n\n    // lib\n    using SafeMath for uint;\n    using SafeMath for uint128;\n\n    // addreses\n    // contracts\n    address public _vault;\n    IERC20 public _slice;\n    IStakingMilestones public _staking;\n\n    // Stakable token details\n    mapping (address => uint) public weightOfStakableToken;\n    uint128 public noOfStakableTokens;\n    mapping (uint128 => address) public stakableToken;\n\n    // Store total pool size of each epoch\n    mapping (uint128 => uint) private epochs;\n    // Total amount of SLICE tokens to be distributed in that epoch\n    mapping (uint128 => uint) public totalRewardInEpoch;\n    // Total SLICE distributed since epochStart\n    uint public totalRewardsDistributed;\n\n    // id of last init epoch, for optimization purposes moved from struct to a single id.\n    uint128 public lastInitializedEpoch;\n\n    // state of user harvest epoch\n    mapping(address => uint128) private lastEpochIdHarvested;\n    uint public epochDuration; // init from staking contract\n    uint public epochStart; // init from staking contract\n\n    // events\n    event MassHarvest(address indexed user, uint256 epochsHarvested, uint256 totalValue);\n    event Harvest(address indexed user, uint128 indexed epochId, uint256 amount);\n    event StakableTokenAdded(address indexed newTokenAddress, uint256 weight);\n    event StakableTokenRemoved(address indexed tokenAddress);\n    event TotalRewardInEpochUpdated(uint128 epochId, uint totalReward);\n\n    // constructor\n    function initialize(\n        address sliceAddress,\n        address stakeContract,\n        address vault,\n        uint _totalRewardInEpoch\n    ) external initializer {\n        OwnableUpgradeSafe.__Ownable_init();\n        _slice = IERC20(sliceAddress);\n        totalRewardInEpoch[1] = _totalRewardInEpoch;\n        _staking = IStakingMilestones(stakeContract);\n        _vault = vault;\n        epochStart = _staking.epoch1Start();\n        epochDuration = _staking.epochDuration();\n    }\n\n    /** \n     * @dev add a stakable token contract address, along with its weight\n     * @param _tokenAddress contract token address\n     * @param _weight weight of the token in percent for calculating rewards\n     */\n    function addStakableToken(address _tokenAddress, uint _weight) external onlyOwner {\n        require(weightOfStakableToken[_tokenAddress] == 0, \"YieldFarm: Token already added\");\n\n        noOfStakableTokens = uint128(noOfStakableTokens.add(1));\n        weightOfStakableToken[_tokenAddress] = _weight;\n        stakableToken[noOfStakableTokens] = _tokenAddress;\n        \n        emit StakableTokenAdded(_tokenAddress, _weight);\n    }\n\n    /** \n     * @dev remove a stakable token contract address, along with its weight\n     * @param _tokenAddress contract token address\n     */\n    function removeStakableToken(address _tokenAddress) external onlyOwner {\n        require(weightOfStakableToken[_tokenAddress] > 0, \"YieldFarm: Token is not added\");\n\n        delete weightOfStakableToken[_tokenAddress];\n\n        uint128 i;\n\n        for (i = 1; i <= noOfStakableTokens; i++) {\n            if (stakableToken[i] == _tokenAddress) break;\n        }\n\n        for (uint128 j = i; j <= noOfStakableTokens; j++) {\n            if (j != noOfStakableTokens) {\n                stakableToken[j] = stakableToken[uint128(j.add(1))];\n            } else {\n                stakableToken[j] = address(0);\n            }\n        }\n\n        noOfStakableTokens = uint128(noOfStakableTokens.sub(1));\n        \n        emit StakableTokenRemoved(_tokenAddress);\n    }\n\n    function setTotalRewardInParticularEpoch(uint128 epochId, uint _totalRewardInEpoch) external onlyOwner {\n        require(epochId > _getEpochId(), \"YieldFarm: Epoch ID should be greater than the current epoch ID\");\n        \n        totalRewardInEpoch[epochId] = _totalRewardInEpoch;\n        \n        emit TotalRewardInEpochUpdated(epochId, _totalRewardInEpoch);\n    }\n\n    // public methods\n    // public method to harvest all the unharvested epochs until current epoch - 1\n    function massHarvest() external returns (uint){\n        uint totalDistributedValue;\n        uint epochId = _getEpochId().sub(1); // fails in epoch 0\n\n        for (uint128 i = uint128(lastEpochIdHarvested[msg.sender].add(1)); i <= epochId; i++) {\n            // i = epochId\n            // compute distributed Value and do one single transfer at the end\n            totalDistributedValue = totalDistributedValue.add(_harvest(i));\n        }\n\n        emit MassHarvest(msg.sender, epochId.sub(lastEpochIdHarvested[msg.sender]), totalDistributedValue);\n\n        if (totalDistributedValue > 0) {\n            SafeERC20.safeTransferFrom(_slice, _vault, msg.sender, totalDistributedValue);\n        }\n\n        return totalDistributedValue;\n    }\n\n    function harvest (uint128 epochId) external returns (uint){\n        // checks for requested epoch\n        require (_getEpochId() > epochId, \"This epoch is in the future\");\n        require (lastEpochIdHarvested[msg.sender].add(1) == epochId, \"Harvest in order\");\n        uint userReward = _harvest(epochId);\n        if (userReward > 0) {\n            SafeERC20.safeTransferFrom(_slice, _vault, msg.sender, userReward);\n        }\n        emit Harvest(msg.sender, epochId, userReward);\n        return userReward;\n    }\n\n    // views\n    // calls to the staking smart contract to retrieve the epoch total pool size\n    function getPoolSize(uint128 epochId) external view returns (uint) {\n        return _getPoolSize(epochId);\n    }\n\n    function getCurrentEpoch() external view returns (uint) {\n        return _getEpochId();\n    }\n\n    // calls to the staking smart contract to retrieve user balance for an epoch\n    function getEpochStake(address userAddress, uint128 epochId) external view returns (uint) {\n        return _getUserBalancePerEpoch(userAddress, epochId);\n    }\n\n    function userLastEpochIdHarvested() external view returns (uint){\n        return lastEpochIdHarvested[msg.sender];\n    }\n\n    function getTotalAccruedRewards(address user) external view returns (uint rewards) {\n        uint128 firstRewardableEpoch = uint128(lastEpochIdHarvested[user].add(1));\n        uint128 currentEpoch = _getEpochId();\n\n        if (firstRewardableEpoch == currentEpoch) return 0;\n\n        for (uint128 i = firstRewardableEpoch; i < currentEpoch; i++) {\n            rewards = rewards.add(totalRewardInEpoch[i]\n                .mul(_getUserBalancePerEpoch(user, i))\n                .div(_getPoolSize(i)));\n        }\n    }\n\n    function getTotalAccruedRewardsForToken(address user, address token) external view returns (uint rewards) {\n        uint128 firstRewardableEpoch = uint128(lastEpochIdHarvested[user].add(1));\n        uint128 currentEpoch = _getEpochId();\n\n        if (firstRewardableEpoch == currentEpoch) return 0;\n\n        for (uint128 i = firstRewardableEpoch; i < currentEpoch; i++) {\n            rewards = rewards.add(totalRewardInEpoch[i]\n                .mul(((_staking.getEpochUserBalance(user, token, i)).mul(weightOfStakableToken[token])).div(100))\n                .div(_getPoolSize(i)));\n        }\n    }\n\n    function initEpoch(uint128 epochId) external {\n        require(_getEpochId() > epochId, \"This epoch is in the future\");\n        _initEpoch(epochId);\n    }\n\n    // internal methods\n\n    function _initEpoch(uint128 epochId) internal {\n        require(lastInitializedEpoch.add(1) == epochId, \"Epoch can be init only in order\");\n        lastInitializedEpoch = epochId;\n\n        if ( totalRewardInEpoch[epochId] == 0) {\n            totalRewardInEpoch[epochId] = totalRewardInEpoch[uint128(epochId.sub(1))];\n        }\n        // call the staking smart contract to init the epoch\n        epochs[epochId] = _getPoolSize(epochId);\n    }\n\n    function _harvest (uint128 epochId) internal returns (uint) {\n        // try to initialize an epoch. if it can't it fails\n        // if it fails either user either a BarnBridge account will init not init epochs\n        if (lastInitializedEpoch < epochId) {\n            _initEpoch(epochId);\n        }\n        // Set user last harvested epoch\n        lastEpochIdHarvested[msg.sender] = epochId;\n        // compute and return user total reward. For optimization reasons the transfer have been moved to an upper layer (i.e. massHarvest needs to do a single transfer)\n\n        // exit if there is no stake on the epoch\n        if (epochs[epochId] == 0) {\n            return 0;\n        }\n\n        uint reward = totalRewardInEpoch[epochId]\n            .mul(_getUserBalancePerEpoch(msg.sender, epochId))\n            .div(epochs[epochId]);\n\n        totalRewardsDistributed = totalRewardsDistributed.add(reward);\n\n        return reward;\n    }\n\n    function _getPoolSize(uint128 epochId) internal view returns (uint) {\n        // retrieve normalised stable coins total staked in epoch\n        uint size;\n        address token;\n        for (uint128 i = 1; i <= noOfStakableTokens; i++) {\n            token = stakableToken[i];\n            size = size.add(((_staking.getEpochPoolSize(token, epochId)).mul(weightOfStakableToken[token])).div(100));\n        }\n\n        return size;\n    }\n\n    function _getUserBalancePerEpoch(address userAddress, uint128 epochId) internal view returns (uint){\n        // retrieve normalised stable coins total staked per user in epoch\n        uint balance;\n        address token;\n        for (uint128 i = 1; i <= noOfStakableTokens; i++) {\n            token = stakableToken[i];\n            balance = balance.add(((_staking.getEpochUserBalance(userAddress, token, epochId)).mul(weightOfStakableToken[token])).div(100));\n        }\n\n        return balance;\n    }\n\n    // compute epoch id from blocktimestamp and epochstart date\n    function _getEpochId() internal view returns (uint128 epochId) {\n        if (block.timestamp < epochStart) {\n            return 0;\n        }\n        epochId = uint128(block.timestamp.sub(epochStart).div(epochDuration).add(1));\n    }\n}\n",
  "sourcePath": "/Users/ttabbaa/Documents/Tranche-Contracts/staking-protocol/contracts/StakingMilestones/YieldFarmLP.sol",
  "compiler": {
    "name": "solc",
    "version": "0.6.12+commit.27d51765.Emscripten.clang"
  },
  "schemaVersion": "3.3.2",
  "updatedAt": "2021-03-18T09:02:11.052Z",
  "devdoc": {
    "kind": "dev",
    "methods": {
      "addStakableToken(address,uint256)": {
        "details": "add a stakable token contract address, along with its weight",
        "params": {
          "_tokenAddress": "contract token address",
          "_weight": "weight of the token in percent for calculating rewards"
        }
      },
      "owner()": {
        "details": "Returns the address of the current owner."
      },
      "removeStakableToken(address)": {
        "details": "remove a stakable token contract address, along with its weight",
        "params": {
          "_tokenAddress": "contract token address"
        }
      },
      "renounceOwnership()": {
        "details": "Leaves the contract without owner. It will not be possible to call `onlyOwner` functions anymore. Can only be called by the current owner. NOTE: Renouncing ownership will leave the contract without an owner, thereby removing any functionality that is only available to the owner."
      },
      "transferOwnership(address)": {
        "details": "Transfers ownership of the contract to a new account (`newOwner`). Can only be called by the current owner."
      }
    },
    "version": 1
  },
  "userdoc": {
    "kind": "user",
    "methods": {},
    "version": 1
  }
}