{
  "contractName": "YieldFarm",
  "abi": [
    {
      "anonymous": false,
      "inputs": [
        {
          "indexed": true,
          "internalType": "address",
          "name": "user",
          "type": "address"
        },
        {
          "indexed": true,
          "internalType": "uint128",
          "name": "epochId",
          "type": "uint128"
        },
        {
          "indexed": false,
          "internalType": "uint256",
          "name": "amount",
          "type": "uint256"
        }
      ],
      "name": "Harvest",
      "type": "event"
    },
    {
      "anonymous": false,
      "inputs": [
        {
          "indexed": true,
          "internalType": "address",
          "name": "user",
          "type": "address"
        },
        {
          "indexed": false,
          "internalType": "uint256",
          "name": "epochsHarvested",
          "type": "uint256"
        },
        {
          "indexed": false,
          "internalType": "uint256",
          "name": "totalValue",
          "type": "uint256"
        }
      ],
      "name": "MassHarvest",
      "type": "event"
    },
    {
      "anonymous": false,
      "inputs": [
        {
          "indexed": true,
          "internalType": "address",
          "name": "previousOwner",
          "type": "address"
        },
        {
          "indexed": true,
          "internalType": "address",
          "name": "newOwner",
          "type": "address"
        }
      ],
      "name": "OwnershipTransferred",
      "type": "event"
    },
    {
      "anonymous": false,
      "inputs": [
        {
          "indexed": false,
          "internalType": "uint128",
          "name": "epochId",
          "type": "uint128"
        },
        {
          "indexed": false,
          "internalType": "uint256",
          "name": "totalReward",
          "type": "uint256"
        }
      ],
      "name": "TotalRewardInEpochUpdated",
      "type": "event"
    },
    {
      "inputs": [],
      "name": "_slice",
      "outputs": [
        {
          "internalType": "contract IERC20",
          "name": "",
          "type": "address"
        }
      ],
      "stateMutability": "view",
      "type": "function",
      "constant": true
    },
    {
      "inputs": [],
      "name": "_stakableToken",
      "outputs": [
        {
          "internalType": "contract IERC20",
          "name": "",
          "type": "address"
        }
      ],
      "stateMutability": "view",
      "type": "function",
      "constant": true
    },
    {
      "inputs": [],
      "name": "_staking",
      "outputs": [
        {
          "internalType": "contract IStakingMilestones",
          "name": "",
          "type": "address"
        }
      ],
      "stateMutability": "view",
      "type": "function",
      "constant": true
    },
    {
      "inputs": [],
      "name": "_vault",
      "outputs": [
        {
          "internalType": "address",
          "name": "",
          "type": "address"
        }
      ],
      "stateMutability": "view",
      "type": "function",
      "constant": true
    },
    {
      "inputs": [],
      "name": "epochDuration",
      "outputs": [
        {
          "internalType": "uint256",
          "name": "",
          "type": "uint256"
        }
      ],
      "stateMutability": "view",
      "type": "function",
      "constant": true
    },
    {
      "inputs": [],
      "name": "epochStart",
      "outputs": [
        {
          "internalType": "uint256",
          "name": "",
          "type": "uint256"
        }
      ],
      "stateMutability": "view",
      "type": "function",
      "constant": true
    },
    {
      "inputs": [],
      "name": "lastInitializedEpoch",
      "outputs": [
        {
          "internalType": "uint128",
          "name": "",
          "type": "uint128"
        }
      ],
      "stateMutability": "view",
      "type": "function",
      "constant": true
    },
    {
      "inputs": [],
      "name": "owner",
      "outputs": [
        {
          "internalType": "address",
          "name": "",
          "type": "address"
        }
      ],
      "stateMutability": "view",
      "type": "function",
      "constant": true
    },
    {
      "inputs": [],
      "name": "renounceOwnership",
      "outputs": [],
      "stateMutability": "nonpayable",
      "type": "function"
    },
    {
      "inputs": [
        {
          "internalType": "uint128",
          "name": "",
          "type": "uint128"
        }
      ],
      "name": "totalRewardInEpoch",
      "outputs": [
        {
          "internalType": "uint256",
          "name": "",
          "type": "uint256"
        }
      ],
      "stateMutability": "view",
      "type": "function",
      "constant": true
    },
    {
      "inputs": [],
      "name": "totalRewardsDistributed",
      "outputs": [
        {
          "internalType": "uint256",
          "name": "",
          "type": "uint256"
        }
      ],
      "stateMutability": "view",
      "type": "function",
      "constant": true
    },
    {
      "inputs": [
        {
          "internalType": "address",
          "name": "newOwner",
          "type": "address"
        }
      ],
      "name": "transferOwnership",
      "outputs": [],
      "stateMutability": "nonpayable",
      "type": "function"
    },
    {
      "inputs": [
        {
          "internalType": "address",
          "name": "sliceAddress",
          "type": "address"
        },
        {
          "internalType": "address",
          "name": "stakeContract",
          "type": "address"
        },
        {
          "internalType": "address",
          "name": "stakableToken",
          "type": "address"
        },
        {
          "internalType": "address",
          "name": "vault",
          "type": "address"
        },
        {
          "internalType": "uint256",
          "name": "_totalRewardInEpoch",
          "type": "uint256"
        }
      ],
      "name": "initialize",
      "outputs": [],
      "stateMutability": "nonpayable",
      "type": "function"
    },
    {
      "inputs": [
        {
          "internalType": "uint128",
          "name": "epochId",
          "type": "uint128"
        },
        {
          "internalType": "uint256",
          "name": "_totalRewardInEpoch",
          "type": "uint256"
        }
      ],
      "name": "setTotalRewardInParticularEpoch",
      "outputs": [],
      "stateMutability": "nonpayable",
      "type": "function"
    },
    {
      "inputs": [],
      "name": "massHarvest",
      "outputs": [
        {
          "internalType": "uint256",
          "name": "",
          "type": "uint256"
        }
      ],
      "stateMutability": "nonpayable",
      "type": "function"
    },
    {
      "inputs": [
        {
          "internalType": "uint128",
          "name": "epochId",
          "type": "uint128"
        }
      ],
      "name": "harvest",
      "outputs": [
        {
          "internalType": "uint256",
          "name": "",
          "type": "uint256"
        }
      ],
      "stateMutability": "nonpayable",
      "type": "function"
    },
    {
      "inputs": [
        {
          "internalType": "uint128",
          "name": "epochId",
          "type": "uint128"
        }
      ],
      "name": "getPoolSize",
      "outputs": [
        {
          "internalType": "uint256",
          "name": "",
          "type": "uint256"
        }
      ],
      "stateMutability": "view",
      "type": "function",
      "constant": true
    },
    {
      "inputs": [],
      "name": "getCurrentEpoch",
      "outputs": [
        {
          "internalType": "uint256",
          "name": "",
          "type": "uint256"
        }
      ],
      "stateMutability": "view",
      "type": "function",
      "constant": true
    },
    {
      "inputs": [
        {
          "internalType": "address",
          "name": "userAddress",
          "type": "address"
        },
        {
          "internalType": "uint128",
          "name": "epochId",
          "type": "uint128"
        }
      ],
      "name": "getEpochStake",
      "outputs": [
        {
          "internalType": "uint256",
          "name": "",
          "type": "uint256"
        }
      ],
      "stateMutability": "view",
      "type": "function",
      "constant": true
    },
    {
      "inputs": [],
      "name": "userLastEpochIdHarvested",
      "outputs": [
        {
          "internalType": "uint256",
          "name": "",
          "type": "uint256"
        }
      ],
      "stateMutability": "view",
      "type": "function",
      "constant": true
    },
    {
      "inputs": [
        {
          "internalType": "address",
          "name": "user",
          "type": "address"
        }
      ],
      "name": "getTotalAccruedRewards",
      "outputs": [
        {
          "internalType": "uint256",
          "name": "rewards",
          "type": "uint256"
        }
      ],
      "stateMutability": "view",
      "type": "function",
      "constant": true
    },
    {
      "inputs": [
        {
          "internalType": "uint128",
          "name": "epochId",
          "type": "uint128"
        }
      ],
      "name": "initEpoch",
      "outputs": [],
      "stateMutability": "nonpayable",
      "type": "function"
    }
  ],
  "bytecode": "0x608060405234801561001057600080fd5b5061180d806100206000396000f3fe608060405234801561001057600080fd5b50600436106101425760003560e01c80639c7ec881116100b8578063ee1725461161007c578063ee172546146102dc578063f2fde38b146102e4578063f7013ef61461030a578063f7e251f814610350578063f908922114610376578063fd243da31461037e57610142565b80639c7ec8811461025c578063a1c130d414610280578063a43564eb14610288578063b97dd9e2146102ae578063c082fbf6146102b657610142565b80634db26d2a1161010a5780634db26d2a146101e85780634ff0876a146101f0578063715018a6146101f85780638da5cb5b14610202578063960de59a1461020a5780639c44a2431461023657610142565b8063026b5ae51461014757806315e5a1e51461016b578063290e4544146101855780633a6321391461018d57806343312451146101b3575b600080fd5b61014f610386565b604080516001600160a01b039092168252519081900360200190f35b610173610395565b60408051918252519081900360200190f35b61017361039b565b610173600480360360208110156101a357600080fd5b50356001600160801b031661049d565b610173600480360360408110156101c957600080fd5b5080356001600160a01b031690602001356001600160801b03166104af565b61014f6104c4565b6101736104d3565b6102006104d9565b005b61014f61058d565b6102006004803603604081101561022057600080fd5b506001600160801b03813516906020013561059c565b6101736004803603602081101561024c57600080fd5b50356001600160a01b03166106b6565b61026461078f565b604080516001600160801b039092168252519081900360200190f35b61017361079e565b6101736004803603602081101561029e57600080fd5b50356001600160801b03166107ba565b61017361090d565b610200600480360360208110156102cc57600080fd5b50356001600160801b0316610925565b61017361099e565b610200600480360360208110156102fa57600080fd5b50356001600160a01b03166109a4565b610200600480360360a081101561032057600080fd5b506001600160a01b0381358116916020810135821691604082013581169160608101359091169060800135610aaf565b6101736004803603602081101561036657600080fd5b50356001600160801b0316610cb1565b61014f610cbc565b61014f610ccb565b609a546001600160a01b031681565b60a15481565b60008060006103bc60016103ad610cda565b6001600160801b031690610d19565b336000908152609f6020526040812054919250906103e4906001600160801b03166001610d5b565b90505b81816001600160801b0316116104145761040a61040382610db5565b8490610d5b565b92506001016103e7565b50336000818152609f60205260409020547fb68dafc1da13dc868096d0b87347c831d0bda92d178317eb1dec7f788444485c9061045b9084906001600160801b0316610d19565b60408051918252602082018690528051918290030190a2811561049657609854609754610496916001600160a01b0390811691163385610e7d565b5090505b90565b609c6020526000908152604090205481565b60006104bb8383610edd565b90505b92915050565b6099546001600160a01b031681565b60a05481565b6104e1610f7b565b6065546001600160a01b03908116911614610543576040805162461bcd60e51b815260206004820181905260248201527f4f776e61626c653a2063616c6c6572206973206e6f7420746865206f776e6572604482015290519081900360640190fd5b6065546040516000916001600160a01b0316907f8be0079c531659141344cd1fd0a4f28419497f9722a3daafe3b4186f6b6457e0908390a3606580546001600160a01b0319169055565b6065546001600160a01b031690565b6105a4610f7b565b6065546001600160a01b03908116911614610606576040805162461bcd60e51b815260206004820181905260248201527f4f776e61626c653a2063616c6c6572206973206e6f7420746865206f776e6572604482015290519081900360640190fd5b61060e610cda565b6001600160801b0316826001600160801b03161161065d5760405162461bcd60e51b815260040180806020018281038252603f8152602001806116fa603f913960400191505060405180910390fd5b6001600160801b0382166000818152609c60209081526040918290208490558151928352820183905280517f5a62301af6e750df9188482cb552ac5c28b83822a7363e434cd405e7fd78f0b49281900390910190a15050565b6001600160a01b0381166000908152609f602052604081205481906106e5906001600160801b03166001610d5b565b905060006106f1610cda565b9050806001600160801b0316826001600160801b031614156107185760009250505061078a565b815b816001600160801b0316816001600160801b031610156107865761077c61077561074383610f7f565b61076f6107508986610edd565b6001600160801b0386166000908152609c602052604090205490611014565b9061106d565b8590610d5b565b935060010161071a565b5050505b919050565b609e546001600160801b031681565b336000908152609f60205260409020546001600160801b031690565b6000816001600160801b03166107ce610cda565b6001600160801b031611610829576040805162461bcd60e51b815260206004820152601b60248201527f546869732065706f636820697320696e20746865206675747572650000000000604482015290519081900360640190fd5b336000908152609f60205260409020546001600160801b038084169161085191166001610d5b565b14610896576040805162461bcd60e51b815260206004820152601060248201526f2430b93b32b9ba1034b71037b93232b960811b604482015290519081900360640190fd5b60006108a183610db5565b905080156108c7576098546097546108c7916001600160a01b0390811691163384610e7d565b6040805182815290516001600160801b0385169133917f04ad45a69eeed9c390c3a678fed2d4b90bde98e742de9936d5e0915bf3d0ea4e9181900360200190a392915050565b6000610917610cda565b6001600160801b0316905090565b806001600160801b0316610937610cda565b6001600160801b031611610992576040805162461bcd60e51b815260206004820152601b60248201527f546869732065706f636820697320696e20746865206675747572650000000000604482015290519081900360640190fd5b61099b816110af565b50565b609d5481565b6109ac610f7b565b6065546001600160a01b03908116911614610a0e576040805162461bcd60e51b815260206004820181905260248201527f4f776e61626c653a2063616c6c6572206973206e6f7420746865206f776e6572604482015290519081900360640190fd5b6001600160a01b038116610a535760405162461bcd60e51b81526004018080602001828103825260268152602001806117396026913960400191505060405180910390fd5b6065546040516001600160a01b038084169216907f8be0079c531659141344cd1fd0a4f28419497f9722a3daafe3b4186f6b6457e090600090a3606580546001600160a01b0319166001600160a01b0392909216919091179055565b600054610100900460ff1680610ac85750610ac86111b9565b80610ad6575060005460ff16155b610b115760405162461bcd60e51b815260040180806020018281038252602e815260200180611780602e913960400191505060405180910390fd5b600054610100900460ff16158015610b3c576000805460ff1961ff0019909116610100171660011790555b610b446111bf565b609880546001600160a01b03199081166001600160a01b03898116919091179092556099805482168784161790556001600052609c60209081527f759fbb3c7535ea6cd791a268d7e54d5bf43408007315741bf51b70650b77f6a5859055609a80548316898516179081905560978054909316878516179092556040805163f4a4341d60e01b81529051929093169263f4a4341d9260048083019392829003018186803b158015610bf457600080fd5b505afa158015610c08573d6000803e3d6000fd5b505050506040513d6020811015610c1e57600080fd5b505160a155609a54604080516327f843b560e11b815290516001600160a01b0390921691634ff0876a91600480820192602092909190829003018186803b158015610c6857600080fd5b505afa158015610c7c573d6000803e3d6000fd5b505050506040513d6020811015610c9257600080fd5b505160a0558015610ca9576000805461ff00191690555b505050505050565b60006104be82610f7f565b6098546001600160a01b031681565b6097546001600160a01b031681565b600060a154421015610cee5750600061049a565b610d146001610d0e60a05461076f60a15442610d1990919063ffffffff16565b90610d5b565b905090565b60006104bb83836040518060400160405280601e81526020017f536166654d6174683a207375627472616374696f6e206f766572666c6f770000815250611270565b6000828201838110156104bb576040805162461bcd60e51b815260206004820152601b60248201527f536166654d6174683a206164646974696f6e206f766572666c6f770000000000604482015290519081900360640190fd5b609e546000906001600160801b0380841691161015610dd757610dd7826110af565b336000908152609f6020908152604080832080546001600160801b0319166001600160801b0387169081179091558352609b909152902054610e1b5750600061078a565b6001600160801b0382166000908152609b6020526040812054610e649061076f610e453387610edd565b6001600160801b0387166000908152609c602052604090205490611014565b609d54909150610e749082610d5b565b609d5592915050565b604080516001600160a01b0380861660248301528416604482015260648082018490528251808303909101815260849091019091526020810180516001600160e01b03166323b872dd60e01b179052610ed7908590611307565b50505050565b609a54609954604080516308c028dd60e41b81526001600160a01b03868116600483015292831660248201526001600160801b038516604482015290516000939290921691638c028dd091606480820192602092909190829003018186803b158015610f4857600080fd5b505afa158015610f5c573d6000803e3d6000fd5b505050506040513d6020811015610f7257600080fd5b50519392505050565b3390565b609a546099546040805163165196bf60e11b81526001600160a01b0392831660048201526001600160801b038516602482015290516000939290921691632ca32d7e91604480820192602092909190829003018186803b158015610fe257600080fd5b505afa158015610ff6573d6000803e3d6000fd5b505050506040513d602081101561100c57600080fd5b505192915050565b600082611023575060006104be565b8282028284828161103057fe5b04146104bb5760405162461bcd60e51b815260040180806020018281038252602181526020018061175f6021913960400191505060405180910390fd5b60006104bb83836040518060400160405280601a81526020017f536166654d6174683a206469766973696f6e206279207a65726f0000000000008152506114bf565b609e546001600160801b03808316916110ca91166001610d5b565b1461111c576040805162461bcd60e51b815260206004820152601f60248201527f45706f63682063616e20626520696e6974206f6e6c7920696e206f7264657200604482015290519081900360640190fd5b609e80546001600160801b0319166001600160801b0383169081179091556000908152609c602052604090205461119457609c60006111656001600160801b0384166001610d19565b6001600160801b03908116825260208083019390935260409182016000908120549185168152609c9093529120555b61119d81610f7f565b6001600160801b039091166000908152609b6020526040902055565b303b1590565b600054610100900460ff16806111d857506111d86111b9565b806111e6575060005460ff16155b6112215760405162461bcd60e51b815260040180806020018281038252602e815260200180611780602e913960400191505060405180910390fd5b600054610100900460ff1615801561124c576000805460ff1961ff0019909116610100171660011790555b611254611524565b61125c6115c4565b801561099b576000805461ff001916905550565b600081848411156112ff5760405162461bcd60e51b81526004018080602001828103825283818151815260200191508051906020019080838360005b838110156112c45781810151838201526020016112ac565b50505050905090810190601f1680156112f15780820380516001836020036101000a031916815260200191505b509250505060405180910390fd5b505050900390565b611319826001600160a01b03166116bd565b61136a576040805162461bcd60e51b815260206004820152601f60248201527f5361666545524332303a2063616c6c20746f206e6f6e2d636f6e747261637400604482015290519081900360640190fd5b60006060836001600160a01b0316836040518082805190602001908083835b602083106113a85780518252601f199092019160209182019101611389565b6001836020036101000a0380198251168184511680821785525050505050509050019150506000604051808303816000865af19150503d806000811461140a576040519150601f19603f3d011682016040523d82523d6000602084013e61140f565b606091505b509150915081611466576040805162461bcd60e51b815260206004820181905260248201527f5361666545524332303a206c6f772d6c6576656c2063616c6c206661696c6564604482015290519081900360640190fd5b805115610ed75780806020019051602081101561148257600080fd5b5051610ed75760405162461bcd60e51b815260040180806020018281038252602a8152602001806117ae602a913960400191505060405180910390fd5b6000818361150e5760405162461bcd60e51b81526020600482018181528351602484015283519092839260449091019190850190808383600083156112c45781810151838201526020016112ac565b50600083858161151a57fe5b0495945050505050565b600054610100900460ff168061153d575061153d6111b9565b8061154b575060005460ff16155b6115865760405162461bcd60e51b815260040180806020018281038252602e815260200180611780602e913960400191505060405180910390fd5b600054610100900460ff1615801561125c576000805460ff1961ff001990911661010017166001179055801561099b576000805461ff001916905550565b600054610100900460ff16806115dd57506115dd6111b9565b806115eb575060005460ff16155b6116265760405162461bcd60e51b815260040180806020018281038252602e815260200180611780602e913960400191505060405180910390fd5b600054610100900460ff16158015611651576000805460ff1961ff0019909116610100171660011790555b600061165b610f7b565b606580546001600160a01b0319166001600160a01b038316908117909155604051919250906000907f8be0079c531659141344cd1fd0a4f28419497f9722a3daafe3b4186f6b6457e0908290a350801561099b576000805461ff001916905550565b6000813f7fc5d2460186f7233c927e7db2dcc703c0e500b653ca82273b7bfad8045d85a4708181148015906116f157508115155b94935050505056fe5969656c644661726d3a2045706f63682049442073686f756c642062652067726561746572207468616e207468652063757272656e742065706f63682049444f776e61626c653a206e6577206f776e657220697320746865207a65726f2061646472657373536166654d6174683a206d756c7469706c69636174696f6e206f766572666c6f77436f6e747261637420696e7374616e63652068617320616c7265616479206265656e20696e697469616c697a65645361666545524332303a204552433230206f7065726174696f6e20646964206e6f742073756363656564a264697066735822122008f6291e8f115ae3cfcee550d64740ed5bf9f9ca67161c92dd892617ff1cb9be64736f6c634300060c0033",
  "immutableReferences": {},
  "source": "// Inspired by https://github.com/BarnBridge/BarnBridge-YieldFarming/blob/master/contracts/YieldFarm.sol\n// SPDX-License-Identifier: Apache-2.0\npragma solidity 0.6.12;\n\nimport \"@openzeppelin/contracts-ethereum-package/contracts/math/SafeMath.sol\";\nimport \"@openzeppelin/contracts-ethereum-package/contracts/token/ERC20/IERC20.sol\";\nimport \"@openzeppelin/contracts-ethereum-package/contracts/access/Ownable.sol\";\nimport \"@openzeppelin/contracts-ethereum-package/contracts/token/ERC20/SafeERC20.sol\";\nimport \"./IStakingMilestones.sol\";\n\n\ncontract YieldFarm is OwnableUpgradeSafe {\n\n    // lib\n    using SafeMath for uint;\n    using SafeMath for uint128;\n\n    // addreses\n    // contracts\n    address public _vault;\n    IERC20 public _slice;\n    IERC20 public _stakableToken;\n    IStakingMilestones public _staking;\n\n    // Store total pool size of each epoch\n    mapping (uint128 => uint) private epochs;\n    // Total amount of SLICE tokens to be distributed in that epoch\n    mapping (uint128 => uint) public totalRewardInEpoch;\n    // Total SLICE distributed since epochStart\n    uint public totalRewardsDistributed;\n\n    // id of last init epoch, for optimization purposes moved from struct to a single id.\n    uint128 public lastInitializedEpoch;\n\n    // state of user harvest epoch\n    mapping(address => uint128) private lastEpochIdHarvested;\n    uint public epochDuration; // init from staking contract\n    uint public epochStart; // init from staking contract\n\n    // events\n    event MassHarvest(address indexed user, uint256 epochsHarvested, uint256 totalValue);\n    event Harvest(address indexed user, uint128 indexed epochId, uint256 amount);\n    event TotalRewardInEpochUpdated(uint128 epochId, uint totalReward);\n\n    // constructor\n    function initialize(\n        address sliceAddress,\n        address stakeContract,\n        address stakableToken,\n        address vault,\n        uint _totalRewardInEpoch\n    ) external initializer {\n        OwnableUpgradeSafe.__Ownable_init();\n        _slice = IERC20(sliceAddress);\n        _stakableToken = IERC20(stakableToken);\n        totalRewardInEpoch[1] = _totalRewardInEpoch;\n        _staking = IStakingMilestones(stakeContract);\n        _vault = vault;\n        epochStart = _staking.epoch1Start();\n        epochDuration = _staking.epochDuration();\n    }\n\n    function setTotalRewardInParticularEpoch(uint128 epochId, uint _totalRewardInEpoch) external onlyOwner {\n        require(epochId > _getEpochId(), \"YieldFarm: Epoch ID should be greater than the current epoch ID\");\n        \n        totalRewardInEpoch[epochId] = _totalRewardInEpoch;\n        \n        emit TotalRewardInEpochUpdated(epochId, _totalRewardInEpoch);\n    }\n\n    // public methods\n    // public method to harvest all the unharvested epochs until current epoch - 1\n    function massHarvest() external returns (uint){\n        uint totalDistributedValue;\n        uint epochId = _getEpochId().sub(1); // fails in epoch 0\n\n        for (uint128 i = uint128(lastEpochIdHarvested[msg.sender].add(1)); i <= epochId; i++) {\n            // i = epochId\n            // compute distributed Value and do one single transfer at the end\n            totalDistributedValue = totalDistributedValue.add(_harvest(i));\n        }\n\n        emit MassHarvest(msg.sender, epochId.sub(lastEpochIdHarvested[msg.sender]), totalDistributedValue);\n\n        if (totalDistributedValue > 0) {\n            SafeERC20.safeTransferFrom(_slice, _vault, msg.sender, totalDistributedValue);\n        }\n\n        return totalDistributedValue;\n    }\n\n    function harvest (uint128 epochId) external returns (uint){\n        // checks for requested epoch\n        require (_getEpochId() > epochId, \"This epoch is in the future\");\n        require (lastEpochIdHarvested[msg.sender].add(1) == epochId, \"Harvest in order\");\n        uint userReward = _harvest(epochId);\n        if (userReward > 0) {\n            SafeERC20.safeTransferFrom(_slice, _vault, msg.sender, userReward);\n        }\n        emit Harvest(msg.sender, epochId, userReward);\n        return userReward;\n    }\n\n    // views\n    // calls to the staking smart contract to retrieve the epoch total pool size\n    function getPoolSize(uint128 epochId) external view returns (uint) {\n        return _getPoolSize(epochId);\n    }\n\n    function getCurrentEpoch() external view returns (uint) {\n        return _getEpochId();\n    }\n\n    // calls to the staking smart contract to retrieve user balance for an epoch\n    function getEpochStake(address userAddress, uint128 epochId) external view returns (uint) {\n        return _getUserBalancePerEpoch(userAddress, epochId);\n    }\n\n    function userLastEpochIdHarvested() external view returns (uint){\n        return lastEpochIdHarvested[msg.sender];\n    }\n\n    function getTotalAccruedRewards(address user) external view returns (uint rewards) {\n        uint128 firstRewardableEpoch = uint128(lastEpochIdHarvested[user].add(1));\n        uint128 currentEpoch = _getEpochId();\n\n        if (firstRewardableEpoch == currentEpoch) return 0;\n\n        for (uint128 i = firstRewardableEpoch; i < currentEpoch; i++) {\n            rewards = rewards.add(totalRewardInEpoch[i]\n                .mul(_getUserBalancePerEpoch(user, i))\n                .div(_getPoolSize(i)));\n        }\n    }\n\n    function initEpoch(uint128 epochId) external {\n        require(_getEpochId() > epochId, \"This epoch is in the future\");\n        _initEpoch(epochId);\n    }\n\n    // internal methods\n\n    function _initEpoch(uint128 epochId) internal {\n        require(lastInitializedEpoch.add(1) == epochId, \"Epoch can be init only in order\");\n        lastInitializedEpoch = epochId;\n\n        if ( totalRewardInEpoch[epochId] == 0) {\n            totalRewardInEpoch[epochId] = totalRewardInEpoch[uint128(epochId.sub(1))];\n        }\n        // call the staking smart contract to init the epoch\n        epochs[epochId] = _getPoolSize(epochId);\n    }\n\n    function _harvest (uint128 epochId) internal returns (uint) {\n        // try to initialize an epoch. if it can't it fails\n        // if it fails either user either a BarnBridge account will init not init epochs\n        if (lastInitializedEpoch < epochId) {\n            _initEpoch(epochId);\n        }\n        // Set user last harvested epoch\n        lastEpochIdHarvested[msg.sender] = epochId;\n        // compute and return user total reward. For optimization reasons the transfer have been moved to an upper layer (i.e. massHarvest needs to do a single transfer)\n\n        // exit if there is no stake on the epoch\n        if (epochs[epochId] == 0) {\n            return 0;\n        }\n\n        uint reward = totalRewardInEpoch[epochId]\n            .mul(_getUserBalancePerEpoch(msg.sender, epochId))\n            .div(epochs[epochId]);\n\n        totalRewardsDistributed = totalRewardsDistributed.add(reward);\n\n        return reward;\n    }\n\n    function _getPoolSize(uint128 epochId) internal view returns (uint) {\n        // retrieve stable coins total staked in epoch\n\n        return _staking.getEpochPoolSize(address(_stakableToken), epochId);\n    }\n\n    function _getUserBalancePerEpoch(address userAddress, uint128 epochId) internal view returns (uint){\n        // retrieve stable coins total staked per user in epoch\n\n        return _staking.getEpochUserBalance(userAddress, address(_stakableToken), epochId);\n    }\n\n    // compute epoch id from blocktimestamp and epochstart date\n    function _getEpochId() internal view returns (uint128 epochId) {\n        if (block.timestamp < epochStart) {\n            return 0;\n        }\n        epochId = uint128(block.timestamp.sub(epochStart).div(epochDuration).add(1));\n    }\n}\n",
  "sourcePath": "/Users/ttabbaa/Documents/Tranche-Contracts/staking-protocol/contracts/StakingMilestones/YieldFarm.sol",
  "compiler": {
    "name": "solc",
    "version": "0.6.12+commit.27d51765.Emscripten.clang"
  },
  "schemaVersion": "3.3.2",
  "updatedAt": "2021-03-18T09:16:26.644Z",
  "networkType": "ethereum",
  "devdoc": {
    "kind": "dev",
    "methods": {
      "owner()": {
        "details": "Returns the address of the current owner."
      },
      "renounceOwnership()": {
        "details": "Leaves the contract without owner. It will not be possible to call `onlyOwner` functions anymore. Can only be called by the current owner. NOTE: Renouncing ownership will leave the contract without an owner, thereby removing any functionality that is only available to the owner."
      },
      "transferOwnership(address)": {
        "details": "Transfers ownership of the contract to a new account (`newOwner`). Can only be called by the current owner."
      }
    },
    "version": 1
  },
  "userdoc": {
    "kind": "user",
    "methods": {},
    "version": 1
  }
}